:020000040800F2
:10000000980B002045010008C70200088102000883
:10001000C30200080F020008A90300080000000046
:1000200000000000000000000000000005030008C0
:100030001302000800000000C902000807030008BE
:100040005F0100085F0100085F0100085F01000810
:100050005F0100085F0100085F0100085F01000800
:100060005F0100085F0100085F0100085F010008F0
:100070005F0100085F0100085F0100085F010008E0
:100080005F0100085F0100085F0100085F010008D0
:100090005F0100085F0100085F0100085F010008C0
:1000A0005F0100085F0100085F0100085F010008B0
:1000B0005F0100085F0100088D0300085F01000870
:1000C0005F0100085F0100085F0100085F01000890
:1000D0005F0100085F0100085F0100085F01000880
:1000E0005F0100085F0100085F0100085F01000870
:1000F0005F0100085F0100085F0100085F01000860
:100100005F0100085F0100085F0100085F0100084F
:100110005F0100085F0100085F0100085F0100083F
:100120005F0100085F0100085F0100085F0100082F
:10013000DFF80CD000F02EF8004800470910000846
:10014000980B00200648804706480047FEE7FEE778
:10015000FEE7FEE7FEE7FEE7FEE7FEE7FEE7FEE777
:10016000110300083101000830B50B46014600209C
:100170002022012409E021FA02F59D4205D303FA69
:1001800002F5491B04FA02F52844151EA2F10102EA
:10019000F1DC30BD064C074D06E0E06840F001039D
:1001A00094E8070098471034AC42F6D3FFF7C4FF39
:1001B000AC1F0008CC1F000870B58C1810F8015B4C
:1001C00015F0070301D110F8013B2A1106D110F8F0
:1001D000012B03E010F8016B01F8016B5B1EF9D1F4
:1001E0002B0705D40023521E0DD401F8013BFAE77A
:1001F00010F8013BCB1A921C03E013F8015B01F8E5
:10020000015B521EF9D5A142D8D3002070BD00BFBA
:10021000FEE770471FB540F2027001F04BF8164838
:1002200001F0C2FC0020ADF80000ADF80200ADF80E
:100230000400124800684FF47A71B0FBF1F0B0FB93
:10024000F1F0401E02900020ADF806008DF80C0081
:100250006946094801F01CFD0121074801F064FDD1
:10026000002202211E2000F00DFF0348006820F04C
:100270000100014908601FBD000800400000002087
:1002800000BFFEE710B50446204600F01FF810BD81
:1002900070B504460D4600F08FFEC4F30740FFF72B
:1002A000F1FFC4F30720FFF7EDFF04F0F801091D8B
:1002B000C8B2FFF7E7FF2846FFF7E4FF00F081FE32
:1002C00070BD00BFFEE770477047000010B50446E0
:1002D00000BF02210A4801F05EF90028F9D021464A
:1002E000074801F056F900BF0121054801F053F914
:1002F0000028F9D0024801F048F9C0B210BD000052
:1003000000300140704710B500F01CFB10BD00002C
:1003100008B51B48006840F4700019490860194886
:10032000006840F00100174908600846406840F046
:10033000800048600020009002E00098401C00907F
:1003400044F6206100988842F7D30E48406820F0B8
:1003500003000C494860084600680B4908400949F9
:1003600008604FF41F0088600846006820F4802071
:10037000086000204860C86201F0ACF908BD0000C8
:1003800088ED00E000100240FFFFF6FE6FF0010074
:100390000349086003480088401C024908807047F0
:1003A00010080040EC02002000BFFEE70FB4054B30
:1003B00010B503A9044A029800F02CF810BC5DF8AF
:1003C00014FB0000350C0008F002002010B50028D6
:1003D00004DB0A07130E054A135406E00A07140E3D
:1003E000034A00F00F031B1FD45410BD00E400E0CB
:1003F00018ED00E002E008C8121F08C1002AFAD177
:1004000070477047002001E001C1121F002AFBD194
:10041000704700002DE9FF4F8BB09A460F46054606
:10042000002606E025280BD052460D9990476D1CFA
:10043000761C28780028F5D10FB03046BDE8F08F43
:100440000024A0460122604900E0044315F8013F62
:10045000203B02FA03F00842F7D128782E2817D162
:1004600015F8010F44F004042A280ED06FF02F0273
:100470002878A0F1300109290AD808EB880102EB9D
:10048000410100EB01086D1CF2E757F8048B6D1C6D
:10049000287869283ED006DC0028CDD063280BD010
:1004A000642804D136E0732810D075284BD052460A
:1004B0000D999047761C85E017F8040B8DF8000025
:1004C00000208DF80100E946012003E057F8049B65
:1004D0004FF0FF3061074FF0000401D40AE0641CC4
:1004E00044450DDA8442FADB19F804100029F6D1EC
:1004F00006E0641C8442FCDB19F804100029F8D1E2
:10050000264404E019F8010B52460D999047641EE9
:10051000F8D257E001CF4FF00A0B002802DA404230
:100520002D2102E0210504D52B218DF82410012175
:1005300003E0E10705D02021F7E70DF1200908913C
:100540000CE00021F9E701CF4FF00A0BF9E759461B
:10055000FFF70AFE01F1300209F8012D0028F6D15B
:10056000ADEB090000F1200B600701D44FF001084A
:10057000D84502DDA8EB0B0000E0002080460024F7
:1005800006E009A85246005D0D999047641C761C50
:1005900008988442F5DB04E0302052460D999047DC
:1005A000761CB8F10001A8F10108F5DC05E019F8A6
:1005B000010B52460D999047761CBBF10001ABF13F
:1005C000010BF4DC6D1C34E709280100816841F05F
:1005D0000801816000BF816801F008010029FAD19B
:1005E000816841F00401816000BF816801F004016D
:1005F0000029FAD1704730B5012902D002291AD159
:100600000CE0C36A23F47003C362C36A541E4FF440
:10061000700505EA04542343C3620DE0836B23F4A1
:1006200040138363836B541E4FF4401505EA045452
:100630002343836300E000BF00BF30BD10B54FF41B
:10064000C02000F0A9F80021184800F033F801227A
:100650001102164800F016F9102201211348FFF785
:10066000CAFF002409E0124810F8242001230021C9
:100670000E4800F0B1F8601CC4B2102CF3DB00226D
:1006800001210A4800F04EF801221146074800F007
:100690002AF8064800F01EF8012000F049F9034846
:1006A000FFF794FF014800F010F810BD002401404E
:1006B000F401002021B1826842F40062826003E00C
:1006C000826822F4006282607047816841F4807120
:1006D00081607047816801F0010119B9816841F0BA
:1006E00001018160704772B101F001031BB18368A1
:1006F00043F48013836001F0020393B1836843F4F1
:10070000004383600DE001F001031BB1836823F413
:100710008013836001F002031BB1836823F400435C
:1007200083607047012902D0022910D107E0836855
:1007300023F46023836083681343836008E0836845
:1007400023F4E043836083681343836000E000BFC9
:1007500000BF704710B500240BE0074951F8243062
:10076000064951F824000422002100F077FB601CA8
:10077000C4B2102CF1DB10BD740200203402002042
:1007800010B500F017F8FFF7E5FF01F0CDF900F024
:1007900045F9FFF753FF10BD0549096821F47021A1
:1007A000034A116011460968014311607047000057
:1007B0000424014010B540F2026000F07BFD4FF4CC
:1007C000A06000F077FD40F20B6000F073FD40F296
:1007D000096000F06FFD10BDF0B51D4606290CD272
:1007E000436B01EB81071F26BE40B34301EB81063B
:1007F00002FA06F63343436322E00C290ED2036B60
:100800008E1F06EB86071F26BE40B3438E1F06EBE6
:10081000860602FA06F63343036311E010290FD26D
:10082000C36AA1F10C0606EB86071F26BE40B34340
:10083000A1F10C0606EB860602FA06F63343C36204
:100840000A2A0CD2046902EB42070726BE40B443D1
:1008500002EB420605FA06F63443046111E0122A5F
:100860000FD2C468A2F10A0606EB46070726BE406F
:10087000B443A2F10A0606EB460605FA06F634432F
:10088000C460F0BDAAB101F480731BB1436843F4A6
:100890008073436001F480631BB1436843F4806359
:1008A000436001F00203CBB1836843F0020383602D
:1008B00014E001F480731BB1436823F48073436038
:1008C00001F480631BB1436823F48063436001F04B
:1008D00002031BB1836823F00203836070470000AA
:1008E00010B54FF4C06000F0E5FC40F2056000F088
:1008F000E1FC00200B4908700EE00B48094909781B
:1009000050F8213003224821084800F0A7FA054892
:100910000078401C03490870024800780828ECDB86
:1009200010BD0000DC010020BC01002000140140CB
:100930000349086000BF024909680029FBD17047DC
:10094000F80000200448006820B103480068401EF9
:100950000149086070470000F800002000B5034618
:1009600003E04FF47A7000F007F8181EA3F10101BC
:100970008BB2F6D100BD000000210D4A11600C4978
:100980002439096841F00101094A243A1160002123
:10099000084A118000BF074909888142FBDB0449EE
:1009A0002439096821F00101014A243A1160704795
:1009B00024080040EC02002070B505460C46214694
:1009C000284600F02BF908B900BFFEE704EB8400CD
:1009D000810005F10800405840F0010104EB84005B
:1009E000820005F10800815070BD70B505460C46C7
:1009F0002146284600F012F908B900BFFEE704EBD3
:100A00008400810005F10800405840F0200104EB0B
:100A10008400820005F10800815070BD00B587B0E8
:100A20000021134800F02AF81248009000208DF8A9
:100A300018001148029001208DF819004002019021
:100A40008000039000208DF81A00102004904002CE
:100A500005906A460021064800F048F80021044845
:100A6000FFF7C3FF00210248FFF7A6FF07B000BD54
:100A7000000002404C240140F402002070B50446FE
:100A80000D462946204600F0C9F808B900BFFEE728
:100A900005EB8500810004F10800405820F00101B9
:100AA00005EB8500820004F108008150002105EB70
:100AB0008500820004F10800815005EB850082006A
:100AC00004F10C00815005EB8500820004F1100058
:100AD000815005EB8500820004F1140081506068AC
:100AE000AA000F2191400843606070BD2DE9F041DC
:100AF00004460D4616462946204600F08FF808B9F0
:100B000000BFFEE705EB8500820004F110003168AC
:100B1000815005EB8500820004F11400B16881501A
:100B2000308A81B205EB8500820004F10C0081500F
:100B300005EB8500810004F10800475827F47C5735
:100B4000F1687068084371690843074305EB850045
:100B5000810004F108004750307E01280ED105EBDA
:100B60008500810004F10800405840F0400105EB89
:100B70008500820004F1080081500DE005EB85003E
:100B8000810004F10800405820F0400105EB850089
:100B9000820004F108008150707E01280ED105EB1F
:100BA0008500810004F10800405840F0800105EB09
:100BB0008500820004F1080081500DE005EB8500FE
:100BC000810004F10800405820F0800105EB850009
:100BD000820004F108008150B07E70B905EB8500F9
:100BE000810004F10800405820F0100105EB850059
:100BF000820004F1080081500DE005EB85008100C2
:100C000004F10800405840F0100105EB8500820017
:100C100004F108008150BDE8F08100000246012087
:100C2000034B9A4202D1042900DD002070470000E6
:100C30000004024070B504460D46E1B2054801F0DB
:100C4000CBF800BF0721034801F017F90028F9D0BD
:100C5000204670BD0038014070B5054600241C4890
:100C6000854200D101E000BFFEE71A4931F81400C7
:100C700000F020FB184931F8140000F01BFB174965
:100C800051F82430164951F824000322182100F0AD
:100C9000E5F8144951F82430114951F82400032291
:100CA000042100F0DBF8284601F09AF84FF4E13116
:100CB000284601F049F80421284601F0EDF8082102
:100CC000284601F0F1F8284601F0D2F870BD000086
:100CD00000380140F0010020E0010020E401002084
:100CE000EC010020E801002010B504460422214652
:100CF000900101F0F3F810BD10B50446042221461E
:100D00004FF4706001F0EAF810BD10B504460422FB
:100D100021464FF4A06001F0E1F810BD1CB50020A1
:100D20001C49087010E01C481A4A127850F822102A
:100D30001A4800F0F1F8174A12780DF80200154829
:100D40000078401C13490870124800780828EADB34
:100D50009DF800009DF8011040EA41009DF8021046
:100D600040EA81009DF8031040EAC1009DF804109C
:100D700040EA01109DF8051040EA41109DF8061068
:100D800040EA81109DF8071040EAC110C4B2204625
:100D90001CBD0000DC010020BC010020001401404B
:100DA000416170470161704700B587B040F2036050
:100DB00000F080FA40F2036000F07CFA40F2036039
:100DC00000F078FA40F2036000F074FA40F20C6030
:100DD00000F070FA4FF4C06000F06CFA01211C487A
:100DE00000F0A2F80121084600F09EF83823032203
:100DF0001821184800F032F840230322102115482A
:100E000000F02CF8002001904FF482700090002038
:100E1000029005904FF4007003901020069000207F
:100E2000049069460C4800F0BEFB0B4800F0A8FB9C
:100E30004FF4807303221021064800F00FF84FF49E
:100E4000807303224821034800F008F807B000BD72
:100E500000023000000C014000300140F0B50446B3
:100E600016460025002201F00F0501F0100747B1DA
:100E7000042E05D145F00305E76B1F43E76300E04F
:100E8000354300201EE0012787401F40C7B122687C
:100E90004FEA800C0F2707FA0CF7BA43870005FAD0
:100EA00007F73A43282904D1012787401F4067618B
:100EB00005E0482903D1012787401F4027612260B0
:100EC000471CB8B20828DED3082022E0012787405B
:100ED0001F40E7B16268A0F108074FEA870C0F27AF
:100EE00007FA0CF7BA43A0F10807BF0005FA07F7A5
:100EF0003A43282904D1012787401F40676105E054
:100F0000482903D1012787401F4027616260471CA1
:100F1000B8B21028DAD3F0BD02469068084008B194
:100F2000012070470020FCE7F0B50A4600230024AA
:100F30000021002500F00046B6F1004F02D11D4E01
:100F4000F16901E01B4E7168C0F3034583B200F400
:100F50004016B6F5401F08D121F0E061154E7668C5
:100F600026F0E066134F7E6012E000F48016B6F5BE
:100F7000801F06D1032606FA05F4A14341F0E06183
:100F800006E0460D360103FA06F6B14341F0E06192
:100F900022B1460D360103FA06F6314300F0004651
:100FA000B6F1004F02D1034EF16101E0014E7160D4
:100FB000F0BD00000000014010B5002000F07CFFF3
:100FC00010BD10B5012000F077FF10BD10B540F244
:100FD000046000F06FF94FF4C06000F06BF94FF45B
:100FE0000053032210210248FFF738FF10BD000014
:100FF0000010014010B54FF400510248FFF7D0FE39
:1010000010BD000000100140FFF782F900F066FB00
:10101000FFF700F9FFF7DAFFFFF762FCFFF7B0FB1D
:101020000C48FFF719FEFFF7E5FFFFF777FE0A49C7
:1010300008800846018809A0FFF7B8F90649087832
:1010400000F074FB04E00A4801680AA0FFF7AEF95B
:10105000F9E7000000380140E400002041646472B8
:101060006573732069733A2564200A0D000000003F
:10107000F40200207B706C6F747465723A25647D95
:101080000A0000002DE9F04103460D4616460024F3
:101090000027A0462A48006800F4E060B0F5E06F41
:1010A00003D100BF4FF0040830E02548006800F489
:1010B000E060B0F5C06F03D101274FF0030825E0D1
:1010C0001F48006800F4E060B0F5A06F02D102276D
:1010D000B8461BE01A48006800F4E060B0F5806F85
:1010E00003D103274FF0010810E01548006800F411
:1010F000E060B0F5407F03D104274FF0000805E021
:101100004FF4A06000F020F80227B846C7F10400B1
:1011100005FA00F4C8F104010F20C8403040044330
:1011200024010848C45403F01F01012088405911CC
:10113000890001F1E021C1F80001BDE8F081000063
:101140000CED00E000E400E002490143024A1160B6
:10115000704700000000FA050CED00E02DE9F04FAB
:101160008CB0074600200A904AA090E8004CC06866
:10117000CDE905BECDF810A007900FF21C1ADAE9F0
:10118000000ACDE9020A0FF2101ADAE9000ACDE9E5
:10119000000A44484068C0F381000B900B9820B1CE
:1011A000012804D002283FD103E03F4A3EE03E4AF6
:1011B0003CE03C48406800F4803CBCF5803F12D1E4
:1011C0003848C06A00F08048B8F1000F01D1364BB2
:1011D00000E0364B3348406800F40039B9F5003F71
:1011E00002D15B0800E0324B2E484068C0F38341D7
:1011F0002C48406800F0006008B141F01001294817
:10120000406800F0804008B141F020010F2901D270
:10121000891C06E00F2903D33E2901D8491C00E0B0
:101220003F2103FB01F201E01F4A00BF00BF1D4840
:101230004068C0F3031504A8465D22FA06F4194875
:101240004068C0F3022502A8465D24FA06F0099022
:1012500014484068C0F3C2251DF8056024FA06F062
:10126000089037B1012F06D0022F06D0032F0AD1E4
:1012700006E00A9208E00A9406E009980A9003E062
:1012800008980A9000E000BF00BF0A980CB0BDE8C3
:10129000F08F0000000000000000000001020304C5
:1012A000060708090010024000127A00006CDC02F8
:1012B00000093D00064A02EB9011096800F01F0387
:1012C00001229A401143024B03EB901211607047C8
:1012D00000100240064A02EB9011096800F01F035B
:1012E00001229A409143024B03EB90121160704728
:1012F00000100240064A02EB9011096800F01F033B
:1013000001229A401143024B03EB90121160704787
:101310000010024010B54FF480710748FFF740FD00
:101320000220FFF729FB4FF480710348FFF73AFDD5
:101330000120FFF713FB10BD000C014010B504465F
:1013400004222146900100F0FDFD10BD10B50446B9
:10135000062221464FF4106000F0F4FD10BD10B5D8
:101360000446042221464FF4706000F0EBFD10BDEE
:1013700010B50446042221464FF4A06000F0E2FDBF
:1013800010BD000008B52A482A490A680260898809
:10139000818029490968C0F8061028490968C0F801
:1013A0000A1027490968C0F80E1026490968C0F8D4
:1013B00012102548007810B924A0FEF7F7FF01208D
:1013C0001B49887600211A48C1760A30FFF7D0FF02
:1013D00017480E30FFF7B2FF1548801DFFF7BFFF1B
:1013E0001548FFF789FC1448C078009012488378AC
:1013F000427801781DA0FEF7D9FF1048FFF785FC61
:101400000E48C07800900D488378427801781FA07C
:10141000FEF7CCFF0A48FFF767FC0948C078009048
:10142000074883784278017820A0FEF7BFFF08BD07
:101430006A070020C4020020CA020020CE02002059
:10144000D2020020D6020020E202002020CAB9D336
:10145000C3B6A8D2E5B5C44950D0C5CFA2C5E4D61D
:10146000C357353530300D0A0000000020573535A0
:101470003030204950B5D8D6B72020203A202564F6
:101480002E25642E25642E25640D0A00205735353F
:10149000303020D7D3CDF8D1DAC2EB203A20256402
:1014A0002E25642E25642E25640D0A00205735351F
:1014B000303020CDF8B9D820202020203A202564D3
:1014C0002E25642E25642E25640D0A0010B50748CC
:1014D00007490A68026089888180FFF737FF05485D
:1014E00003490A6802608988818010BD6A0700206C
:1014F000C4020020340300202DE9F04105460E46C9
:101500000027B846002433E0295D41F6087202EB5B
:101510004410FEF7BDFE315D41F6086202EB441057
:10152000FEF7B6FE0020144921F81400134921F8F3
:101530001400B7F5804F07DC285D4FF6FF7101EA14
:1015400080200D4921F81400B8F5804F07DC305D8C
:101550004FF6FF7101EA8020084921F8140006487F
:1015600030F814000744054830F814008044641C27
:10157000082CC9DBBDE8F0814A0700205A0700208B
:10158000016841F04001016070470146C86880B2BF
:101590007047C160704702469068084008B101205A
:1015A00070470020FCE702460020106800F441501C
:1015B0000B6818434B6818438B681843CB68184373
:1015C0000B6918434B6918438B6918431060D36942
:1015D00023F40063D361704700200021394A126868
:1015E00042F00102374B1A6000BF401C354A1268B6
:1015F00002F0020111B9B0F5A06FF6D1314A1268BC
:1016000002F002020AB900BFFEE72E4AD26942F098
:1016100080522C4BDA612C4A126842F440422A4B29
:101620001A60284A5268274B5A601A4652685A6014
:101630001A46526842F480625A601A465268234B36
:101640001A40204B5A601A465268214B1A431D4BD0
:101650005A601A46126842F080721A6000BF194A36
:10166000126802F00072002AF9D0174A126842F498
:101670008032154B1A6000BF134A526802F4803260
:10168000002AF9D0104A126842F400320E4B1A6058
:1016900000BF0D4A526802F40032002AF9D0094A0C
:1016A000526822F00302074B5A601A46526842F011
:1016B00002025A6000BF034A526802F00802002A80
:1016C000F9D070470010024000700040FFFFC3B720
:1016D0000000340810B5FFF77FFF10BD10B51148AA
:1016E00000681149B0FBF1F4601EB0F1807F01D3B6
:1016F00001200FE0601E4FF0E02148610F214FF004
:10170000FF30FEF763FE00204FF0E02188610720E4
:101710000861002008B100BFFEE70021481EFEF767
:1017200055FE10BD00000020C0D4010038B50446AD
:101730001348C470FFF738FBFFF7ECFDFFF7C6FE58
:10174000FFF720FE0F491048FFF7D6FE0FA0FEF767
:101750002DFE1B48C07800901948837842780178A4
:1017600018A0FEF723FE1D4801881DA0FEF71EFEEF
:101770001FA0FEF71BFE2DA0FEF718FE38BD0000CF
:10178000CA020020BC020020B402002020B5E7C439
:10179000D4D7F7CEAA544350B7FECEF1C6F72CC823
:1017A000C35735353030D7F7CEAA20544350BFCD7C
:1017B000BBA7B6CBC8A5C1ACBDD3200D0A000000A5
:1017C000DC02002020B7FECEF1C6F749503A25646E
:1017D0002E25642E25642E25640D0A00E0020020CB
:1017E00020BCE0CCFDB6CBBFDA3A2564200D0A0060
:1017F00020C1ACBDD3B3C9B9A6BAF3A3ACB7FECE72
:10180000F1C6F7B7A2CBCDCAFDBEDDB8F857353566
:101810003030A3AC5735353030BDABB7B5BBD8B6DB
:10182000D4D3A6CAFDBEDD200D0A000020D3A6D366
:10183000C3B3CCD0F2D6B4D0D0D6D0A1ADA1AD0D2B
:101840000A000000016841F080010160704700005B
:1018500010B531B101293FD002297DD003297CD1B7
:10186000BFE0036A23F001030362836923F00303EB
:101870008361036A148823430362036A23F002032B
:101880000362036A9488234303626A4B984202D03E
:10189000694B98421FD1036A23F004030362036A71
:1018A000548823430362036A23F008030362036A34
:1018B000D48823430362436823F4807343604368FE
:1018C000148923434360436823F4007343604368EF
:1018D000548923434360ABE0036A23F0100303629F
:1018E000836923F440738361036A148843EA041311
:1018F0000362036A23F020030362036A948843EAC5
:10190000041303624B4B984202D04B4B984226D1B2
:10191000036A23F040030362036A548843EA041312
:101920000362036A23F080030362036AD48843EAF4
:1019300004130362436823F480634360436814899B
:1019400043EA84034360436823F4006343604368CD
:10195000548943EA840301E002E068E0436067E001
:10196000036A23F480730362C36923F00303C36132
:10197000036A148843EA04230362036A23F40073AE
:101980000362036A948843EA04230362294B984262
:1019900002D0294B984223D1036A23F48063036267
:1019A000036A548843EA04230362036A23F400634E
:1019B0000362036AD48843EA04230362436823F47E
:1019C000805343604368148943EA041343604368C7
:1019D00023F4005343604368548943EA041343608B
:1019E00026E0036A23F480530362C36923F440733F
:1019F000C361036A148843EA04330362036A23F46D
:101A000000530362036A948843EA04330362094B78
:101A1000984202D0084B984208D1436823F480438F
:101A200043604368148943EA8413436000E000BFC5
:101A300000BF10BD002C01400034014031B101292C
:101A40000CD0022913D0032922D118E0836923F096
:101A5000700383618369134383611AE0836923F40C
:101A6000E0438361836943EA0223836111E0C36930
:101A700023F07003C361C3691343C36109E0C36901
:101A800023F4E043C361C36943EA0223C36100E076
:101A900000BF00BF704731B1012906D0022906D02E
:101AA000032908D105E0426306E0826304E0C263D3
:101AB00002E0026400E000BF00BF704731B10129BD
:101AC0000CD0022913D0032922D118E0836923F016
:101AD000080383618369134383611AE0836923F4F4
:101AE00000638361836943EA0223836111E0C36970
:101AF00023F00803C361C3691343C36109E0C369E9
:101B000023F40063C361C36943EA0223C36100E0B5
:101B100000BF00BF70470021018041808180C180EB
:101B2000018141817047000000B587B07720ADF892
:101B300000000020ADF80200ADF804006320029020
:101B40000020ADF806008DF80C006946154800F03D
:101B50009FF804A8FFF7DFFF0020ADF81400012074
:101B6000ADF8100004AA00210E48FFF771FE142200
:101B700000210C48FFF78FFF602200210948FFF782
:101B80005DFF002211460748FFF798FF0121054835
:101B900000F0CEF80348FFF755FE024800F072F857
:101BA00007B000BD002C014010B504463349601A4F
:101BB0008C4244D00CDCB4F1804F1CD0304820441F
:101BC00010B3B0F5806F28D0B0F5006F52D12DE082
:101BD000B0F5806F3CD0B0F58E3F03D0B0F5923FAA
:101BE00048D13EE040F20B30FFF784FB40F20B306F
:101BF000FFF770FB3FE04FF48060FFF77BFB4FF493
:101C00008060FFF767FB36E040F20140FFF772FBB0
:101C100040F20140FFF75EFB2DE040F20240FFF78B
:101C200069FB40F20240FFF755FB24E040F203401D
:101C3000FFF760FB40F20340FFF74CFB1BE040F274
:101C40000440FFF757FB40F20440FFF743FB12E06C
:101C500040F20540FFF74EFB40F20540FFF73AFB2C
:101C600009E040F20D30FFF745FB40F20D30FFF781
:101C700031FB00E000BF00BF10BD000000100040BD
:101C800000FCFFBF016841F00101016070470000E6
:101C90000A8882621D4A90420ED0B0F1804F0BD06C
:101CA0001B4A904208D01B4A904205D01A4A9042E3
:101CB00002D01A4A90420BD1026822F070020260F0
:101CC00002684B881A43026002688B881A430260DC
:101CD0008A68C262124A90420AD0124A904207D0E1
:101CE000026822F4407202600268CB881A430260E4
:101CF000064A904202D0094A904201D10A7B02630F
:101D0000426942F00102426170470000002C01402C
:101D10000004004000080040000C00400034014076
:101D20000010004000140040C2680A43C2607047BF
:101D3000012904D1426C42F40042426403E0426C47
:101D400022F40042426470472DE9F04704460D46F4
:101D50000027B846B94600261D49601A8C421CD09F
:101D600006DC1C48204470B1B0F5806F1FD10FE035
:101D7000B0F5806F16D0B0F56C4F18D10320FFF787
:101D8000EDF9074614E00220FFF7E8F907460FE0F7
:101D90000220FFF7E3F907460AE00220FFF7DEF929
:101DA000074605E00220FFF7D9F9074600E000BF2B
:101DB00000BF07EB5500B0FBF5F64FF6F07006EAF2
:101DC000000806F00F0948EA0900A060BDE8F087A6
:101DD000004C004000BCFFBFC1F3080242607047E6
:101DE00010B504462049601A8C4228D006DC1F48F2
:101DF000204490B1B0F5806F33D117E0B0F5806F1B
:101E000026D0B0F56C4F2CD140F20E30FFF772FAAD
:101E100040F20E30FFF75EFA24E040F21140FFF787
:101E200069FA40F21140FFF755FA1BE040F2124008
:101E3000FFF760FA40F21240FFF74CFA12E040F26E
:101E40001340FFF757FA40F21340FFF743FA09E057
:101E500040F21440FFF74EFA40F21440FFF73AFA0E
:101E600000E000BF00BF10BD004C004000BCFFBF41
:101E7000C16841F40051C160704710B5024602EBE1
:101E80009110006801F01F040123A340184008B11D
:101E9000012010BD0020FCE70A460021C16821F0A6
:101EA00004011143C16070470A460021C16821F056
:101EB00008011143C160704710B5044624B94021A0
:101EC0000548FEF76DFF05E0012C03D140210248D3
:101ED000FEF768FF10BD0000000C01402DE9F04145
:101EE00004460F461546002615B910A0FEF75EFA07
:101EF000FFF762F8C4F30740FEF7C4F9C4F3072004
:101F0000FEF7C0F904F0F800FEF7BCF9002605E082
:101F10000020FEF7B7F9B855701C86B2AE42F7DB69
:101F2000FFF74FF82846BDE8F0810000556E657850
:101F300070656374656432206C656E677468203008
:101F40000D0A00002DE9F04104460F461546002613
:101F500015B910A0FEF72AFAFFF72EF8C4F30740D0
:101F6000FEF790F9C4F30720FEF78CF904F0F801AE
:101F7000091DC8B2FEF786F9002604E0B85DFEF739
:101F800081F9701C86B2AE42F8DBFFF71AF82846DA
:101F9000BDE8F081556E65787065637465643220C4
:101FA0006C656E67746820300D0A0000CC1F000855
:101FB00000000020F4020000B801000864200008BE
:101FC000F4020020A40800000404000811350E27C4
:101FD000070132023204320832103220324072805D
:101FE00069245A0328320532065A07343209320A64
:101FF000320B320C320D320E420F0C1B0801400422
:102000001A0C049A1004D91029882994297829884F
:10201000299429A0297829942914A9202914A920D0
:10202000011C09BAD8691429202914292C2920292E
:1020300058294C412A0ECD79252C0140021009BDAA
:10204000F8DA020111100D08DC111111C0A80158B5
:10205000FFFFFF19081B0172011B88130A04126697
:0420600088130000E1
:0400000508000131BD
:00000001FF
