:020000040800F2
:10000000180A002045010008F902000881020008D2
:10001000F50200080F020008D903000800000000E4
:100020000000000000000000000000003503000890
:100030001302000800000000FB020008370300085C
:100040005F0100085F0100085F0100085F01000810
:100050005F0100085F0100085F0100085F01000800
:100060005F0100085F0100085F0100085F010008F0
:100070005F0100085F0100085F0100085F010008E0
:100080005F0100085F0100085F0100085F010008D0
:100090005F0100085F0100085F0100085F010008C0
:1000A0005F0100085F0100085F0100085F010008B0
:1000B0005F0100085F010008BD0300085F01000840
:1000C0005F0100085F0100085F0100085F01000890
:1000D0005F0100085F0100085F0100085F01000880
:1000E0005F0100085F0100085F0100085F01000870
:1000F0005F0100085F0100085F0100085F01000860
:100100005F0100085F0100085F0100085F0100084F
:100110005F0100085F0100085F0100085F0100083F
:100120005F0100085F0100085F0100085F0100082F
:10013000DFF80CD000F02EF80048004775110008D9
:10014000180A00200648804706480047FEE7FEE7F9
:10015000FEE7FEE7FEE7FEE7FEE7FEE7FEE7FEE777
:10016000410300083101000830B50B46014600206C
:100170002022012409E021FA02F59D4205D303FA69
:1001800002F5491B04FA02F52844151EA2F10102EA
:10019000F1DC30BD064C074D06E0E06840F001039D
:1001A00094E8070098471034AC42F6D3FFF7C4FF39
:1001B0004C2500086C25000870B58C1810F8015B00
:1001C00015F0070301D110F8013B2A1106D110F8F0
:1001D000012B03E010F8016B01F8016B5B1EF9D1F4
:1001E0002B0705D40023521E0DD401F8013BFAE77A
:1001F00010F8013BCB1A921C03E013F8015B01F8E5
:10020000015B521EF9D5A142D8D3002070BD00BFBA
:10021000FEE770471FB540F2027001F0FDF8164886
:1002200001F024FF0020ADF80000ADF80200ADF8A9
:100230000400124800684FF47A71B0FBF1F0B0FB93
:10024000F1F0401E02900020ADF806008DF80C0081
:100250006946094801F07EFF0121074801F0C6FF09
:10026000002202211E2000F0BFFF0348006820F09A
:100270000100014908601FBD000800400000002087
:1002800000BFFEE770B50446002500F041FFC4F34F
:10029000074000F010F8C4F3072000F00CF804F059
:1002A000F80000F008F8002000F005F8054600F01E
:1002B00034FF284670BD10B50446204600F01EF8F5
:1002C00010BD70B504460D4600F022FFC4F3074090
:1002D000FFF7F1FFC4F30720FFF7EDFF04F0F8018B
:1002E000091DC8B2FFF7E7FF2846FFF7E4FF00F05B
:1002F00014FF70BD00BFFEE77047704710B504469D
:1003000000BF02210A4801F034FC0028F9D0214640
:10031000074801F02CFC00BF0121054801F029FC31
:100320000028F9D0024801F01EFCC0B210BD000048
:1003300000300140704710B500F01EFB10BD0000FA
:1003400008B51B48006840F4700019490860194856
:10035000006840F00100174908600846406840F016
:10036000800048600020009002E00098401C00904F
:1003700044F6206100988842F7D30E48406820F088
:1003800003000C494860084600680B4908400949C9
:1003900008604FF41F0088600846006820F4802041
:1003A000086000204860C86201F082FC08BD0000BF
:1003B00088ED00E000100240FFFFF6FE6FF0010044
:1003C0000349086003480088401C024908807047C0
:1003D000100800406C01002000BFFEE70FB4054B81
:1003E00010B503A9044A029800F02CF810BC5DF87F
:1003F00014FB0000090D00087001002010B5002852
:1004000004DB0A07130E054A135406E00A07140E0C
:10041000034A00F00F031B1FD45410BD00E400E09A
:1004200018ED00E002E008C8121F08C1002AFAD146
:1004300070477047002001E001C1121F002AFBD164
:10044000704700002DE9FF4F8BB09A460F460546D6
:10045000002606E025280BD052460D9990476D1CCA
:10046000761C28780028F5D10FB03046BDE8F08F13
:100470000024A0460122604900E0044315F8013F32
:10048000203B02FA03F00842F7D128782E2817D132
:1004900015F8010F44F004042A280ED06FF02F0243
:1004A0002878A0F1300109290AD808EB880102EB6D
:1004B000410100EB01086D1CF2E757F8048B6D1C3D
:1004C000287869283ED006DC0028CDD063280BD0E0
:1004D000642804D136E0732810D075284BD05246DA
:1004E0000D999047761C85E017F8040B8DF80000F5
:1004F00000208DF80100E946012003E057F8049B35
:100500004FF0FF3061074FF0000401D40AE0641C93
:1005100044450DDA8442FADB19F804100029F6D1BB
:1005200006E0641C8442FCDB19F804100029F8D1B1
:10053000264404E019F8010B52460D999047641EB9
:10054000F8D257E001CF4FF00A0B002802DA404200
:100550002D2102E0210504D52B218DF82410012145
:1005600003E0E10705D02021F7E70DF1200908910C
:100570000CE00021F9E701CF4FF00A0BF9E75946EB
:10058000FFF7F2FD01F1300209F8012D0028F6D144
:10059000ADEB090000F1200B600701D44FF001081A
:1005A000D84502DDA8EB0B0000E0002080460024C7
:1005B00006E009A85246005D0D999047641C761C20
:1005C00008988442F5DB04E0302052460D999047AC
:1005D000761CB8F10001A8F10108F5DC05E019F876
:1005E000010B52460D999047761CBBF10001ABF10F
:1005F000010BF4DC6D1C34E709280100816841F02F
:100600000801816000BF816801F008010029FAD16A
:10061000816841F00401816000BF816801F004013C
:100620000029FAD1704730B5012902D002291AD128
:100630000CE0C36A23F47003C362C36A541E4FF410
:10064000700505EA04542343C3620DE0836B23F471
:1006500040138363836B541E4FF4401505EA045422
:100660002343836300E000BF00BF30BD10B54FF4EB
:10067000C02000F091F801221102184800F002F9A0
:100680000021164800F02EF8102201211348FFF730
:10069000CAFF002409E0124810F824200123002199
:1006A0000E4800F099F8601CC4B2102CF3DB012254
:1006B00011460A4800F02FF800220121074800F0F7
:1006C00049F8064800F01EF8012000F04BF90348F5
:1006D000FFF794FF014800F010F810BD002401401E
:1006E000F400002021B1826842F40062826003E0DD
:1006F000826822F4006282607047816841F48071F0
:1007000081607047816801F0010119B9816841F089
:1007100001018160704772B101F001031BB1836870
:1007200043F48013836001F0020393B1836843F4C0
:10073000004383600DE001F001031BB1836823F4E3
:100740008013836001F002031BB1836823F400432C
:1007500083607047012902D0022910D107E0836825
:1007600023F46023836083681343836008E0836815
:1007700023F4E043836083681343836000E000BF99
:1007800000BF704710B500F015F801F02FFC00F025
:100790005FF9FFF76BFF10BD0549096821F470216F
:1007A000034A116011460968014311607047000057
:1007B0000424014010B540F2026000F02DFE4FF419
:1007C000A06000F029FE40F20B6000F025FE40F230
:1007D000096000F021FE10BDF0B51D4606290CD2BF
:1007E000436B01EB81071F26BE40B34301EB81063B
:1007F00002FA06F63343436322E00C290ED2036B60
:100800008E1F06EB86071F26BE40B3438E1F06EBE6
:10081000860602FA06F63343036311E010290FD26D
:10082000C36AA1F10C0606EB86071F26BE40B34340
:10083000A1F10C0606EB860602FA06F63343C36204
:100840000A2A0CD2046902EB42070726BE40B443D1
:1008500002EB420605FA06F63443046111E0122A5F
:100860000FD2C468A2F10A0606EB46070726BE406F
:10087000B443A2F10A0606EB460605FA06F634432F
:10088000C460F0BDAAB101F480731BB1436843F4A6
:100890008073436001F480631BB1436843F4806359
:1008A000436001F00203CBB1836843F0020383602D
:1008B00014E001F480731BB1436823F48073436038
:1008C00001F480631BB1436823F48063436001F04B
:1008D00002031BB1836823F00203836070470000AA
:1008E00010B54FF4C06000F097FD40F2056000F0D5
:1008F00093FD00200B4908600EE00B480949096888
:1009000050F8213003224821084800F053FB0548E5
:100910000068401C03490860024800680828ECDBB6
:1009200010BD0000DC000020BC00002000140140CD
:1009300010B504464FF4847101EB44101021FFF709
:10094000C0FC00BF4FF4847101EB4410FFF79AFC28
:100950000028F7D14FF4027101EB4410FF21FFF79B
:10096000B0FC10BD0349086000BF024909680029B6
:10097000FBD17047780000200448006820B103488C
:100980000068401E014908607047000078000020A0
:1009900000B5034603E04FF47A7000F007F8181E24
:1009A000A3F101018BB2F6D100BD000000210D4A78
:1009B00011600C492439096841F00101094A243ABF
:1009C00011600021084A118000BF0749098881424F
:1009D000FBDB04492439096821F00101014A243A6A
:1009E00011607047240800406C01002070B5054676
:1009F0000C462146284600F02BF908B900BFFEE757
:100A000004EB8400810005F10800405840F001012A
:100A100004EB8400820005F10800815070BD70B5C0
:100A200005460C462146284600F012F908B900BFD9
:100A3000FEE704EB8400810005F10800405840F017
:100A4000200104EB8400820005F10800815070BD94
:100A500000B587B00021134800F02AF81248009032
:100A600000208DF818001148029001208DF819001F
:100A7000400201908000039000208DF81A001020A1
:100A80000490400205906A460021064800F048F8AC
:100A900000210448FFF7C3FF00210248FFF7A6FF2B
:100AA00007B000BD000002404C240140740100204A
:100AB00070B504460D462946204600F0C9F808B92D
:100AC00000BFFEE705EB8500810004F108004058F7
:100AD00020F0010105EB8500820004F1080081503F
:100AE000002105EB8500820004F10800815005EB30
:100AF0008500820004F10C00815005EB8500820026
:100B000004F11000815005EB8500820004F114000F
:100B100081506068AA000F2191400843606070BD59
:100B20002DE9F04104460D4616462946204600F0C0
:100B30008FF808B900BFFEE705EB8500820004F1DD
:100B400010003168815005EB8500820004F114002B
:100B5000B1688150308A81B205EB8500820004F1D2
:100B60000C00815005EB8500810004F10800475816
:100B700027F47C57F168706808437169084307439C
:100B800005EB8500810004F108004750307E012804
:100B90000ED105EB8500810004F10800405840F0BB
:100BA000400105EB8500820004F1080081500DE052
:100BB00005EB8500810004F10800405820F0400159
:100BC00005EB8500820004F108008150707E012849
:100BD0000ED105EB8500810004F10800405840F07B
:100BE000800105EB8500820004F1080081500DE0D2
:100BF00005EB8500810004F10800405820F08001D9
:100C000005EB8500820004F108008150B07E70B9C8
:100C100005EB8500810004F10800405820F0100128
:100C200005EB8500820004F1080081500DE005EB22
:100C30008500810004F10800405840F0100105EBE8
:100C40008500820004F108008150BDE8F0810000B9
:100C500002460120034B9A4202D1042900DD002004
:100C6000704700000004024010B5ADF6080D0024E6
:100C7000022000F0F8F810B1222837D107E0002355
:100C80001C4802880221084600F0C2FE2EE00A201D
:100C9000FFF77EFE022000F0B3F800F0040018B168
:100CA0000421022000F0EFFD022000F0B2F8041E43
:100CB0001BDD1148114B224602A90090022000F0D2
:100CC000DBFB0021A4F1080002AA115402A90CA028
:100CD000FFF784FB084800880090A4F1080082B266
:100CE000064B02A9022000F025FD00BF00BF0DF653
:100CF000080D10BD5A010020600100205C01002099
:100D000025730D0A0000000070B504460D46E1B2DF
:100D1000054801F031FB00BF0721034801F07DFBCE
:100D20000028F9D0204670BD0038014070B5054656
:100D300000241C48854200D101E000BFFEE71A49AB
:100D400031F8140000F068FB184931F8140000F085
:100D500063FB174951F82430164951F82400032247
:100D6000182100F027F9144951F82430114951F89D
:100D700024000322042100F01DF9284601F000FBA5
:100D80004FF4E131284601F0AFFA0421284601F082
:100D900053FB0821284601F057FB284601F038FB99
:100DA00070BD000000380140F0000020E00000208D
:100DB000E4000020EC000020E800002010B504460C
:100DC00004222146900101F059FB10BD0146024862
:100DD00030F8110070470000CA05002010B5044625
:100DE000042221464FF4706001F048FB10BD10B59D
:100DF0000446042221464FF4A06001F03FFB10BDE1
:100E000010B504464FF4027101EB4410FFF73AFAB3
:100E100010BD70B504460025002600BF42F20861EF
:100E200001EB4410FFF72EFA064642F2087101EB7F
:100E30004410FFF727FA00EB062086B27EB142F29B
:100E4000086101EB4410FFF71DFA054642F20871F4
:100E500001EB4410FFF716FA00EB052085B2B5420E
:100E6000DCD1284670BD10B504464FF4427101EB49
:100E70004410FFF707FA10BD1CB500201B4908609D
:100E800010E01B48194A126850F82210194800F067
:100E9000EFF8164A12680DF8020014480068401C6A
:100EA00012490860114800680828EADB9DF8000034
:100EB0009DF8011040EA41009DF8021040EA8100CF
:100EC0009DF8031040EAC1009DF8041040EA0110AB
:100ED0009DF8051040EA41109DF8061040EA811087
:100EE0009DF8071040EAC11420461CBDDC0000201C
:100EF000BC0000200014014041617047016170474F
:100F000000B587B040F2036000F086FA40F203605B
:100F100000F082FA40F2036000F07EFA40F20360D3
:100F200000F07AFA40F20C6000F076FA4FF4C060FC
:100F300000F072FA01211C4800F0A2F801210846D5
:100F400000F09EF8382303221821184800F032F8E8
:100F5000402303221021154800F02CF800200190B6
:100F60004FF4827000900020029005904FF40070C2
:100F70000390102006900020049069460C4800F071
:100F800000FE0B4800F0EAFD4FF4807303221021AD
:100F9000064800F00FF84FF48073032248210348FD
:100FA00000F008F807B000BD00023000000C01405E
:100FB00000300140F0B5044616460025002201F03D
:100FC0000F0501F0100747B1042E05D145F00305C8
:100FD000E76B1F43E76300E0354300201EE0012775
:100FE00087401F40C7B122684FEA800C0F2707FADD
:100FF0000CF7BA43870005FA07F73A43282904D1CA
:10100000012787401F40676105E0482903D1012778
:1010100087401F4027612260471CB8B20828DED3F2
:10102000082022E0012787401F40E7B16268A0F155
:1010300008074FEA870C0F2707FA0CF7BA43A0F10D
:101040000807BF0005FA07F73A43282904D101270A
:1010500087401F40676105E0482903D10127874089
:101060001F4027616260471CB8B21028DAD3F0BD78
:1010700002469068084008B1012070470020FCE754
:10108000F0B50A46002300240021002500F00046A8
:10109000B6F1004F02D11D4EF16901E01B4E71689F
:1010A000C0F3034583B200F44016B6F5401F08D1E3
:1010B00021F0E061154E766826F0E066134F7E6001
:1010C00012E000F48016B6F5801F06D1032606FA5A
:1010D00005F4A14341F0E06106E0460D360103FA54
:1010E00006F6B14341F0E06122B1460D360103FA44
:1010F00006F6314300F00046B6F1004F02D1034E30
:10110000F16101E0014E7160F0BD0000000001409E
:1011100010B5002001F0A0F910BD10B5012001F0BC
:101120009BF910BD10B540F2046000F075F94FF462
:10113000C06000F071F94FF40053032210210248FF
:10114000FFF738FF10BD00000010014010B54FF44C
:1011500000510248FFF7D2FE10BD00000010014010
:1011600010B54FF400510248FFF7C6FE10BD000055
:1011700000100140FFF7E4F800F09EFDFFF74AF889
:10118000FFF7D0FFFFF7ACFBFFF7FCFA0F48FFF7C4
:10119000CDFD01F03BF8FFF7E3FF16E0FFF7E0FFBE
:1011A0004FF47A70FFF7F4FBFFF7D0FF4FF47A703B
:1011B000FFF7EEFBFFF760FE05490880084601884F
:1011C00004A0FFF70BF9FFF74FFDE7E700380140F8
:1011D00064000020416464726573732069733A256A
:1011E00064200A0D000000002DE9F04103460D4681
:1011F000164600240027A0462A48006800F4E06054
:10120000B0F5E06F03D100BF4FF0040830E025488F
:10121000006800F4E060B0F5C06F03D101274FF023
:10122000030825E01F48006800F4E060B0F5A06FF7
:1012300002D10227B8461BE01A48006800F4E060BB
:10124000B0F5806F03D103274FF0010810E0154877
:10125000006800F4E060B0F5407F03D104274FF050
:10126000000805E04FF4A06000F020F80227B8461F
:10127000C7F1040005FA00F4C8F104010F20C840CA
:101280003040044324010848C45403F01F010120E6
:1012900088405911890001F1E021C1F80001BDE841
:1012A000F08100000CED00E000E400E002490143A1
:1012B000024A1160704700000000FA050CED00E0E2
:1012C0002DE9F04F8CB0074600200A904AA090E824
:1012D000004CC068CDE905BECDF810A007900FF214
:1012E0001C1ADAE9000ACDE9020A0FF2101ADAE94B
:1012F000000ACDE9000A44484068C0F381000B9021
:101300000B9820B1012804D002283FD103E03F4AC6
:101310003EE03E4A3CE03C48406800F4803CBCF57E
:10132000803F12D13848C06A00F08048B8F1000F01
:1013300001D1364B00E0364B3348406800F40039A9
:10134000B9F5003F02D15B0800E0324B2E484068FF
:10135000C0F383412C48406800F0006008B141F0C0
:1013600010012948406800F0804008B141F0200198
:101370000F2901D2891C06E00F2903D33E2901D889
:10138000491C00E03F2103FB01F201E01F4A00BFBE
:1013900000BF1D484068C0F3031504A8465D22FA4B
:1013A00006F419484068C0F3022502A8465D24FAF5
:1013B00006F0099014484068C0F3C2251DF8056086
:1013C00024FA06F0089037B1012F06D0022F06D07C
:1013D000032F0AD106E00A9208E00A9406E0099871
:1013E0000A9003E008980A9000E000BF00BF0A9846
:1013F0000CB0BDE8F08F000000000000000000000D
:1014000001020304060708090010024000127A00D6
:10141000006CDC0200093D00064A02EB90110968ED
:1014200000F01F0301229A401143024B03EB90127C
:101430001160704700100240064A02EB90110968E3
:1014400000F01F0301229A409143024B03EB9012DC
:101450001160704700100240064A02EB90110968C3
:1014600000F01F0301229A401143024B03EB90123C
:1014700011607047001002402DE9FC5F05468A4666
:1014800091461E46DDF8308000270024A346B9F1BE
:10149000000F7CDD42F6080101EB4510FEF7F2FE7D
:1014A000044642F6081101EB4510FEF7EBFE00EB97
:1014B000042084B2200200EB451000F1180B082133
:1014C00001EB4510FEF7DEFE00F00700022804D015
:1014D000032844D0042879D179E008226946584687
:1014E00000F0CCFF04F1080084B29DF800003070D9
:1014F0009DF8010070709DF80200B0709DF8030027
:10150000F0709DF80400A8F800009DF8050098F818
:10151000001000EB0120A8F800009DF806709DF86F
:10152000070000EB072087B2200200EB451000F116
:10153000180B3A465146584600F0A0FFE01984B215
:10154000210A42F6080202EB4510FEF7BAFEE1B2AC
:1015500042F6081202EB4510FEF7B3FE6BE00622DE
:101560006946584600F08AFFA01D84B29DF800002D
:1015700030709DF8010070709DF80200B0709DF809
:101580000300F0709DF804709DF8050000E063E032
:1015900000EB072087B2200200EB451000F1180B8A
:1015A0003A465146584600F069FFE01984B2210AD4
:1015B00042F6080202EB4510FEF783FEE1B242F666
:1015C000081202EB4510FEF77CFE34E032E0022206
:1015D0006946584600F052FFA01C84B29DF8007086
:1015E0009DF8010000EB0720801E87B240F2EA5010
:1015F000874204DD1AA0FEF7F1FE00BFFEE72002DD
:1016000000EB451000F1180B3A465146584600F0E1
:1016100035FFE01984B2210A42F6080202EB4510B8
:10162000FEF74FFEE1B242F6081202EB4510FEF75C
:1016300048FE00E000BF00BF4FF4847101EB45108D
:101640004021FEF73EFE00BF4FF4847101EB4510D0
:10165000FEF718FE0028F7D13846BDE8FC9F0000D1
:10166000646174615F6C656E206F766572203135E0
:1016700031340D0A0000000010B54FF480710748A6
:10168000FFF73AFC0220FFF791F94FF4807103480D
:10169000FFF734FC0120FFF77BF910BD000C01407F
:1016A0002DE9F04104460F4616460025A8462EB9FE
:1016B000214618A0FEF792FEBDE8F08142F20841F3
:1016C00001EB4410FEF7DEFD054642F2085101EB46
:1016D0004410FEF7D7FD00EB052085B2280200EB91
:1016E000441000F1100832463946404600F0FAFE38
:1016F000A81985B2290A42F2084202EB4410FEF70B
:10170000E0FDE9B242F2085202EB4410FEF7D9FDC7
:1017100000BFD1E743483A20256420556E657870B4
:10172000656374656431206C656E67746820300D84
:101730000A0000002DE9F0470446894616461D467A
:10174000089F4FF000082046FFF740FBB04204DA44
:101750002046FFF73BFB804600E0B046287828B9DA
:10176000687818B9A87808B9E87800B117B94FF0C7
:10177000000863E0297840F6084202EB4410FEF7C7
:10178000A0FD697840F6085202EB4410FEF799FD7F
:10179000A97840F6086202EB4410FEF792FDE97862
:1017A00040F6087202EB4410FEF78BFD390A41F255
:1017B000080202EB4410FEF784FDF9B241F2081270
:1017C00002EB4410FEF77DFD424649462046FFF7F6
:1017D00067FF4FF4847101EB44102021FEF771FD87
:1017E00000BF4FF4847101EB4410FEF74BFD00285D
:1017F000F7D112E04FF4027101EB4410FEF742FD05
:1018000000F0080048B14FF4027101EB44101821B8
:10181000FEF757FD0020BDE8F0874FF4027101EBA1
:101820004410FEF72FFD00F010001028E2D14FF415
:10183000027101EB44101021FEF743FD4046EAE738
:1018400010B5044604222146900100F04BFE10BD65
:1018500010B50446062221464FF4106000F042FE07
:1018600010BD10B50446042221464FF4706000F00C
:1018700039FE10BD10B50446042221464FF4A06085
:1018800000F030FE10BD70B504460D464FF40271F5
:1018900001EB44102946FEF714FD70BD08B52A4837
:1018A0002A490A6802608988818029490968C0F844
:1018B000061028490968C0F80A1027490968C0F8C5
:1018C0000E1026490968C0F812102548007810B992
:1018D00024A0FEF783FD01201B49887600211A48C9
:1018E000C1760A30FFF7C6FF17480E30FFF7A8FF92
:1018F0001548801DFFF7B5FF1548FFF76FFA14482C
:10190000C078009012488378427801781DA0FEF7D5
:1019100065FD1048FFF76BFA0E48C07800900D483F
:101920008378427801781FA0FEF758FD0A48FFF738
:1019300045FA0948C07800900748837842780178D2
:1019400020A0FEF74BFD08BDEA0500204401002061
:101950004A0100204E0100205201002056010020C3
:101960006201002020CAB9D3C3B6A8D2E5B5C449E4
:1019700050D0C5CFA2C5E4D6C357353530300D0A97
:1019800000000000205735353030204950B5D8D6FA
:10199000B72020203A2025642E25642E25642E258C
:1019A000640D0A0020573535303020D7D3CDF8D11B
:1019B000DAC2EB203A2025642E25642E25642E25DC
:1019C000640D0A0020573535303020CDF8B9D820C5
:1019D000202020203A2025642E25642E25642E25E3
:1019E000640D0A0010B5074807490A680260898833
:1019F0008180FFF72DFF054803490A680260898846
:101A0000818010BDEA05002044010020B4010020BF
:101A10002DE9F04104460D461646984605F00F00A4
:101A200001280FD005F00F0002280BD005F00F00A1
:101A3000032807D005F00F00042803D005F00F009D
:101A4000052841D12046FEF773FF45EA0801082228
:101A500002EB4410FEF735FC76B1310A4FF4816297
:101A600002EB4410FEF72DFCF1B24FF4A16202EB41
:101A70004410FEF726FC15E015480088401C144968
:101A800008800A461288110A4FF4816202EB441062
:101A9000FEF717FC0E4A11784FF4A16202EB4410D6
:101AA000FEF70FFC4FF4847101EB44100121FEF7A7
:101AB00008FC00BF4FF4847101EB4410FEF7E2FB19
:101AC0000028F7D1012700E000273846BDE8F08163
:101AD0005A0100202DE9F04105460E460027B84680
:101AE000002433E0295D41F6087202EB4410FEF752
:101AF000E8FB315D41F6086202EB4410FEF7E1FBC2
:101B00000020144921F81400134921F81400B7F5F6
:101B1000804F07DC285D4FF6FF7101EA80200D49F8
:101B200021F81400B8F5804F07DC305D4FF6FF71E7
:101B300001EA8020084921F81400064830F8140012
:101B40000744054830F814008044641C082CC9DBA5
:101B5000BDE8F081CA050020DA050020016841F0E7
:101B60004001016070470146C86880B27047C1609B
:101B7000704702469068084008B101207047002075
:101B8000FCE702460020106800F441500B6818433F
:101B90004B6818438B681843CB6818430B6918438C
:101BA0004B6918438B6918431060D36923F40063B1
:101BB000D361704700200021394A126842F00102C7
:101BC000374B1A6000BF401C354A126802F0020110
:101BD00011B9B0F5A06FF6D1314A126802F00202D5
:101BE0000AB900BFFEE72E4AD26942F080522C4B60
:101BF000DA612C4A126842F440422A4B1A60284AA1
:101C00005268274B5A601A4652685A601A46526800
:101C100042F480625A601A465268234B1A40204BA5
:101C20005A601A465268214B1A431D4B5A601A4695
:101C3000126842F080721A6000BF194A126802F0FE
:101C40000072002AF9D0174A126842F48032154B0C
:101C50001A6000BF134A526802F48032002AF9D099
:101C6000104A126842F400320E4B1A6000BF0D4A4F
:101C7000526802F40032002AF9D0094A526822F070
:101C80000302074B5A601A46526842F002025A6039
:101C900000BF034A526802F00802002AF9D07047D8
:101CA0000010024000700040FFFFC3B7000034087E
:101CB00010B5FFF77FFF10BD10B51148006811493E
:101CC000B0FBF1F4601EB0F1807F01D301200FE082
:101CD000601E4FF0E02148610F214FF0FF30FEF70A
:101CE0008DFB00204FF0E021886107200861002073
:101CF00008B100BFFEE70021481EFEF77FFB10BDC4
:101D000000000020C0D40100016841F080010160A2
:101D10007047000010B531B101293FD002297DD0B4
:101D200003297CD1BFE0036A23F0010303628369C6
:101D300023F003038361036A148823430362036A65
:101D400023F002030362036A9488234303626A4B0D
:101D5000984202D0694B98421FD1036A23F00403D2
:101D60000362036A548823430362036A23F008036F
:101D70000362036AD48823430362436823F48073B5
:101D800043604368148923434360436823F400732A
:101D900043604368548923434360ABE0036A23F004
:101DA00010030362836923F440738361036A148818
:101DB00043EA04130362036A23F020030362036A05
:101DC000948843EA041303624B4B984202D04B4B76
:101DD000984226D1036A23F040030362036A5488C1
:101DE00043EA04130362036A23F080030362036A75
:101DF000D48843EA04130362436823F48063436096
:101E00004368148943EA84034360436823F400630E
:101E100043604368548943EA840301E002E068E0D8
:101E2000436067E0036A23F480730362C36923F0AD
:101E30000303C361036A148843EA04230362036A49
:101E400023F400730362036A948843EA0423036261
:101E5000294B984202D0294B984223D1036A23F49C
:101E600080630362036A548843EA04230362036ABB
:101E700023F400630362036AD48843EA0423036201
:101E8000436823F4805343604368148943EA04138E
:101E90004360436823F4005343604368548943EA32
:101EA0000413436026E0036A23F480530362C3698A
:101EB00023F44073C361036A148843EA0433036262
:101EC000036A23F400530362036A948843EA0433E9
:101ED0000362094B984202D0084B984208D14368EC
:101EE00023F4804343604368148943EA84134360C6
:101EF00000E000BF00BF10BD002C014000340140D5
:101F000031B101290CD0022913D0032922D118E0C4
:101F1000836923F0700383618369134383611AE04B
:101F2000836923F4E0438361836943EA0223836185
:101F300011E0C36923F07003C361C3691343C36134
:101F400009E0C36923F4E043C361C36943EA0223A0
:101F5000C36100E000BF00BF704731B1012906D066
:101F6000022906D0032908D105E0426306E0826316
:101F700004E0C26302E0026400E000BF00BF7047FB
:101F800031B101290CD0022913D0032922D118E044
:101F9000836923F0080383618369134383611AE033
:101FA000836923F400638361836943EA02238361C5
:101FB00011E0C36923F00803C361C3691343C3611C
:101FC00009E0C36923F40063C361C36943EA0223E0
:101FD000C36100E000BF00BF704700210180418065
:101FE0008180C180018141817047000000B587B0C8
:101FF0007720ADF800000020ADF80200ADF8040035
:10200000632002900020ADF806008DF80C006946B0
:10201000154800F09FF804A8FFF7DFFF0020ADF897
:1020200014000120ADF8100004AA00210E48FFF7AB
:1020300071FE142200210C48FFF78FFF602200215F
:102040000948FFF75DFF002211460748FFF798FF98
:102050000121054800F0CEF80348FFF755FE02487D
:1020600000F072F807B000BD002C014010B5044626
:102070003349601A8C4244D00CDCB4F1804F1CD040
:102080003048204410B3B0F5806F28D0B0F5006F11
:1020900052D12DE0B0F5806F3CD0B0F58E3F03D02B
:1020A000B0F5923F48D13EE040F20B30FFF7D4F953
:1020B00040F20B30FFF7C0F93FE04FF48060FFF7CC
:1020C000CBF94FF48060FFF7B7F936E040F20140FA
:1020D000FFF7C2F940F20140FFF7AEF92DE040F200
:1020E0000240FFF7B9F940F20240FFF7A5F924E0FA
:1020F00040F20340FFF7B0F940F20340FFF79CF9CC
:102100001BE040F20440FFF7A7F940F20440FFF75C
:1021100093F912E040F20540FFF79EF940F20540C6
:10212000FFF78AF909E040F20D30FFF795F940F228
:102130000D30FFF781F900E000BF00BF10BD0000C7
:102140000010004000FCFFBF016841F00101016088
:10215000704700000A8882621D4A90420ED0B0F19A
:10216000804F0BD01B4A904208D01B4A904205D0AA
:102170001A4A904202D01A4A90420BD1026822F0C9
:102180007002026002684B881A43026002688B8802
:102190001A4302608A68C262124A90420AD0124A06
:1021A000904207D0026822F4407202600268CB8835
:1021B0001A430260064A904202D0094A904201D175
:1021C0000A7B0263426942F00102426170470000EB
:1021D000002C01400004004000080040000C0040BA
:1021E000003401400010004000140040C2680A435F
:1021F000C2607047012904D1426C42F4004242643B
:1022000003E0426C22F400424264704710B5FEF7CE
:1022100077FEFFF731FAFFF7E5FBFFF73FFB0A49CF
:102220000A48FFF757FC0AA0FEF7D8F811480188C2
:1022300011A0FEF7D3F81748018817A0FEF7CEF8D3
:102240001AA0FEF7CBF810BD3C010020340100209D
:10225000205735353030BFC9D2D4BACDB5E7C4D454
:10226000B5C4554450B6CBBFDACDA8D1B6200D0ABF
:10227000000000005A010020205735353030B5C429
:10228000B1BEB5D8B6CBBFDACEAA3A2564200D0AC6
:10229000000000006001002020D4B6B6CBB6CBBF52
:1022A000DACEAA3A2564200D0A00000020C1ACBD98
:1022B000D3B3C9B9A6BAF3A3AC5043BBFAB7A2CB08
:1022C000CDCAFDBEDDB8F85735353030A3AC573533
:1022D000353030BDABB7B5BBD8B6D4D3A6CAFDBE7A
:1022E000DD200D0A000000002DE9F04704460D46F0
:1022F0000027B846B94600261D49601A8C421CD0FA
:1023000006DC1C48204470B1B0F5806F1FD10FE08F
:10231000B0F5806F16D0B0F56C4F18D10320FEF7E2
:10232000CFFF074614E00220FEF7CAFF07460FE082
:102330000220FEF7C5FF07460AE00220FEF7C0FFB5
:10234000074605E00220FEF7BBFF074600E000BF9E
:1023500000BF07EB5500B0FBF5F64FF6F07006EA4C
:10236000000806F00F0948EA0900A060BDE8F08700
:10237000004C004000BCFFBFC1F308024260704740
:1023800010B504462049601A8C4228D006DC1F484C
:10239000204490B1B0F5806F33D117E0B0F5806F75
:1023A00026D0B0F56C4F2CD140F20E30FFF754F828
:1023B00040F20E30FFF740F824E040F21140FFF702
:1023C0004BF840F21140FFF737F81BE040F21240A3
:1023D000FFF742F840F21240FFF72EF812E040F209
:1023E0001340FFF739F840F21340FFF725F809E0F2
:1023F00040F21440FFF730F840F21440FFF71CF8A9
:1024000000E000BF00BF10BD004C004000BCFFBF9B
:10241000C16841F40051C160704710B5024602EB3B
:102420009110006801F01F040123A340184008B177
:10243000012010BD0020FCE70A460021C16821F000
:1024400004011143C16070470A460021C16821F0B0
:1024500008011143C160704710B5044624B94021FA
:102460000548FEF749FD05E0012C03D14021024853
:10247000FEF744FD10BD0000000C01402DE9F041C5
:1024800004460F461546002615B910A0FDF7A6FF15
:10249000FEF73EFEC4F30740FDF70DFFC4F307202F
:1024A000FDF709FF04F0F800FDF705FF002605E041
:1024B0000020FDF700FFB855701C86B2AE42F7DB76
:1024C000FEF72BFE2846BDE8F0810000556E6578CA
:1024D00070656374656432206C656E677468203063
:1024E0000D0A00002DE9F04104460F46154600266E
:1024F00015B910A0FDF772FFFEF70AFEC4F30740FE
:10250000FDF7D9FEC4F30720FDF7D5FE04F0F8016E
:10251000091DC8B2FDF7CFFE002604E0B85DFDF747
:10252000CAFE701C86B2AE42F8DBFEF7F6FD284606
:10253000BDE8F081556E657870656374656432201E
:102540006C656E67746820300D0A00006C25000809
:102550000000002074010000B8010008D025000828
:1025600074010020A40800003404000811350E276F
:1025700007013202320432083210322032407280B7
:1025800069245A0328320532065A07343209320ABE
:10259000320B320C320D320E021F0F093A5809224B
:1025A000B82A0E4D79252C01400210093D78DA0237
:1025B0000111100D08DC111111C0A80158FFFFFF17
:1025C00019081B0172011B88130A04126688130084
:0400000508000131BD
:00000001FF
