:020000040800F2
:100000001812002045010008F902000881020008CA
:10001000F50200080F020008D903000800000000E4
:100020000000000000000000000000003503000890
:100030001302000800000000FB020008370300085C
:100040005F0100085F0100085F0100085F01000810
:100050005F0100085F0100085F0100085F01000800
:100060005F0100085F0100085F0100085F010008F0
:100070005F0100085F0100085F0100085F010008E0
:100080005F0100085F0100085F0100085F010008D0
:100090005F0100085F0100085F0100085F010008C0
:1000A0005F0100085F0100085F0100085F010008B0
:1000B0005F0100085F010008BD0300085F01000840
:1000C0005F0100085F0100085F0100085F01000890
:1000D0005F0100085F0100085F0100085F01000880
:1000E0005F0100085F0100085F0100085F01000870
:1000F0005F0100085F0100085F0100085F01000860
:100100005F0100085F0100085F0100085F0100084F
:100110005F0100085F0100085F0100085F0100083F
:100120005F0100085F0100085F0100085F0100082F
:10013000DFF80CD000F02EF800480047CD12000880
:10014000181200200648804706480047FEE7FEE7F1
:10015000FEE7FEE7FEE7FEE7FEE7FEE7FEE7FEE777
:10016000410300083101000830B50B46014600206C
:100170002022012409E021FA02F59D4205D303FA69
:1001800002F5491B04FA02F52844151EA2F10102EA
:10019000F1DC30BD064C074D06E0E06840F001039D
:1001A00094E8070098471034AC42F6D3FFF7C4FF39
:1001B0009C250008BC25000870B58C1810F8015B60
:1001C00015F0070301D110F8013B2A1106D110F8F0
:1001D000012B03E010F8016B01F8016B5B1EF9D1F4
:1001E0002B0705D40023521E0DD401F8013BFAE77A
:1001F00010F8013BCB1A921C03E013F8015B01F8E5
:10020000015B521EF9D5A142D8D3002070BD00BFBA
:10021000FEE770471FB540F2027001F0ABF91648D7
:1002200001F0BAFF0020ADF80000ADF80200ADF813
:100230000400124800684FF47A71B0FBF1F0B0FB93
:10024000F1F0401E02900020ADF806008DF80C0081
:100250006946094802F014F80121074802F05CF8E9
:10026000002202211E2001F06DF80348006820F0F2
:100270000100014908601FBD000800400000002087
:1002800000BFFEE770B50446002500F0EDFFC4F3A3
:10029000074000F010F8C4F3072000F00CF804F059
:1002A000F80000F008F8002000F005F8054600F01E
:1002B000E0FF284670BD10B50446204600F01EF849
:1002C00010BD70B504460D4600F0CEFFC4F30740E4
:1002D000FFF7F1FFC4F30720FFF7EDFF04F0F8018B
:1002E000091DC8B2FFF7E7FF2846FFF7E4FF00F05B
:1002F000C0FF70BD00BFFEE77047704710B50446F1
:1003000000BF02210A4801F03EFC0028F9D0214636
:10031000074801F036FC00BF0121054801F033FC1D
:100320000028F9D0024801F028FCC0B210BD00003E
:1003300000300140704710B500F09AFB10BD00007E
:1003400008B51B48006840F4700019490860194856
:10035000006840F00100174908600846406840F016
:10036000800048600020009002E00098401C00904F
:1003700044F6206100988842F7D30E48406820F088
:1003800003000C494860084600680B4908400949C9
:1003900008604FF41F0088600846006820F4802041
:1003A000086000204860C86201F08CFC08BD0000B5
:1003B00088ED00E000100240FFFFF6FE6FF0010044
:1003C0000349086003480088401C024908807047C0
:1003D000100800406C01002000BFFEE70FB4054B81
:1003E00010B503A9044A029800F02CF810BC5DF87F
:1003F00014FB0000090E00087001002010B5002851
:1004000004DB0A07130E054A135406E00A07140E0C
:10041000034A00F00F031B1FD45410BD00E400E09A
:1004200018ED00E002E008C8121F08C1002AFAD146
:1004300070477047002001E001C1121F002AFBD164
:10044000704700002DE9FF4F8BB09A460F460546D6
:10045000002606E025280BD052460D9990476D1CCA
:10046000761C28780028F5D10FB03046BDE8F08F13
:100470000024A0460122604900E0044315F8013F32
:10048000203B02FA03F00842F7D128782E2817D132
:1004900015F8010F44F004042A280ED06FF02F0243
:1004A0002878A0F1300109290AD808EB880102EB6D
:1004B000410100EB01086D1CF2E757F8048B6D1C3D
:1004C000287869283ED006DC0028CDD063280BD0E0
:1004D000642804D136E0732810D075284BD05246DA
:1004E0000D999047761C85E017F8040B8DF80000F5
:1004F00000208DF80100E946012003E057F8049B35
:100500004FF0FF3061074FF0000401D40AE0641C93
:1005100044450DDA8442FADB19F804100029F6D1BB
:1005200006E0641C8442FCDB19F804100029F8D1B1
:10053000264404E019F8010B52460D999047641EB9
:10054000F8D257E001CF4FF00A0B002802DA404200
:100550002D2102E0210504D52B218DF82410012145
:1005600003E0E10705D02021F7E70DF1200908910C
:100570000CE00021F9E701CF4FF00A0BF9E75946EB
:10058000FFF7F2FD01F1300209F8012D0028F6D144
:10059000ADEB090000F1200B600701D44FF001081A
:1005A000D84502DDA8EB0B0000E0002080460024C7
:1005B00006E009A85246005D0D999047641C761C20
:1005C00008988442F5DB04E0302052460D999047AC
:1005D000761CB8F10001A8F10108F5DC05E019F876
:1005E000010B52460D999047761CBBF10001ABF10F
:1005F000010BF4DC6D1C34E709280100816841F02F
:100600000801816000BF816801F008010029FAD16A
:10061000816841F00401816000BF816801F004013C
:100620000029FAD1704730B5012902D002291AD128
:100630000CE0C36A23F47003C362C36A541E4FF410
:10064000700505EA04542343C3620DE0836B23F471
:1006500040138363836B541E4FF4401505EA045422
:100660002343836300E000BF00BF30BD10B54FF4EB
:10067000C02000F091F801221102184800F002F9A0
:100680000021164800F02EF8102201211348FFF730
:10069000CAFF002409E0124810F824200123002199
:1006A0000E4800F099F8601CC4B2102CF3DB012254
:1006B00011460A4800F02FF800220121074800F0F7
:1006C00049F8064800F01EF8012000F0C7F9034879
:1006D000FFF794FF014800F010F810BD002401401E
:1006E000F400002021B1826842F40062826003E0DD
:1006F000826822F4006282607047816841F48071F0
:1007000081607047816801F0010119B9816841F089
:1007100001018160704772B101F001031BB1836870
:1007200043F48013836001F0020393B1836843F4C0
:10073000004383600DE001F001031BB1836823F4E3
:100740008013836001F002031BB1836823F400432C
:1007500083607047012902D0022910D107E0836825
:1007600023F46023836083681343836008E0836815
:1007700023F4E043836083681343836000E000BF99
:1007800000BF704710B500F015F801F0C5FC00F08F
:10079000DBF9FFF76BFF10BD0549096821F47021F3
:1007A000034A116011460968014311607047000057
:1007B0000424014010B540F2026000F0DBFE4FF46B
:1007C000A06000F0D7FE40F20B6000F0D3FE40F2D4
:1007D000096000F0CFFE10BDF0B51D4606290CD211
:1007E000436B01EB81071F26BE40B34301EB81063B
:1007F00002FA06F63343436322E00C290ED2036B60
:100800008E1F06EB86071F26BE40B3438E1F06EBE6
:10081000860602FA06F63343036311E010290FD26D
:10082000C36AA1F10C0606EB86071F26BE40B34340
:10083000A1F10C0606EB860602FA06F63343C36204
:100840000A2A0CD2046902EB42070726BE40B443D1
:1008500002EB420605FA06F63443046111E0122A5F
:100860000FD2C468A2F10A0606EB46070726BE406F
:10087000B443A2F10A0606EB460605FA06F634432F
:10088000C460F0BDAAB101F480731BB1436843F4A6
:100890008073436001F480631BB1436843F4806359
:1008A000436001F00203CBB1836843F0020383602D
:1008B00014E001F480731BB1436823F48073436038
:1008C00001F480631BB1436823F48063436001F04B
:1008D00002031BB1836823F00203836070470000AA
:1008E00010B54FF4C06000F045FE40F2056000F026
:1008F00041FE00200B4908700EE00B4809490978B9
:1009000050F8213003224821084800F0FFFB054839
:100910000078401C03490870024800780828ECDB86
:1009200010BD0000DC000020BC00002000140140CD
:1009300010B504464FF4847101EB44101021FFF709
:10094000C0FC00BF4FF4847101EB4410FFF79AFC28
:100950000028F7D14FF4027101EB4410FF21FFF79B
:10096000B0FC10BD2DE9F04105460C461646207836
:10097000FF2808D16078FF2805D1A078FF2802D190
:10098000E078FF2808D0207828B9607818B9A078D6
:1009900008B9E07800B10EB900275CE001272178A2
:1009A00040F6084202EB4510FFF78BFC617840F6F9
:1009B000085202EB4510FFF784FCA17840F608626C
:1009C00002EB4510FFF77DFCE17840F6087202EB80
:1009D0004510FFF776FC310A41F2080202EB4510A0
:1009E000FFF76FFCF1B241F2081202EB4510FFF77E
:1009F00068FC4FF4847101EB45100421FFF761FCA2
:100A000000BF4FF4847101EB4510FFF73BFC002859
:100A1000F7D117E04FF4427101EB4510FFF732FCBC
:100A2000172800D116E0284600F06AFA00F0080006
:100A300040B14FF4027101EB45100821FFF741FC72
:100A4000002707E04FF4427101EB4510FFF71AFC55
:100A50001528DFD100BF3846BDE8F08103490860A2
:100A600000BF024909680029FBD1704778000020C7
:100A70000448006820B103480068401E014908602E
:100A8000704700007800002000B5034603E04FF4F3
:100A90007A7000F007F8181EA3F101018BB2F6D1AD
:100AA00000BD000000210D4A11600C49243909687D
:100AB00041F00101094A243A11600021084A1180DD
:100AC00000BF074909888142FBDB044924390968D2
:100AD00021F00101014A243A1160704724080040C6
:100AE0006C01002070B505460C462146284600F0F2
:100AF0002BF908B900BFFEE704EB8400810005F183
:100B00000800405840F0010104EB8400820005F128
:100B10000800815070BD70B505460C462146284638
:100B200000F012F908B900BFFEE704EB8400810071
:100B300005F10800405840F0200104EB84008200D9
:100B400005F10800815070BD00B587B00021134841
:100B500000F02AF81248009000208DF81800114883
:100B6000029001208DF8190040020190800003904E
:100B700000208DF81A0010200490400205906A466B
:100B80000021064800F048F800210448FFF7C3FFA1
:100B900000210248FFF7A6FF07B000BD0000024099
:100BA0004C2401407401002070B504460D462946CE
:100BB000204600F0C9F808B900BFFEE705EB850044
:100BC000810004F10800405820F0010105EB850088
:100BD000820004F108008150002105EB85008200AD
:100BE00004F10800815005EB8500820004F10C003F
:100BF000815005EB8500820004F11000815005EB67
:100C00008500820004F1140081506068AA000F2161
:100C100091400843606070BD2DE9F04104460D46E7
:100C200016462946204600F08FF808B900BFFEE7B7
:100C300005EB8500820004F110003168815005EB5E
:100C40008500820004F11400B1688150308A81B2BD
:100C500005EB8500820004F10C00815005EB850056
:100C6000810004F10800475827F47C57F168706848
:100C7000084371690843074305EB8500810004F1CF
:100C800008004750307E01280ED105EB8500810019
:100C900004F10800405840F0400105EB8500820057
:100CA00004F1080081500DE005EB8500810004F19E
:100CB0000800405820F0400105EB8500820004F157
:100CC00008008150707E01280ED105EB850081005F
:100CD00004F10800405840F0800105EB85008200D7
:100CE00004F1080081500DE005EB8500810004F15E
:100CF0000800405820F0800105EB8500820004F1D7
:100D000008008150B07E70B905EB8500810004F1C8
:100D10000800405820F0100105EB8500820004F126
:100D2000080081500DE005EB8500810004F108000A
:100D3000405840F0100105EB8500820004F10800E6
:100D40008150BDE8F081000002460120034B9A4229
:100D500002D1042900DD0020704700000004024099
:100D600010B50024012000F0FEF830B1132810D097
:100D7000172815D01C2838D133E01D480288008878
:100D8000401C1B4B188020230121084600F04AFE1E
:100D90002BE01848028818490120FFF7E3FD24E002
:100DA000012000F0ADF800F0010018B10121084663
:100DB00000F073FD012000F0ACF80446002C0FDDBC
:100DC00022460E49012000F005FC00200B49085581
:100DD0000BA0FFF703FB22460849012000F07AFC34
:100DE00003E00120FFF7A4FD00BF00BF10BD00001D
:100DF0005A010020600100205C010020180600203C
:100E000025730D0A0000000070B504460D46E1B2DE
:100E1000054801F0D9FA00BF0721034801F025FB7E
:100E20000028F9D0204670BD0038014070B5054655
:100E300000241C48854200D101E000BFFEE71A49AA
:100E400031F8140000F096FB184931F8140000F056
:100E500091FB174951F82430164951F82400032218
:100E6000182100F053F9144951F82430114951F870
:100E700024000322042100F049F9284601F0A8FAD1
:100E80004FF4E131284601F057FA0421284601F0D9
:100E9000FBFA0821284601F0FFFA284601F0E0FAA3
:100EA00070BD000000380140F0000020E00000208C
:100EB000E4000020EC000020E800002010B504460B
:100EC00004222146900101F001FB10BD01460248B9
:100ED00030F8110070470000CA05002010B5044624
:100EE000042221464FF4706001F0F0FA10BD10B5F5
:100EF0000446042221464FF4A06001F0E7FA10BD39
:100F000010B504464FF4027101EB4410FFF7BAF933
:100F100010BD70B504460025002600BF42F20861EE
:100F200001EB4410FFF7AEF9064642F2087101EBFF
:100F30004410FFF7A7F900EB062086B27EB142F21B
:100F4000086101EB4410FFF79DF9054642F2087174
:100F500001EB4410FFF796F900EB052085B2B5428E
:100F6000DCD1284670BD10B504464FF4427101EB48
:100F70004410FFF787F910BD70B504460025002620
:100F800000BF42F2080101EB4410FFF77BF906466F
:100F900042F2081101EB4410FFF774F900EB062050
:100FA00086B27EB142F2080101EB4410FFF76AF904
:100FB000054642F2081101EB4410FFF763F900EB1C
:100FC000052085B2B542DCD1284670BD1CB5002095
:100FD0001C49087010E01C481A4A127850F8221078
:100FE0001A4800F0F1F8174A12780DF80200154877
:100FF0000078401C13490870124800780828EADB82
:101000009DF800009DF8011040EA41009DF8021093
:1010100040EA81009DF8031040EAC1009DF80410E9
:1010200040EA01109DF8051040EA41109DF80610B5
:1010300040EA81109DF8071040EAC110C4B2204672
:101040001CBD0000DC000020BC000020001401409A
:10105000416170470161704700B587B040F203609D
:1010600000F088FA40F2036000F084FA40F2036076
:1010700000F080FA40F2036000F07CFA40F20C606D
:1010800000F078FA4FF4C06000F074FA01211C48B7
:1010900000F0A2F80121084600F09EF83823032250
:1010A0001821184800F032F8402303221021154877
:1010B00000F02CF8002001904FF482700090002086
:1010C000029005904FF400700390102006900020CD
:1010D000049069460C4800F05EFD0B4800F048FDA6
:1010E0004FF4807303221021064800F00FF84FF4EC
:1010F000807303224821034800F008F807B000BDC0
:1011000000023000000C014000300140F0B5044600
:1011100016460025002201F00F0501F0100747B127
:10112000042E05D145F00305E76B1F43E76300E09C
:10113000354300201EE0012787401F40C7B12268C9
:101140004FEA800C0F2707FA0CF7BA43870005FA1D
:1011500007F73A43282904D1012787401F406761D8
:1011600005E0482903D1012787401F4027612260FD
:10117000471CB8B20828DED3082022E001278740A8
:101180001F40E7B16268A0F108074FEA870C0F27FC
:1011900007FA0CF7BA43A0F10807BF0005FA07F7F2
:1011A0003A43282904D1012787401F40676105E0A1
:1011B000482903D1012787401F4027616260471CEF
:1011C000B8B21028DAD3F0BD02469068084008B1E2
:1011D000012070470020FCE7F0B50A4600230024F8
:1011E0000021002500F00046B6F1004F02D11D4E4F
:1011F000F16901E01B4E7168C0F3034583B200F44E
:101200004016B6F5401F08D121F0E061154E766812
:1012100026F0E066134F7E6012E000F48016B6F50B
:10122000801F06D1032606FA05F4A14341F0E061D0
:1012300006E0460D360103FA06F6B14341F0E061DF
:1012400022B1460D360103FA06F6314300F000469E
:10125000B6F1004F02D1034EF16101E0014E716021
:10126000F0BD00000000014010B5002001F01CF9A5
:1012700010BD10B5012001F017F910BD10B540F2F6
:10128000046000F077F94FF4C06000F073F94FF498
:101290000053032210210248FFF738FF10BD000061
:1012A0000010014010B54FF400510248FFF7D2FE84
:1012B00010BD00000010014010B54FF4005102486D
:1012C000FFF7C6FE10BD000000100140FFF738F820
:1012D00000F0FCFCFEF79EFFFFF7D0FFFFF700FBDE
:1012E000FFF750FA1048FFF7A1FDFFF7E5FFFFF702
:1012F0006DFE0E490880084601880DA0FFF76EF8C4
:101300000A49087800F00AFD0DE0FFF7D5FF4FF419
:101310007A70FFF7B9FBFFF7C5FF4FF47A70FFF75C
:10132000B3FBFFF71DFDF0E700380140640000202B
:10133000416464726573732069733A2564200A0DF1
:10134000000000002DE9F04103460D46164600243A
:101350000027A0462A48006800F4E060B0F5E06F7E
:1013600003D100BF4FF0040830E02548006800F4C6
:10137000E060B0F5C06F03D101274FF0030825E00E
:101380001F48006800F4E060B0F5A06F02D10227AA
:10139000B8461BE01A48006800F4E060B0F5806FC2
:1013A00003D103274FF0010810E01548006800F44E
:1013B000E060B0F5407F03D104274FF0000805E05E
:1013C0004FF4A06000F020F80227B846C7F10400EF
:1013D00005FA00F4C8F104010F20C840304004436E
:1013E00024010848C45403F01F010120884059110A
:1013F000890001F1E021C1F80001BDE8F0810000A1
:101400000CED00E000E400E002490143024A1160F3
:10141000704700000000FA050CED00E02DE9F04FE8
:101420008CB0074600200A904AA090E8004CC068A3
:10143000CDE905BECDF810A007900FF21C1ADAE92D
:10144000000ACDE9020A0FF2101ADAE9000ACDE922
:10145000000A44484068C0F381000B900B9820B10B
:10146000012804D002283FD103E03F4A3EE03E4A33
:101470003CE03C48406800F4803CBCF5803F12D121
:101480003848C06A00F08048B8F1000F01D1364BEF
:1014900000E0364B3348406800F40039B9F5003FAE
:1014A00002D15B0800E0324B2E484068C0F3834114
:1014B0002C48406800F0006008B141F01001294854
:1014C000406800F0804008B141F020010F2901D2AE
:1014D000891C06E00F2903D33E2901D8491C00E0EE
:1014E0003F2103FB01F201E01F4A00BF00BF1D487E
:1014F0004068C0F3031504A8465D22FA06F41948B3
:101500004068C0F3022502A8465D24FA06F009905F
:1015100014484068C0F3C2251DF8056024FA06F09F
:10152000089037B1012F06D0022F06D0032F0AD121
:1015300006E00A9208E00A9406E009980A9003E09F
:1015400008980A9000E000BF00BF0A980CB0BDE800
:10155000F08F000000000000000000000102030402
:10156000060708090010024000127A00006CDC0235
:1015700000093D00064A02EB9011096800F01F03C4
:1015800001229A401143024B03EB90121160704705
:1015900000100240064A02EB9011096800F01F0398
:1015A00001229A409143024B03EB90121160704765
:1015B00000100240064A02EB9011096800F01F0378
:1015C00001229A401143024B03EB901211607047C5
:1015D000001002402DE9F04104460E461546002752
:1015E000002D15DD2A463146204600F015F84FF44F
:1015F000847101EB44104021FEF763FE00BF4FF4FD
:10160000847101EB4410FEF73DFE0028F7D12F4610
:101610003846BDE8F08100002DE9F04104460F4650
:1016200016460025A8462EB9214618A0FEF7D6FE7C
:10163000BDE8F08142F6080101EB4410FEF722FEFE
:10164000054642F6081101EB4410FEF71BFE00EBC5
:10165000052085B2280200EB441000F1180832463C
:101660003946404600F032FFA81985B2290A42F6F1
:10167000080202EB4410FEF724FEE9B242F608121B
:1016800002EB4410FEF71DFE00BFD1E743483A20AD
:10169000256420556E657870656374656432206CCE
:1016A000656E67746820300D0A00000010B54FF4B5
:1016B00080710748FFF7CCFC0220FFF7F3F94FF4E5
:1016C00080710348FFF7C6FC0120FFF7DDF910BD6C
:1016D000000C01402DE9F0470446884616460025D7
:1016E0000027A9462046FFF7F1FBB04204DA204666
:1016F000FFF7ECFB074600E0374600BF2046FFF748
:101700003BFC81464FF4427101EB4410FEF7BAFDF9
:101710000546172D03D01C2D01D0002701E0B94547
:10172000ECDB00BF3A464146204600F049F84FF452
:10173000847101EB44102021FEF7C3FD00BF4FF47C
:10174000847101EB4410FEF79DFD0028F7D113E0F2
:101750004FF4427101EB4410FEF794FD0546172D3E
:101760000AD01C2D08D011A0FEF738FE2046FFF746
:10177000DFF80020BDE8F0874FF4027101EB441060
:10178000FEF780FD00F010001028E1D14FF4027147
:1017900001EB44101021FEF794FD4FF4027101EBB0
:1017A00044101021FEF78DFD3846E3E753454E44C3
:1017B0005F4F4B2050726F626C656D21210D0A00E6
:1017C0002DE9F04104460F4616460025A8462EB9DD
:1017D000214618A0FEF702FEBDE8F08142F2084162
:1017E00001EB4410FEF74EFD054642F2085101EBB5
:1017F0004410FEF747FD00EB052085B2280200EB00
:10180000441000F1100832463946404600F092FE7E
:10181000A81985B2290A42F2084202EB4410FEF7E9
:1018200050FDE9B242F2085202EB4410FEF749FDC6
:1018300000BFD1E743483A20256420556E65787093
:10184000656374656431206C656E67746820300D63
:101850000A00000010B5044604222146900100F061
:1018600069FE10BD10B50446062221464FF41060F3
:1018700000F060FE10BD10B50446042221464FF46E
:10188000706000F057FE10BD10B5044604222146DA
:101890004FF4A06000F04EFE10BD70B504460D463A
:1018A0004FF4027101EB44102946FEF70AFD70BDAA
:1018B00008B52A482A490A6802608988818029492E
:1018C0000968C0F8061028490968C0F80A102749B5
:1018D0000968C0F80E1026490968C0F8121025489A
:1018E000007810B924A0FEF779FD01201B49887605
:1018F00000211A48C1760A30FFF7C6FF17480E309C
:10190000FFF7A8FF1548801DFFF7B5FF1548FFF743
:10191000E5FA1448C078009012488378427801783C
:101920001DA0FEF75BFD1048FFF7E1FA0E48C078F6
:1019300000900D488378427801781FA0FEF74EFD95
:101940000A48FFF7BBFA0948C07800900748837837
:101950004278017820A0FEF741FD08BDEA0500208D
:10196000440100204A0100204E01002052010020C5
:10197000560100206201002020CAB9D3C3B6A8D204
:10198000E5B5C44950D0C5CFA2C5E4D6C357353557
:1019900030300D0A00000000205735353030204926
:1019A00050B5D8D6B72020203A2025642E25642EA5
:1019B00025642E25640D0A0020573535303020D798
:1019C000D3CDF8D1DAC2EB203A2025642E25642E3F
:1019D00025642E25640D0A0020573535303020CD82
:1019E000F8B9D820202020203A2025642E25642E06
:1019F00025642E25640D0A0010B5074807490A68BA
:101A0000026089888180FFF72DFF054803490A6835
:101A100002608988818010BDEA0500204401002011
:101A2000B40100202DE9F04104460D4616469846C3
:101A300005F00F0001280FD005F00F0002280BD091
:101A400005F00F00032807D005F00F00042803D08D
:101A500005F00F00052841D12046FEF769FF45EA51
:101A60000801082202EB4410FEF72BFC76B1310A84
:101A70004FF4816202EB4410FEF723FCF1B24FF405
:101A8000A16202EB4410FEF71CFC15E0154800882B
:101A9000401C144908800A461288110A4FF48162DA
:101AA00002EB4410FEF70DFC0E4A11784FF4A162D0
:101AB00002EB4410FEF705FC4FF4847101EB441077
:101AC0000121FEF7FEFB00BF4FF4847101EB4410CF
:101AD000FEF7D8FB0028F7D1012700E000273846A1
:101AE000BDE8F0815A0100202DE9F04105460E467F
:101AF0000027B846002433E0295D41F6087202EB66
:101B00004410FEF7DEFB315D41F6086202EB441043
:101B1000FEF7D7FB0020144921F81400134921F8DF
:101B20001400B7F5804F07DC285D4FF6FF7101EA1E
:101B300080200D4921F81400B8F5804F07DC305D96
:101B40004FF6FF7101EA8020084921F81400064889
:101B500030F814000744054830F814008044641C31
:101B6000082CC9DBBDE8F081CA050020DA05002099
:101B7000016841F04001016070470146C86880B2C9
:101B80007047C160704702469068084008B1012064
:101B900070470020FCE702460020106800F4415026
:101BA0000B6818434B6818438B681843CB6818437D
:101BB0000B6918434B6918438B6918431060D3694C
:101BC00023F40063D361704700200021394A126872
:101BD00042F00102374B1A6000BF401C354A1268C0
:101BE00002F0020111B9B0F5A06FF6D1314A1268C6
:101BF00002F002020AB900BFFEE72E4AD26942F0A3
:101C000080522C4BDA612C4A126842F440422A4B33
:101C10001A60284A5268274B5A601A4652685A601E
:101C20001A46526842F480625A601A465268234B40
:101C30001A40204B5A601A465268214B1A431D4BDA
:101C40005A601A46126842F080721A6000BF194A40
:101C5000126802F00072002AF9D0174A126842F4A2
:101C60008032154B1A6000BF134A526802F480326A
:101C7000002AF9D0104A126842F400320E4B1A6062
:101C800000BF0D4A526802F40032002AF9D0094A16
:101C9000526822F00302074B5A601A46526842F01B
:101CA00002025A6000BF034A526802F00802002A8A
:101CB000F9D070470010024000700040FFFFC3B72A
:101CC0000000340810B5FFF77FFF10BD10B51148B4
:101CD00000681149B0FBF1F4601EB0F1807F01D3C0
:101CE00001200FE0601E4FF0E02148610F214FF00E
:101CF000FF30FEF783FB00204FF0E02188610720D2
:101D00000861002008B100BFFEE70021481EFEF771
:101D100075FB10BD00000020C0D4010038B504469A
:101D20001348C470FFF798F9FFF7C0FCFFF764FE93
:101D3000FFF7BEFD0F491048FFF7D6FE0FA0FEF7D4
:101D40004DFB1B48C0780090194883784278017891
:101D500018A0FEF743FB1D4801881DA0FEF73EFBBF
:101D60001FA0FEF73BFB2DA0FEF738FB38BD00009F
:101D70004A0100203C0100203401002020B5E7C4C6
:101D8000D4D7F7CEAA544350B7FECEF1C6F72CC82D
:101D9000C35735353030D7F7CEAA20544350BFCD86
:101DA000BBA7B6CBC8A5C1ACBDD3200D0A000000AF
:101DB0005C01002020B7FECEF1C6F749503A2564F9
:101DC0002E25642E25642E25640D0A006001002056
:101DD00020BCE0CCFDB6CBBFDA3A2564200D0A006A
:101DE00020C1ACBDD3B3C9B9A6BAF3A3ACB7FECE7C
:101DF000F1C6F7B7A2CBCDCAFDBEDDB8F857353571
:101E00003030A3AC5735353030BDABB7B5BBD8B6E5
:101E1000D4D3A6CAFDBEDD200D0A000020D3A6D370
:101E2000C3B3CCD0F2D6B4D0D0D6D0A1ADA1AD0D35
:101E30000A000000016841F0800101607047000065
:101E400010B531B101293FD002297DD003297CD1C1
:101E5000BFE0036A23F001030362836923F00303F5
:101E60008361036A148823430362036A23F0020335
:101E70000362036A9488234303626A4B984202D048
:101E8000694B98421FD1036A23F004030362036A7B
:101E9000548823430362036A23F008030362036A3E
:101EA000D48823430362436823F480734360436808
:101EB000148923434360436823F4007343604368F9
:101EC000548923434360ABE0036A23F010030362A9
:101ED000836923F440738361036A148843EA04131B
:101EE0000362036A23F020030362036A948843EACF
:101EF000041303624B4B984202D04B4B984226D1BD
:101F0000036A23F040030362036A548843EA04131C
:101F10000362036A23F080030362036AD48843EAFE
:101F200004130362436823F48063436043681489A5
:101F300043EA84034360436823F4006343604368D7
:101F4000548943EA840301E002E068E0436067E00B
:101F5000036A23F480730362C36923F00303C3613C
:101F6000036A148843EA04230362036A23F40073B8
:101F70000362036A948843EA04230362294B98426C
:101F800002D0294B984223D1036A23F48063036271
:101F9000036A548843EA04230362036A23F4006358
:101FA0000362036AD48843EA04230362436823F488
:101FB000805343604368148943EA041343604368D1
:101FC00023F4005343604368548943EA0413436095
:101FD00026E0036A23F480530362C36923F4407349
:101FE000C361036A148843EA04330362036A23F477
:101FF00000530362036A948843EA04330362094B83
:10200000984202D0084B984208D1436823F4804399
:1020100043604368148943EA8413436000E000BFCF
:1020200000BF10BD002C01400034014031B1012936
:102030000CD0022913D0032922D118E0836923F0A0
:10204000700383618369134383611AE0836923F416
:10205000E0438361836943EA0223836111E0C3693A
:1020600023F07003C361C3691343C36109E0C3690B
:1020700023F4E043C361C36943EA0223C36100E080
:1020800000BF00BF704731B1012906D0022906D038
:10209000032908D105E0426306E0826304E0C263DD
:1020A00002E0026400E000BF00BF704731B10129C7
:1020B0000CD0022913D0032922D118E0836923F020
:1020C000080383618369134383611AE0836923F4FE
:1020D00000638361836943EA0223836111E0C3697A
:1020E00023F00803C361C3691343C36109E0C369F3
:1020F00023F40063C361C36943EA0223C36100E0C0
:1021000000BF00BF70470021018041808180C180F5
:10211000018141817047000000B587B07720ADF89C
:1021200000000020ADF80200ADF80400632002902A
:102130000020ADF806008DF80C006946154800F047
:102140009FF804A8FFF7DFFF0020ADF8140001207E
:10215000ADF8100004AA00210E48FFF771FE14220A
:1021600000210C48FFF78FFF602200210948FFF78C
:102170005DFF002211460748FFF798FF012105483F
:1021800000F0CEF80348FFF755FE024800F072F861
:1021900007B000BD002C014010B504463349601A59
:1021A0008C4244D00CDCB4F1804F1CD03048204429
:1021B00010B3B0F5806F28D0B0F5006F52D12DE08C
:1021C000B0F5806F3CD0B0F58E3F03D0B0F5923FB4
:1021D00048D13EE040F20B30FFF7ECF940F20B3013
:1021E000FFF7D8F93FE04FF48060FFF7E3F94FF4D1
:1021F0008060FFF7CFF936E040F20140FFF7DAF9EF
:1022000040F20140FFF7C6F92DE040F20240FFF72F
:10221000D1F940F20240FFF7BDF924E040F203405B
:10222000FFF7C8F940F20340FFF7B4F91BE040F2B2
:102230000440FFF7BFF940F20440FFF7ABF912E0AA
:1022400040F20540FFF7B6F940F20540FFF7A2F96A
:1022500009E040F20D30FFF7ADF940F20D30FFF725
:1022600099F900E000BF00BF10BD00000010004061
:1022700000FCFFBF016841F00101016070470000F0
:102280000A8882621D4A90420ED0B0F1804F0BD076
:102290001B4A904208D01B4A904205D01A4A9042ED
:1022A00002D01A4A90420BD1026822F070020260FA
:1022B00002684B881A43026002688B881A430260E6
:1022C0008A68C262124A90420AD0124A904207D0EB
:1022D000026822F4407202600268CB881A430260EE
:1022E000064A904202D0094A904201D10A7B026319
:1022F000426942F00102426170470000002C014037
:102300000004004000080040000C00400034014080
:102310000010004000140040C2680A43C2607047C9
:10232000012904D1426C42F40042426403E0426C51
:1023300022F40042426470472DE9F04704460D46FE
:102340000027B846B94600261D49601A8C421CD0A9
:1023500006DC1C48204470B1B0F5806F1FD10FE03F
:10236000B0F5806F16D0B0F56C4F18D10320FFF791
:1023700055F8074614E00220FFF750F807460FE033
:102380000220FFF74BF807460AE00220FFF746F865
:10239000074605E00220FFF741F8074600E000BFCE
:1023A00000BF07EB5500B0FBF5F64FF6F07006EAFC
:1023B000000806F00F0948EA0900A060BDE8F087B0
:1023C000004C004000BCFFBFC1F3080242607047F0
:1023D00010B504462049601A8C4228D006DC1F48FC
:1023E000204490B1B0F5806F33D117E0B0F5806F25
:1023F00026D0B0F56C4F2CD140F20E30FFF7DAF852
:1024000040F20E30FFF7C6F824E040F21140FFF72B
:10241000D1F840F21140FFF7BDF81BE040F2124046
:10242000FFF7C8F840F21240FFF7B4F812E040F2AC
:102430001340FFF7BFF840F21340FFF7ABF809E095
:1024400040F21440FFF7B6F840F21440FFF7A2F84C
:1024500000E000BF00BF10BD004C004000BCFFBF4B
:10246000C16841F40051C160704710B5024602EBEB
:102470009110006801F01F040123A340184008B127
:10248000012010BD0020FCE70A460021C16821F0B0
:1024900004011143C16070470A460021C16821F060
:1024A00008011143C160704710B5044624B94021AA
:1024B0000548FEF7CDFD05E0012C03D1402102487F
:1024C000FEF7C8FD10BD0000000C01402DE9F041F1
:1024D00004460F461546002615B910A0FDF77EFFED
:1024E000FEF7C2FEC4F30740FDF7E5FEC4F3072084
:1024F000FDF7E1FE04F0F800FDF7DDFE002605E043
:102500000020FDF7D8FEB855701C86B2AE42F7DB4E
:10251000FEF7AFFE2846BDE8F0810000556E6578F5
:1025200070656374656432206C656E677468203012
:102530000D0A00002DE9F04104460F46154600261D
:1025400015B910A0FDF74AFFFEF78EFEC4F3074051
:10255000FDF7B1FEC4F30720FDF7ADFE04F0F8016E
:10256000091DC8B2FDF7A7FE002604E0B85DFDF71F
:10257000A2FE701C86B2AE42F8DBFEF77AFE284659
:10258000BDE8F081556E65787065637465643220CE
:102590006C656E67746820300D0A0000BC25000869
:1025A0000000002074010000B80100082026000887
:1025B00074010020A41000003404000811350E2717
:1025C0000701320232043208321032203240728067
:1025D00069245A0328320532065A07343209320A6E
:1025E000320B320C320D320E021F0F093A580922FB
:1025F000B82A0E4D79252C01400210093D78DA02E7
:102600000111100D08DC111111C0A80158FFFFFFC6
:1026100019081B0172011B88130A04126688130033
:0400000508000131BD
:00000001FF
