:020000040800F2
:10000000F0140020450100089903000821030008AE
:1000100095030008AD020008090500080000000073
:10002000000000000000000000000000D5030008F0
:10003000B1020008000000009B030008D70300087D
:100040005F0100085F0100085F0100085F01000810
:100050005F0100085F0100085F0100085F01000800
:100060005F0100085F0100085F0100085F010008F0
:100070005F0100085F0100085F0100085F010008E0
:100080005F0100085F0100083D0200085F010008F1
:100090005F0100085F0100085F0100085F010008C0
:1000A0005F0100085F0100085F0100085F010008B0
:1000B0005D0400085F010008ED0400085F0100080E
:1000C0005F0100085F0100085F0100085F01000890
:1000D0005F0100085F0100085F0100085F01000880
:1000E0005F0100085F0100085F0100085F01000870
:1000F0005F0100085F0100085F0100085F01000860
:100100005F0100085F0100085F0100085F0100084F
:100110005F0100085F0100085F0100085F0100083F
:100120005F0100085F0100085F0100085F0100082F
:10013000DFF80CD000F040F8004800471D1400081C
:10014000F01400200648804706480047FEE7FEE717
:10015000FEE7FEE7FEE7FEE7FEE7FEE7FEE7FEE777
:10016000E10300083101000840EA01039B0703D0C6
:1001700009E008C9121F08C0042AFAD203E011F8E6
:10018000013B00F8013B521EF9D2704730B50B46D7
:10019000014600202022012409E021FA02F59D42B7
:1001A00005D303FA02F5491B04FA02F52844151E8B
:1001B000A2F10102F1DC30BD064C074D06E0E0681B
:1001C00040F0010394E8070098471034AC42F6D39E
:1001D000FFF7B2FF082300082823000870B58D1828
:1001E00010F8014B14F0030201D110F8012B231178
:1001F00006D110F8013B03E010F8016B01F8016B28
:10020000521EF9D1ABB110F8012B04F00C048A1A7C
:100210000C2C03D0A2EB84129B1C08E010F8014BBD
:10022000A2EB0422F8E712F8014B01F8014B5B1E28
:10023000F9D5A942D4D3002070BD000010B51748ED
:1002400000F0FCFB0221154800F07EFB00241EE0BC
:10025000134850F82400010E124A02F824101048E6
:1002600050F82400C0F30741A000401C11540C4872
:1002700030F82400C0F30721A000801C1154084866
:1002800010F82410A000C01C1154601CC4B2102C23
:10029000DEDB01200449087010BD0000002401408D
:1002A000080C0020480C0020C403002000BFFEE71B
:1002B000704700001FB540F2027001F0FBF91648CC
:1002C00001F01CFE0020ADF80000ADF80200ADF812
:1002D0000400124800684FF47A71B0FBF1F0B0FBF3
:1002E000F1F0401E02900020ADF806008DF80C00E1
:1002F0006946094801F076FE0121074801F0BEFE7B
:10030000002202211E2001F0BDF80348006820F001
:100310000100014908601FBD0008004000000020E6
:1003200000BFFEE770B50446002501F04FF8C4F3A6
:10033000074000F010F8C4F3072000F00CF804F0B8
:10034000F80000F008F8002000F005F8054601F07C
:1003500042F8284670BD10B50446204600F01EF84D
:1003600010BD70B504460D4601F030F8C4F30740E7
:10037000FFF7F1FFC4F30720FFF7EDFF04F0F801EA
:10038000091DC8B2FFF7E7FF2846FFF7E4FF01F0B9
:1003900022F870BD00BFFEE77047704710B50446F5
:1003A00000BF02210A4801F028FC0028F9D02146AC
:1003B000074801F020FC00BF0121054801F01DFCA9
:1003C0000028F9D0024801F012FCC0B210BD0000B4
:1003D00000300140704710B500F038FC10BD00003F
:1003E00008B51B48006840F47000194908601948B6
:1003F000006840F00100174908600846406840F076
:10040000800048600020009002E00098401C0090AE
:1004100044F6206100988842F7D30E48406820F0E7
:1004200003000C494860084600680B490840094928
:1004300008604FF41F0088600846006820F48020A0
:10044000086000204860C86201F076FC08BD00002A
:1004500088ED00E000100240FFFFF6FE10B501211C
:10046000880701F012FE012835D11B4800782028AA
:1004700016DA1A480078012825D11949164A127847
:10048000402313FB02101A461649FFF76DFE12486F
:100490000078401C1049087000201049087012E0D4
:1004A0004FF400610E4800F049FD4FF40062002156
:1004B0000B48FFF759FE40220A490948FFF754FE4E
:1004C0000120054908700121074800F0BBFA01210D
:1004D000880701F0D7FD10BDE8010020C40300200B
:1004E00008040020480C0020002401406FF00100A7
:1004F0000349086003480088401C0249088070478F
:10050000100800400004002000BFFEE70FB4054BB8
:1005100010B503A9044A029800F02CF810BC5DF84D
:1005200014FB0000C10F00080404002010B50028CF
:1005300004DB0A07130E054A135406E00A07140EDB
:10054000034A00F00F031B1FD45410BD00E400E069
:1005500018ED00E002E008C8121F08C1002AFAD115
:1005600070477047002001E001C1121F002AFBD133
:10057000704700002DE9FF4F8BB09A460F460546A5
:10058000002606E025280BD052460D9990476D1C99
:10059000761C28780028F5D10FB03046BDE8F08FE2
:1005A0000024A0460122604900E0044315F8013F01
:1005B000203B02FA03F00842F7D128782E2817D101
:1005C00015F8010F44F004042A280ED06FF02F0212
:1005D0002878A0F1300109290AD808EB880102EB3C
:1005E000410100EB01086D1CF2E757F8048B6D1C0C
:1005F000287869283ED006DC0028CDD063280BD0AF
:10060000642804D136E0732810D075284BD05246A8
:100610000D999047761C85E017F8040B8DF80000C3
:1006200000208DF80100E946012003E057F8049B03
:100630004FF0FF3061074FF0000401D40AE0641C62
:1006400044450DDA8442FADB19F804100029F6D18A
:1006500006E0641C8442FCDB19F804100029F8D180
:10066000264404E019F8010B52460D999047641E88
:10067000F8D257E001CF4FF00A0B002802DA4042CF
:100680002D2102E0210504D52B218DF82410012114
:1006900003E0E10705D02021F7E70DF120090891DB
:1006A0000CE00021F9E701CF4FF00A0BF9E75946BA
:1006B000FFF76CFD01F1300209F8012D0028F6D199
:1006C000ADEB090000F1200B600701D44FF00108E9
:1006D000D84502DDA8EB0B0000E000208046002496
:1006E00006E009A85246005D0D999047641C761CEF
:1006F00008988442F5DB04E0302052460D9990477B
:10070000761CB8F10001A8F10108F5DC05E019F844
:10071000010B52460D999047761CBBF10001ABF1DD
:10072000010BF4DC6D1C34E709280100816841F0FD
:100730000801816000BF816801F008010029FAD139
:10074000816841F00401816000BF816801F004010B
:100750000029FAD1704730B5012902D002291AD1F7
:100760000CE0C36A23F47003C362C36A541E4FF4DF
:10077000700505EA04542343C3620DE0836B23F440
:1007800040138363836B541E4FF4401505EA0454F1
:100790002343836300E000BF00BF30BD10B54FF4BA
:1007A000C02000F0D5F80021214800F045F80122D2
:1007B00011021F4800F055F9102201211C48FFF7D3
:1007C000CAFF002409E01B4810F824200323214617
:1007D000174800F0DDF8601CC4B2102CF3DB4FF4B6
:1007E00060220121124800F05FF8012211461048F2
:1007F00000F03BF80E4800F02AF80D4800F02CF805
:10080000012000F019FA0A48FFF790FF0122114673
:10081000122000F037FE0221054800F095F8022171
:10082000034800F07BF80121014800F00BF910BDEE
:10083000002401400403002021B1826842F40062D8
:10084000826003E0826822F40062826070478168FF
:1008500041F4807181607047816801F0010119B92C
:10086000816841F001018160704772B101F00103BC
:100870001BB1836843F48013836001F0020393B1DA
:10088000836843F4004383600DE001F001031BB172
:10089000836823F48013836001F002031BB1836833
:1008A00023F4004383607047012902D0022910D14C
:1008B00007E0836823F460238360836813438360C5
:1008C00008E0836823F4E043836083681343836014
:1008D00000E000BF00BF704710B500240BE00749DF
:1008E00051F82430064951F824000422002100F078
:1008F000BFFC601CC4B2102CF1DB10BD84030020CF
:100900004403002010B500F031F8FFF7E5FF01F0D7
:10091000CBFA00F007FAFFF741FF10BD01F001022A
:100920001AB1426842F04002426001F002021AB17C
:10093000426842F02002426001F004021AB14268AB
:1009400042F080024260704702688A43026070474A
:100950000549096821F47021034A116011460968AC
:1009600001431160704700000424014010B540F2BB
:10097000026000F09FFE4FF4A06000F09BFE40F28A
:100980000B6000F097FE40F2096000F093FE10BD8E
:10099000F0B51D4606290CD2436B01EB81071F26DB
:1009A000BE40B34301EB810602FA06F633434363CC
:1009B00022E00C290ED2036B8E1F06EB86071F2642
:1009C000BE40B3438E1F06EB860602FA06F633439B
:1009D000036311E010290FD2C36AA1F10C0606EBE4
:1009E00086071F26BE40B343A1F10C0606EB860620
:1009F00002FA06F63343C3620A2A0CD2046902EBF8
:100A000042070726BE40B44302EB420605FA06F64B
:100A10003443046111E0122A0FD2C468A2F10A061D
:100A200006EB46070726BE40B443A2F10A0606EBD2
:100A3000460605FA06F63443C460F0BD0146C86CAC
:100A400080B2704701F001021AB1826842F480025C
:100A5000826001F002021AB1826842F400128260E0
:100A60007047AAB101F480731BB1436843F48073EB
:100A7000436001F480631BB1436843F480634360C7
:100A800001F00203CBB1836843F00203836014E0FA
:100A900001F480731BB1436823F48073436001F455
:100AA00080631BB1436823F48063436001F0020359
:100AB0001BB1836823F002038360704710B54FF4C5
:100AC000C06000F0F7FD40F2056000F0F3FD00208B
:100AD0000B4908700EE00B480949097850F821309D
:100AE00003224821084800F0C3FB05480078401C59
:100AF00003490870024800780828ECDB10BD0000AC
:100B0000CC020020AC0200200014014010B50446C5
:100B10004FF4847101EB44101021FFF722FC00BF59
:100B20004FF4847101EB4410FFF7FCFB0028F7D170
:100B30004FF4027101EB4410FF21FFF712FC10BDCE
:100B40002DE9F04105460C4616462078FF2808D1CD
:100B50006078FF2805D1A078FF2802D1E078FF282F
:100B600008D0207828B9607818B9A07808B9E0785A
:100B700000B10EB900275CE00127217840F6084259
:100B800002EB4510FFF7EDFB617840F6085202EBEF
:100B90004510FFF7E6FBA17840F6086202EB45102E
:100BA000FFF7DFFBE17840F6087202EB4510FFF734
:100BB000D8FB310A41F2080202EB4510FFF7D1FBE6
:100BC000F1B241F2081202EB4510FFF7CAFB4FF4F5
:100BD000847101EB45100421FFF7C3FB00BF4FF404
:100BE000847101EB4510FFF79DFB0028F7D117E05A
:100BF0004FF4427101EB4510FFF794FB172800D129
:100C000016E0284600F058FA00F0080040B14FF412
:100C1000027101EB45100821FFF7A3FB002707E055
:100C20004FF4427101EB4510FFF77CFB1528DFD133
:100C300000BF3846BDE8F0810349086000BF0249A3
:100C400009680029FBD170470401002004480068AE
:100C500020B103480068401E014908607047000049
:100C60000401002000B5034603E04FF47A7000F061
:100C700007F8181EA3F101018BB2F6D100BD0000E8
:100C800000210D4A11600C492439096841F0010125
:100C9000094A243A11600021084A118000BF07491F
:100CA00009888142FBDB04492439096821F00101EC
:100CB000014A243A116070472408004000040020D3
:100CC00070B505460C462146284600F02BF908B9B8
:100CD00000BFFEE704EB8400810005F108004058E6
:100CE00040F0010104EB8400820005F1080081500E
:100CF00070BD70B505460C462146284600F012F935
:100D000008B900BFFEE704EB8400810005F108008C
:100D1000405840F0200104EB8400820005F10800F7
:100D2000815070BD00B587B00021134800F02AF84B
:100D30001248009000208DF8180011480290012000
:100D40008DF81900400201908000039000208DF87A
:100D50001A0010200490400205906A4600210648BF
:100D600000F048F800210448FFF7C3FF00210248C3
:100D7000FFF7A6FF07B000BD000002404C24014071
:100D8000080C002070B504460D462946204600F0A8
:100D9000C9F808B900BFFEE705EB8500810004F142
:100DA0000800405820F0010105EB8500820004F1A5
:100DB00008008150002105EB8500820004F1080045
:100DC000815005EB8500820004F10C00815005EB99
:100DD0008500820004F11000815005EB850082003F
:100DE00004F1140081506068AA000F21914008436B
:100DF000606070BD2DE9F04104460D461646294657
:100E0000204600F08FF808B900BFFEE705EB85002B
:100E1000820004F110003168815005EB85008200EA
:100E200004F11400B1688150308A81B205EB85006D
:100E3000820004F10C00815005EB8500810004F173
:100E40000800475827F47C57F168706808437169B7
:100E50000843074305EB8500810004F10800475073
:100E6000307E01280ED105EB8500810004F10800D9
:100E7000405840F0400105EB8500820004F1080075
:100E800081500DE005EB8500810004F10800405819
:100E900020F0400105EB8500820004F1080081503C
:100EA000707E01280ED105EB8500810004F1080059
:100EB000405840F0800105EB8500820004F10800F5
:100EC00081500DE005EB8500810004F108004058D9
:100ED00020F0800105EB8500820004F108008150BC
:100EE000B07E70B905EB8500810004F10800405820
:100EF00020F0100105EB8500820004F1080081500C
:100F00000DE005EB8500810004F10800405840F039
:100F1000100105EB8500820004F108008150BDE856
:100F2000F081000002460120034B9A4202D10429BD
:100F300000DD0020704700000004024070B5054647
:100F40000C46012000F0C1F830B1132810D017284A
:100F500015D01C282BD126E0164802880088401C9A
:100F6000144B188020230121084600F095FD1EE057
:100F70001148028811490120FFF7E2FD17E0012026
:100F800000F09AF800F0010018B10121084600F0C5
:100F9000BEFC002C06DD00202855A2B22946012007
:100FA00000F0CEFB03E00120FFF7B0FD00BF00BF63
:100FB00070BD0000EE030020F4030020F0030020C9
:100FC00070B504460D46E1B2054801F0B3F800BF24
:100FD0000721034801F0FFF80028F9D0204670BD32
:100FE0000038014070B5054600241C48854200D1F8
:100FF00001E000BFFEE71A4931F8140000F05AFB87
:10100000184931F8140000F055FB174951F8243005
:10101000164951F824000322182100F029F9144937
:1010200051F82430114951F824000322042100F022
:101030001FF9284601F082F84FF4E131284601F00B
:1010400031F80421284601F0D5F80821284601F09E
:10105000D9F8284601F0BAF870BD00000038014008
:10106000E0020020D0020020D4020020DC02002098
:10107000D802002010B5044604222146900101F058
:10108000DBF810BD0146024830F81100704700003F
:101090009E10002010B50446042221464FF47060D3
:1010A00001F0CAF810BD10B50446042221464FF4E1
:1010B000A06001F0C1F810BD10B504464FF40271F4
:1010C00001EB4410FFF72EF910BD10B504464FF4A4
:1010D000427101EB4410FFF725F910BD70B50446CD
:1010E0000025002600BF42F2080101EB4410FFF783
:1010F00019F9064642F2081101EB4410FFF712F904
:1011000000EB062086B27EB142F2080101EB4410EA
:10111000FFF708F9054642F2081101EB4410FFF70A
:1011200001F900EB052085B2B542DCD1284670BD3F
:101130001CB500201C49087010E01C481A4A12789F
:1011400050F822101A4800F0F1F8174A12780DF8FA
:10115000020015480078401C1349087012480078B6
:101160000828EADB9DF800009DF8011040EA4100E4
:101170009DF8021040EA81009DF8031040EAC1008A
:101180009DF8041040EA01109DF8051040EA411056
:101190009DF8061040EA81109DF8071040EAC11042
:1011A000C4B220461CBD0000CC020020AC020020CE
:1011B00000140140416170470161704700B587B07C
:1011C00040F2036000F076FA40F2036000F072FA39
:1011D00040F2036000F06EFA40F2036000F06AFA39
:1011E00040F20C6000F066FA4FF4C06000F062FA62
:1011F00001211C4800F0A2F80121084600F09EF8E9
:10120000382303221821184800F032F84023032223
:101210001021154800F02CF8002001904FF4827046
:1012200000900020029005904FF400700390102071
:1012300006900020049069460C4800F0E6FC0B483C
:1012400000F0D0FC4FF4807303221021064800F018
:101250000FF84FF4807303224821034800F008F888
:1012600007B000BD00023000000C0140003001401A
:10127000F0B5044616460025002201F00F0501F0E6
:10128000100747B1042E05D145F00305E76B1F4356
:10129000E76300E0354300201EE0012787401F4040
:1012A000C7B122684FEA800C0F2707FA0CF7BA4340
:1012B000870005FA07F73A43282904D10127874018
:1012C0001F40676105E0482903D1012787401F407F
:1012D00027612260471CB8B20828DED3082022E02C
:1012E000012787401F40E7B16268A0F108074FEA75
:1012F000870C0F2707FA0CF7BA43A0F10807BF00C5
:1013000005FA07F73A43282904D1012787401F40EF
:10131000676105E0482903D1012787401F40276105
:101320006260471CB8B21028DAD3F0BD024690685C
:10133000084008B1012070470020FCE7F0B50A46DC
:10134000002300240021002500F00046B6F1004FE4
:1013500002D11D4EF16901E01B4E7168C0F30345D7
:1013600083B200F44016B6F5401F08D121F0E061C9
:10137000154E766826F0E066134F7E6012E000F4AA
:101380008016B6F5801F06D1032606FA05F4A143A0
:1013900041F0E06106E0460D360103FA06F6B1437E
:1013A00041F0E06122B1460D360103FA06F6314301
:1013B00000F00046B6F1004F02D1034EF16101E0AA
:1013C000014E7160F0BD00000000014010B500202A
:1013D00000F020FF10BD10B5012000F01BFF10BD74
:1013E00010B540F2046000F065F94FF4C06000F001
:1013F00061F94FF40053032210210248FFF738FF30
:1014000010BD00000010014010B54FF4005102481B
:10141000FFF7D0FE10BD000000100140FEF7E0FF16
:1014200000F08EFCFEF746FFFFF7DAFFFFF746FB02
:10143000FFF768FA0B48FFF7D5FDFFF7E5FFFFF769
:1014400077FE094908800846018808A0FFF75EF882
:101450000549087800F09CFC41F288300849088072
:1014600000BFFEE700380140E400002041646472E0
:101470006573732069733A2564200A0D000000002B
:10148000E60000202DE9F04103460D4616460024F3
:101490000027A0462A48006800F4E060B0F5E06F3D
:1014A00003D100BF4FF0040830E02548006800F485
:1014B000E060B0F5C06F03D101274FF0030825E0CD
:1014C0001F48006800F4E060B0F5A06F02D1022769
:1014D000B8461BE01A48006800F4E060B0F5806F81
:1014E00003D103274FF0010810E01548006800F40D
:1014F000E060B0F5407F03D104274FF0000805E01D
:101500004FF4A06000F020F80227B846C7F10400AD
:1015100005FA00F4C8F104010F20C840304004432C
:1015200024010848C45403F01F01012088405911C8
:10153000890001F1E021C1F80001BDE8F08100005F
:101540000CED00E000E400E002490143024A1160B2
:10155000704700000000FA050CED00E02DE9F04FA7
:101560008CB0074600200A904AA090E8004CC06862
:10157000CDE905BECDF810A007900FF21C1ADAE9EC
:10158000000ACDE9020A0FF2101ADAE9000ACDE9E1
:10159000000A44484068C0F381000B900B9820B1CA
:1015A000012804D002283FD103E03F4A3EE03E4AF2
:1015B0003CE03C48406800F4803CBCF5803F12D1E0
:1015C0003848C06A00F08048B8F1000F01D1364BAE
:1015D00000E0364B3348406800F40039B9F5003F6D
:1015E00002D15B0800E0324B2E484068C0F38341D3
:1015F0002C48406800F0006008B141F01001294813
:10160000406800F0804008B141F020010F2901D26C
:10161000891C06E00F2903D33E2901D8491C00E0AC
:101620003F2103FB01F201E01F4A00BF00BF1D483C
:101630004068C0F3031504A8465D22FA06F4194871
:101640004068C0F3022502A8465D24FA06F009901E
:1016500014484068C0F3C2251DF8056024FA06F05E
:10166000089037B1012F06D0022F06D0032F0AD1E0
:1016700006E00A9208E00A9406E009980A9003E05E
:1016800008980A9000E000BF00BF0A980CB0BDE8BF
:10169000F08F0000000000000000000001020304C1
:1016A000060708090010024000127A00006CDC02F4
:1016B00000093D00064A02EB9011096800F01F0383
:1016C00001229A401143024B03EB901211607047C4
:1016D00000100240064A02EB9011096800F01F0357
:1016E00001229A409143024B03EB90121160704724
:1016F00000100240064A02EB9011096800F01F0337
:1017000001229A401143024B03EB90121160704783
:101710000010024010B54FF480710848FFF74AFDF1
:101720000220FFF7ADFA4FF480710448FFF744FD43
:101730004FF4C860FFF796FA10BD0000000C01409E
:101740002DE9F04704468846164600250027A9469D
:101750002046FFF797FC82462046FFF793FCB042F5
:1017600004DA2046FFF78EFC074600E0374600BF4C
:101770002046FFF7B3FC81464FF4427101EB441061
:10178000FEF7D0FD0546172D03D01C2D01D00027F4
:1017900001E0B945ECDB00BF3A464146204600F087
:1017A00049F84FF4847101EB44102021FEF7D9FD74
:1017B00000BF4FF4847101EB4410FEF7B3FD002825
:1017C000F7D113E04FF4427101EB4410FEF7AAFD8C
:1017D0000546172D0AD01C2D08D011A0FEF796FE45
:1017E0002046FFF793F90020BDE8F0874FF402711F
:1017F00001EB4410FEF796FD00F010001028E1D137
:101800004FF4027101EB44101021FEF7AAFD4FF4D2
:10181000027101EB44101021FEF7A3FD3846E3E707
:1018200053454E445F4F4B2050726F626C656D2183
:10183000210D0A002DE9F04104460F461646002509
:10184000A8462EB9214618A0FEF760FEBDE8F0813B
:1018500042F2084101EB4410FEF764FD054642F2F6
:10186000085101EB4410FEF75DFD00EB052085B249
:10187000280200EB441000F1100832463946404679
:1018800000F00EFDA81985B2290A42F2084202EBC7
:101890004410FEF766FDE9B242F2085202EB441032
:1018A000FEF75FFD00BFD1E743483A20256420558D
:1018B0006E657870656374656431206C656E6774FD
:1018C0006820300D0A00000010B5044604222146AD
:1018D000900100F0E5FC10BD10B50446062221463B
:1018E0004FF4106000F0DCFC10BD10B5044604227B
:1018F00021464FF4706000F0D3FC10BD10B50446D3
:10190000042221464FF4A06000F0CAFC10BD70B55F
:1019100004460D464FF4027101EB44102946FEF7D0
:1019200020FD70BD08B52A482A490A6802608988E6
:10193000818029490968C0F8061028490968C0F85B
:101940000A1027490968C0F80E1026490968C0F82E
:1019500012102548007810B924A0FEF7D7FD012009
:101960001B49887600211A48C1760A30FFF7C6FF66
:1019700017480E30FFF7A8FF1548801DFFF7B5FF89
:101980001548FFF787FB1448C07800901248837809
:10199000427801781DA0FEF7B9FD1048FFF783FBE0
:1019A0000E48C07800900D488378427801781FA0D7
:1019B000FEF7ACFD0A48FFF75DFB0948C0780090D0
:1019C000074883784278017820A0FEF79FFD08BD84
:1019D000BE100020D8030020DE030020E203002018
:1019E000E6030020EA030020F603002020CAB9D352
:1019F000C3B6A8D2E5B5C44950D0C5CFA2C5E4D678
:101A0000C357353530300D0A0000000020573535FA
:101A10003030204950B5D8D6B72020203A20256450
:101A20002E25642E25642E25640D0A002057353599
:101A3000303020D7D3CDF8D1DAC2EB203A2025645C
:101A40002E25642E25642E25640D0A002057353579
:101A5000303020CDF8B9D820202020203A2025642D
:101A60002E25642E25642E25640D0A0010B5074826
:101A700007490A68026089888180FFF72DFF0548C1
:101A800003490A6802608988818010BDBE10002069
:101A9000D8030020880C00202DE9F04104460D46B3
:101AA0001646984605F00F0001280FD005F00F00EC
:101AB00002280BD005F00F00032807D005F00F0017
:101AC000042803D005F00F00052841D12046FFF778
:101AD0001DF845EA0801082202EB4410FEF741FC1C
:101AE00076B1310A4FF4816202EB4410FEF739FC03
:101AF000F1B24FF4A16202EB4410FEF732FC15E0A4
:101B000015480088401C144908800A461288110AAA
:101B10004FF4816202EB4410FEF723FC0E4A117869
:101B20004FF4A16202EB4410FEF71BFC4FF48471EA
:101B300001EB44100121FEF714FC00BF4FF4847147
:101B400001EB4410FEF7EEFB0028F7D1012700E07F
:101B500000273846BDE8F081EE0300202DE9F04172
:101B600005460E460027B846002433E0295D41F6BD
:101B7000087202EB4410FEF7F4FB315D41F6086297
:101B800002EB4410FEF7EDFB0020144921F814008D
:101B9000134921F81400B7F5804F07DC285D4FF694
:101BA000FF7101EA80200D4921F81400B8F5804F3B
:101BB00007DC305D4FF6FF7101EA8020084921F80B
:101BC0001400064830F814000744054830F81400A3
:101BD0008044641C082CC9DBBDE8F0819E10002005
:101BE000AE100020016841F04001016070470146DD
:101BF000C86880B27047C16070470246906808406C
:101C000008B1012070470020FCE702460020106860
:101C100000F441500B6818434B6818438B68184315
:101C2000CB6818430B6918434B6918438B691843F9
:101C30001060D36923F40063D36170470020002152
:101C4000394A126842F00102374B1A6000BF401C4B
:101C5000354A126802F0020111B9B0F5A06FF6D151
:101C6000314A126802F002020AB900BFFEE72E4AAA
:101C7000D26942F080522C4BDA612C4A126842F44D
:101C800040422A4B1A60284A5268274B5A601A462B
:101C900052685A601A46526842F480625A601A4684
:101CA0005268234B1A40204B5A601A465268214B07
:101CB0001A431D4B5A601A46126842F080721A602D
:101CC00000BF194A126802F00072002AF9D0174AC0
:101CD000126842F48032154B1A6000BF134A5268F2
:101CE00002F48032002AF9D0104A126842F400321D
:101CF0000E4B1A6000BF0D4A526802F40032002AEF
:101D0000F9D0094A526822F00302074B5A601A467A
:101D1000526842F002025A6000BF034A526802F061
:101D20000802002AF9D070470010024000700040FD
:101D3000FFFFC3B70000340810B5FFF77FFF10BDE9
:101D400010B5114800681149B0FBF1F4601EB0F104
:101D5000807F01D301200FE0601E4FF0E021486139
:101D60000F214FF0FF30FEF7E1FB00204FF0E021A4
:101D7000886107200861002008B100BFFEE700214C
:101D8000481EFEF7D3FB10BD00000020C0D40100A8
:101D900038B504461348C470FFF710FAFFF7BAFCD1
:101DA000FFF764FEFFF7BEFD0F491048FFF7D6FEB0
:101DB0000FA0FEF7ABFB1B48C07800901948837852
:101DC0004278017818A0FEF7A1FB1D4801881DA0EC
:101DD000FEF79CFB1FA0FEF799FB2DA0FEF796FBDC
:101DE00038BD0000DE030020CD030020C503002025
:101DF00020B5E7C4D4D7F7CEAA544350B7FECEF1EE
:101E0000B6CB2CC8C35735353030D7F7CEAABFCDA7
:101E1000BBA7B6CB20544350C8A5C1ACBDD3200D41
:101E20000A000000F003002020B7FECEF1C6F749FB
:101E3000503A25642E25642E25642E25640D0A0053
:101E4000F403002020BCE0CCFDB6CBBFDA3A256419
:101E5000200D0A0020C1ACBDD3B3C9B9A6BAF3A303
:101E6000ACB7FECEF1C6F7B7A2CBCDCAFDBEDDB88A
:101E7000F85735353030A3AC5735353030BDABB7BA
:101E8000B5BBD8B6D4D3A6CAFDBEDD200D0A00006E
:101E900020D3A6D3C3B3CCD0F2D6B4D0D0D6D0A161
:101EA000ADA1AD0D0A0000001FB54FF4E060FFF7D3
:101EB00001FC4FF0804000F021F87720ADF80000E1
:101EC0000020ADF80200ADF804006320029000206D
:101ED000ADF8060069464FF0804000F083F801211C
:101EE000880700F0CBF8012200211C20FFF7CAFA76
:101EF0004FF0804000F070F81FBD000010B50446A0
:101F00003349601A8C4244D00CDCB4F1804F1CD0B1
:101F10003048204410B3B0F5806F28D0B0F5006F82
:101F200052D12DE0B0F5806F3CD0B0F58E3F03D09C
:101F3000B0F5923F48D13EE040F20B30FFF7DAFBBC
:101F400040F20B30FFF7C6FB3FE04FF48060FFF735
:101F5000D1FB4FF48060FFF7BDFB36E040F201405B
:101F6000FFF7C8FB40F20140FFF7B4FB2DE040F261
:101F70000240FFF7BFFB40F20240FFF7ABFB24E05B
:101F800040F20340FFF7B6FB40F20340FFF7A2FB2D
:101F90001BE040F20440FFF7ADFB40F20440FFF7C6
:101FA00099FB12E040F20540FFF7A4FB40F2054028
:101FB000FFF790FB09E040F20D30FFF79BFB40F28A
:101FC0000D30FFF787FB00E000BF00BF10BD000031
:101FD0000010004000FCFFBF016841F001010160FA
:101FE000704700000A8882621D4A90420ED0B0F10C
:101FF000804F0BD01B4A904208D01B4A904205D01C
:102000001A4A904202D01A4A90420BD1026822F03A
:102010007002026002684B881A43026002688B8873
:102020001A4302608A68C262124A90420AD0124A77
:10203000904207D0026822F4407202600268CB88A6
:102040001A430260064A904202D0094A904201D1E6
:102050000A7B0263426942F001024261704700005C
:10206000002C01400004004000080040000C00402B
:10207000003401400010004000140040C2680A43D0
:10208000C2607047CA43026170470246D06800EAE6
:1020900001031069084010B10BB101207047002006
:1020A000FCE700002DE9F04704460D460027B8463E
:1020B000B94600261D49601A8C421CD006DC1C481B
:1020C000204470B1B0F5806F1FD10FE0B0F5806F84
:1020D00016D0B0F56C4F18D10320FFF73FFA074632
:1020E00014E00220FFF73AFA07460FE00220FFF75C
:1020F00035FA07460AE00220FFF730FA074605E006
:102100000220FFF72BFA074600E000BF00BF07EBF5
:102110005500B0FBF5F64FF6F07006EA000806F041
:102120000F0948EA0900A060BDE8F087004C0040B4
:1021300000BCFFBFC1F308024260704710B50446FF
:102140002049601A8C4228D006DC1F48204490B1F8
:10215000B0F5806F33D117E0B0F5806F26D0B0F5C1
:102160006C4F2CD140F20E30FFF7C4FA40F20E3023
:10217000FFF7B0FA24E040F21140FFF7BBFA40F25B
:102180001140FFF7A7FA1BE040F21240FFF7B2FA46
:1021900040F21240FFF79EFA12E040F21340FFF7C0
:1021A000A9FA40F21340FFF795FA09E040F2144013
:1021B000FFF7A0FA40F21440FFF78CFA00E000BFEE
:1021C00000BF10BD004C004000BCFFBFC16841F41F
:1021D0000051C160704710B5024602EB91100068D3
:1021E00001F01F040123A340184008B1012010BDD5
:1021F0000020FCE70A460021C16821F004011143D8
:10220000C16070470A460021C16821F008011143EE
:10221000C160704710B5044624B940210548FEF757
:10222000C9FF05E0012C03D140210248FEF7C4FF9D
:1022300010BD0000000C01402DE9F04104460F469E
:102240001546002615B910A0FEF760F9FFF7BEF895
:10225000C4F30740FEF77FF8C4F30720FEF77BF8CE
:1022600004F0F800FEF777F8002605E00020FEF7FE
:1022700072F8B855701C86B2AE42F7DBFFF7ABF8C8
:102280002846BDE8F0810000556E6578706563747E
:10229000656432206C656E67746820300D0A00003A
:1022A0002DE9F04104460F461546002615B910A049
:1022B000FEF72CF9FFF78AF8C4F30740FEF74BF856
:1022C000C4F30720FEF747F804F0F801091DC8B26F
:1022D000FEF741F8002604E0B85DFEF73CF8701CFC
:1022E00086B2AE42F8DBFFF776F82846BDE8F0810B
:1022F000556E657870656374656432206C656E67D1
:10230000746820300D0A0000282300080000002017
:1023100008040000DC010008D023000808040020A5
:10232000E810000064050008100A000E27070100ED
:102330000000020412040412080412100412200403
:1023400012400412801452061C2124210112071489
:10235000120514120314520134120E04120C04124A
:102360000A04120944120F14120D14220B31000436
:102370001B08014004120C04921004D11052409426
:102380005204705280A05208B8D20120D20220011B
:10239000220105E20401BEC4051EA4296BAB0E0692
:1023A000CD0405E101400206DCD202013D740310B8
:1023B0000DDC111111C0A80158FFFFFF0008130127
:1023C0007201138813120C041066881315030000A1
:0400000508000131BD
:00000001FF
