:020000040800F2
:10000000D00B002045010008F3020008AD020008F3
:10001000EF02000839020008F903000800000000A0
:100020000000000000000000000000003103000894
:100030003D02000800000000F5020008330300083C
:100040005F0100085F0100085F0100085F01000810
:100050005F0100085F0100085F0100085F01000800
:100060005F0100085F0100085F0100085F010008F0
:100070005F0100085F0100085F0100085F010008E0
:100080005F0100085F010008190200085F01000815
:100090005F0100085F0100085F0100085F010008C0
:1000A0005F0100085F0100085F0100085F010008B0
:1000B000B90300085F010008DD0300085F010008C4
:1000C0005F0100085F0100085F0100085F01000890
:1000D0005F0100085F0100085F0100085F01000880
:1000E0005F0100085F0100085F0100085F01000870
:1000F0005F0100085F0100085F0100085F01000860
:100100005F0100085F0100085F0100085F0100084F
:100110005F0100085F0100085F0100085F0100083F
:100120005F0100085F0100085F0100085F0100082F
:10013000DFF80CD000F02EF8004800471D11000831
:10014000D00B00200648804706480047FEE7FEE740
:10015000FEE7FEE7FEE7FEE7FEE7FEE7FEE7FEE777
:100160003D0300083101000830B50B460146002070
:100170002022012409E021FA02F59D4205D303FA69
:1001800002F5491B04FA02F52844151EA2F10102EA
:10019000F1DC30BD064C074D06E0E06840F001039D
:1001A00094E8070098471034AC42F6D3FFF7C4FF39
:1001B000D81D0008F81D000870B58D1810F8014B07
:1001C00014F0030201D110F8012B231106D110F80D
:1001D000013B03E010F8016B01F8016B521EF9D1ED
:1001E000ABB110F8012B04F00C048A1A0C2C03D0CC
:1001F000A2EB84129B1C08E010F8014BA2EB042236
:10020000F8E712F8014B01F8014B5B1EF9D5A94242
:10021000D4D3002070BD000010B50221054800F0C5
:1002200007FB30B10221034800F0FEFA014800F05C
:10023000A1FB10BD0024014000BFFEE77047000095
:100240001FB540F2027001F0B5F8164801F0B4FB9A
:100250000020ADF80000ADF80200ADF8040012482F
:1002600000684FF47A71B0FBF1F0B0FBF1F0401E82
:1002700002900020ADF806008DF80C006946094890
:1002800001F00EFC0121074801F056FC002202217A
:100290001E2000F077FF0348006820F001000149AC
:1002A00008601FBD000800400000002000BFFEE7FE
:1002B00010B50446204600F01FF810BD70B5044686
:1002C0000D4600F003FFC4F30740FFF7F1FFC4F34E
:1002D0000720FFF7EDFF04F0F801091DC8B2FFF792
:1002E000E7FF2846FFF7E4FF00F0F5FE70BD00BF12
:1002F000FEE770477047000010B5044600BF0221BA
:100300000A4801F0CAF90028F9D02146074801F04F
:10031000C2F900BF0121054801F0BFF90028F9D05A
:10032000024801F0B4F9C0B210BD00000030014035
:10033000704710B500F090FB10BD000008B51B48D9
:10034000006840F47000194908601948006840F0DE
:100350000100174908600846406840F08000486086
:100360000020009002E00098401C009044F62061BC
:1003700000988842F7D30E48406820F003000C49EB
:100380004860084600680B490840094908604FF476
:100390001F0088600846006820F480200860002064
:1003A0004860C86201F018FA08BD000088ED00E05E
:1003B00000100240FFFFF6FE10B50121880701F092
:1003C000C2FB012807D10121034800F0D7FA01211F
:1003D000880701F0B5FB10BD002401406FF001005B
:1003E0000349086003480088401C024908807047A0
:1003F000100800402003002000BFFEE70FB4054BAB
:1004000010B503A9044A029800F02CF810BC5DF85E
:1004100014FB0000490D00082403002010B500283B
:1004200004DB0A07130E054A135406E00A07140EEC
:10043000034A00F00F031B1FD45410BD00E400E07A
:1004400018ED00E002E008C8121F08C1002AFAD126
:1004500070477047002001E001C1121F002AFBD144
:10046000704700002DE9FF4F8BB09A460F460546B6
:10047000002606E025280BD052460D9990476D1CAA
:10048000761C28780028F5D10FB03046BDE8F08FF3
:100490000024A0460122604900E0044315F8013F12
:1004A000203B02FA03F00842F7D128782E2817D112
:1004B00015F8010F44F004042A280ED06FF02F0223
:1004C0002878A0F1300109290AD808EB880102EB4D
:1004D000410100EB01086D1CF2E757F8048B6D1C1D
:1004E000287869283ED006DC0028CDD063280BD0C0
:1004F000642804D136E0732810D075284BD05246BA
:100500000D999047761C85E017F8040B8DF80000D4
:1005100000208DF80100E946012003E057F8049B14
:100520004FF0FF3061074FF0000401D40AE0641C73
:1005300044450DDA8442FADB19F804100029F6D19B
:1005400006E0641C8442FCDB19F804100029F8D191
:10055000264404E019F8010B52460D999047641E99
:10056000F8D257E001CF4FF00A0B002802DA4042E0
:100570002D2102E0210504D52B218DF82410012125
:1005800003E0E10705D02021F7E70DF120090891EC
:100590000CE00021F9E701CF4FF00A0BF9E75946CB
:1005A000FFF7E2FD01F1300209F8012D0028F6D134
:1005B000ADEB090000F1200B600701D44FF00108FA
:1005C000D84502DDA8EB0B0000E0002080460024A7
:1005D00006E009A85246005D0D999047641C761C00
:1005E00008988442F5DB04E0302052460D9990478C
:1005F000761CB8F10001A8F10108F5DC05E019F856
:10060000010B52460D999047761CBBF10001ABF1EE
:10061000010BF4DC6D1C34E709280100816841F00E
:100620000801816000BF816801F008010029FAD14A
:10063000816841F00401816000BF816801F004011C
:100640000029FAD1704730B5012902D002291AD108
:100650000CE0C36A23F47003C362C36A541E4FF4F0
:10066000700505EA04542343C3620DE0836B23F451
:1006700040138363836B541E4FF4401505EA045402
:100680002343836300E000BF00BF30BD10B54FF4CB
:10069000C02000F0F9F800211D4800F03DF80122CB
:1006A00011021B4800F079F9102201211848FFF7C8
:1006B000CAFF002409E0174810F82420032321462C
:1006C000134800F001F9601CC4B2102CF3DB4FF4A6
:1006D000602201210E4800F057F8012211460C4813
:1006E00000F033F80A4800F022F8094800F024F836
:1006F000012000F0A7F90648FFF790FF01221146FC
:10070000122000F03FFD0221014800F077F810BDF3
:10071000002401402402002021B1826842F40062DA
:10072000826003E0826822F4006282607047816820
:1007300041F4807181607047816801F0010119B94D
:10074000816841F001018160704772B101F00103DD
:100750001BB1836843F48013836001F0020393B1FB
:10076000836843F4004383600DE001F001031BB193
:10077000836823F48013836001F002031BB1836854
:1007800023F4004383607047012902D0022910D16D
:1007900007E0836823F460238360836813438360E6
:1007A00008E0836823F4E043836083681343836035
:1007B00000E000BF00BF704710B500240BE0074900
:1007C00051F82430064951F824000422002100F099
:1007D000CFFB601CC4B2102CF1DB10BDA4020020C2
:1007E0006402002010B500F05DF8FFF7E5FF01F0AE
:1007F000B0F800F09DF9FFF749FF10BD01F00102CC
:100800001AB1426842F04002426001F002021AB19D
:10081000426842F02002426001F004021AB14268CC
:1008200042F080024260704702688A43026070476B
:1008300010B502460B460020012B04D0022B0CD031
:10084000042B1ED113E0146804F00101546804F075
:1008500040040CB101B1012014E0146804F002015D
:10086000546804F020040CB101B101200AE01468BE
:1008700004F00401546804F080040CB101B10120BB
:1008800000E000BF00BF10BD0549096821F47021D8
:10089000034A116011460968014311607047000066
:1008A0000424014010B540F2026000F083FD4FF4D3
:1008B000A06000F07FFD40F20B6000F07BFD40F295
:1008C000096000F077FD10BDF0B51D4606290CD279
:1008D000436B01EB81071F26BE40B34301EB81064A
:1008E00002FA06F63343436322E00C290ED2036B6F
:1008F0008E1F06EB86071F26BE40B3438E1F06EBF6
:10090000860602FA06F63343036311E010290FD27C
:10091000C36AA1F10C0606EB86071F26BE40B3434F
:10092000A1F10C0606EB860602FA06F63343C36213
:100930000A2A0CD2046902EB42070726BE40B443E0
:1009400002EB420605FA06F63443046111E0122A6E
:100950000FD2C468A2F10A0606EB46070726BE407E
:10096000B443A2F10A0606EB460605FA06F634433E
:10097000C460F0BD0146C86C80B2704701F001024E
:100980001AB1826842F48002826001F002021AB158
:10099000826842F4001282607047AAB101F4807349
:1009A0001BB1436843F48073436001F480631BB15F
:1009B000436843F48063436001F00203CBB1836872
:1009C00043F00203836014E001F480731BB14368B9
:1009D00023F48073436001F480631BB1436823F404
:1009E0008063436001F002031BB1836823F00203BC
:1009F0008360704710B54FF4C06000F0DBFC40F23C
:100A0000056000F0D7FC00200B4908700EE00B4891
:100A10000949097850F8213003224821084800F09C
:100A2000A7FA05480078401C03490870024800787E
:100A30000828ECDB10BD0000EC010020CC010020F8
:100A4000001401400349086000BF024909680029F9
:100A5000FBD17047080100200448006820B103481A
:100A60000068401E0149086070470000080100202E
:100A700000B5034603E04FF47A7000F007F8181E43
:100A8000A3F101018BB2F6D100BD000000210D4A97
:100A900011600C492439096841F00101094A243ADE
:100AA00011600021084A118000BF0749098881426E
:100AB000FBDB04492439096821F00101014A243A89
:100AC00011607047240800402003002070B50546DF
:100AD0000C462146284600F02BF908B900BFFEE776
:100AE00004EB8400810005F10800405840F001014A
:100AF00004EB8400820005F10800815070BD70B5E0
:100B000005460C462146284600F012F908B900BFF8
:100B1000FEE704EB8400810005F10800405840F036
:100B2000200104EB8400820005F10800815070BDB3
:100B300000B587B00021134800F02AF81248009051
:100B400000208DF818001148029001208DF819003E
:100B5000400201908000039000208DF81A001020C0
:100B60000490400205906A460021064800F048F8CB
:100B700000210448FFF7C3FF00210248FFF7A6FF4A
:100B800007B000BD000002404C24014028030020B3
:100B900070B504460D462946204600F0C9F808B94C
:100BA00000BFFEE705EB8500810004F10800405816
:100BB00020F0010105EB8500820004F1080081505E
:100BC000002105EB8500820004F10800815005EB4F
:100BD0008500820004F10C00815005EB8500820045
:100BE00004F11000815005EB8500820004F114002F
:100BF00081506068AA000F2191400843606070BD79
:100C00002DE9F04104460D4616462946204600F0DF
:100C10008FF808B900BFFEE705EB8500820004F1FC
:100C200010003168815005EB8500820004F114004A
:100C3000B1688150308A81B205EB8500820004F1F1
:100C40000C00815005EB8500810004F10800475835
:100C500027F47C57F16870680843716908430743BB
:100C600005EB8500810004F108004750307E012823
:100C70000ED105EB8500810004F10800405840F0DA
:100C8000400105EB8500820004F1080081500DE071
:100C900005EB8500810004F10800405820F0400178
:100CA00005EB8500820004F108008150707E012868
:100CB0000ED105EB8500810004F10800405840F09A
:100CC000800105EB8500820004F1080081500DE0F1
:100CD00005EB8500810004F10800405820F08001F8
:100CE00005EB8500820004F108008150B07E70B9E8
:100CF00005EB8500810004F10800405820F0100148
:100D000005EB8500820004F1080081500DE005EB41
:100D10008500810004F10800405840F0100105EB07
:100D20008500820004F108008150BDE8F0810000D8
:100D300002460120034B9A4202D1042900DD002023
:100D4000704700000004024070B504460D46E1B251
:100D5000054800F057FF00BF0721034800F0A3FF3C
:100D60000028F9D0204670BD0038014070B5054616
:100D700000241C48854200D101E000BFFEE71A496B
:100D800031F8140000F016FB184931F8140000F097
:100D900011FB174951F82430164951F82400032259
:100DA000182100F0E5F8144951F82430114951F8A0
:100DB00024000322042100F0DBF8284600F026FF7F
:100DC0004FF4E131284600F0D5FE0421284600F01A
:100DD00079FF0821284600F07DFF284600F05EFFDD
:100DE00070BD00000038014000020020F00100202A
:100DF000F4010020FC010020F801002010B5044699
:100E000004222146900100F07FFF10BD10B504467A
:100E1000042221464FF4706000F076FF10BD10B53B
:100E20000446042221464FF4A06000F06DFF10BD7F
:100E30001CB500201C49087010E01C481A4A1278A2
:100E400050F822101A4800F0F1F8174A12780DF8FD
:100E5000020015480078401C1349087012480078B9
:100E60000828EADB9DF800009DF8011040EA4100E7
:100E70009DF8021040EA81009DF8031040EAC1008D
:100E80009DF8041040EA01109DF8051040EA411059
:100E90009DF8061040EA81109DF8071040EAC11045
:100EA000C4B220461CBD0000EC010020CC01002093
:100EB00000140140416170470161704700B587B07F
:100EC00040F2036000F076FA40F2036000F072FA3C
:100ED00040F2036000F06EFA40F2036000F06AFA3C
:100EE00040F20C6000F066FA4FF4C06000F062FA65
:100EF00001211C4800F0A2F80121084600F09EF8EC
:100F0000382303221821184800F032F84023032226
:100F10001021154800F02CF8002001904FF4827049
:100F200000900020029005904FF400700390102074
:100F300006900020049069460C4800F0B6FB0B4870
:100F400000F0A0FB4FF4807303221021064800F04C
:100F50000FF84FF4807303224821034800F008F88B
:100F600007B000BD00023000000C0140003001401D
:100F7000F0B5044616460025002201F00F0501F0E9
:100F8000100747B1042E05D145F00305E76B1F4359
:100F9000E76300E0354300201EE0012787401F4043
:100FA000C7B122684FEA800C0F2707FA0CF7BA4343
:100FB000870005FA07F73A43282904D1012787401B
:100FC0001F40676105E0482903D1012787401F4082
:100FD00027612260471CB8B20828DED3082022E02F
:100FE000012787401F40E7B16268A0F108074FEA78
:100FF000870C0F2707FA0CF7BA43A0F10807BF00C8
:1010000005FA07F73A43282904D1012787401F40F2
:10101000676105E0482903D1012787401F40276108
:101020006260471CB8B21028DAD3F0BD024690685F
:10103000084008B1012070470020FCE7F0B50A46DF
:10104000002300240021002500F00046B6F1004FE7
:1010500002D11D4EF16901E01B4E7168C0F30345DA
:1010600083B200F44016B6F5401F08D121F0E061CC
:10107000154E766826F0E066134F7E6012E000F4AD
:101080008016B6F5801F06D1032606FA05F4A143A3
:1010900041F0E06106E0460D360103FA06F6B14381
:1010A00041F0E06122B1460D360103FA06F6314304
:1010B00000F00046B6F1004F02D1034EF16101E0AD
:1010C000014E7160F0BD00000000014010B500202D
:1010D00000F008FE10BD10B5012000F003FE10BDA9
:1010E00010B540F2046000F065F94FF4C06000F004
:1010F00061F94FF40053032210210248FFF738FF33
:1011000010BD00000010014010B54FF4005102481E
:10111000FFF7D0FE10BD000000100140FFF70EF9F0
:1011200000F05EFBFFF78CF8FFF7DAFFFFF762FCD9
:10113000FFF758FB0B48FFF719FEFFF7E5FFFFF736
:1011400077FE094908800846018808A0FFF756F98C
:101150000548008800F06CFB41F28830084908809F
:1011600000BFFEE700380140E800002041646472DF
:101170006573732069733A2564200A0D000000002E
:10118000EA0000202DE9F04103460D4616460024F2
:101190000027A0462A48006800F4E060B0F5E06F40
:1011A00003D100BF4FF0040830E02548006800F488
:1011B000E060B0F5C06F03D101274FF0030825E0D0
:1011C0001F48006800F4E060B0F5A06F02D102276C
:1011D000B8461BE01A48006800F4E060B0F5806F84
:1011E00003D103274FF0010810E01548006800F410
:1011F000E060B0F5407F03D104274FF0000805E020
:101200004FF4A06000F020F80227B846C7F10400B0
:1012100005FA00F4C8F104010F20C840304004432F
:1012200024010848C45403F01F01012088405911CB
:10123000890001F1E021C1F80001BDE8F081000062
:101240000CED00E000E400E002490143024A1160B5
:10125000704700000000FA050CED00E02DE9F04FAA
:101260008CB0074600200A904AA090E8004CC06865
:10127000CDE905BECDF810A007900FF21C1ADAE9EF
:10128000000ACDE9020A0FF2101ADAE9000ACDE9E4
:10129000000A44484068C0F381000B900B9820B1CD
:1012A000012804D002283FD103E03F4A3EE03E4AF5
:1012B0003CE03C48406800F4803CBCF5803F12D1E3
:1012C0003848C06A00F08048B8F1000F01D1364BB1
:1012D00000E0364B3348406800F40039B9F5003F70
:1012E00002D15B0800E0324B2E484068C0F38341D6
:1012F0002C48406800F0006008B141F01001294816
:10130000406800F0804008B141F020010F2901D26F
:10131000891C06E00F2903D33E2901D8491C00E0AF
:101320003F2103FB01F201E01F4A00BF00BF1D483F
:101330004068C0F3031504A8465D22FA06F4194874
:101340004068C0F3022502A8465D24FA06F0099021
:1013500014484068C0F3C2251DF8056024FA06F061
:10136000089037B1012F06D0022F06D0032F0AD1E3
:1013700006E00A9208E00A9406E009980A9003E061
:1013800008980A9000E000BF00BF0A980CB0BDE8C2
:10139000F08F0000000000000000000001020304C4
:1013A000060708090010024000127A00006CDC02F7
:1013B00000093D00064A02EB9011096800F01F0386
:1013C00001229A401143024B03EB901211607047C7
:1013D00000100240064A02EB9011096800F01F035A
:1013E00001229A409143024B03EB90121160704727
:1013F00000100240064A02EB9011096800F01F033A
:1014000001229A401143024B03EB90121160704786
:101410000010024010B54FF480710848FFF74AFDF4
:101420000220FFF733FB4FF480710448FFF744FDBF
:101430004FF4C860FFF71CFB10BD0000000C01401A
:1014400010B5044604222146900100F091FC10BD25
:1014500010B50446062221464FF4106000F088FCC7
:1014600010BD10B50446042221464FF4706000F010
:101470007FFC10BD10B50446042221464FF4A06045
:1014800000F076FC10BD000008B52A482A490A6819
:1014900002608988818029490968C0F806102849B6
:1014A0000968C0F80A1027490968C0F80E102649D3
:1014B0000968C0F812102548007810B924A0FEF77A
:1014C0009DFF01201B49887600211A48C1760A3009
:1014D000FFF7D0FF17480E30FFF7B2FF1548801D09
:1014E000FFF7BFFF1548FFF791FC1448C078009044
:1014F00012488378427801781DA0FEF77FFF1048DC
:10150000FFF78DFC0E48C07800900D488378427834
:1015100001781FA0FEF772FF0A48FFF76FFC094829
:10152000C0780090074883784278017820A0FEF7C1
:1015300065FF08BD9E070020F8020020FE02002083
:1015400002030020060300200A03002016030020E7
:1015500020CAB9D3C3B6A8D2E5B5C44950D0C5CFC7
:10156000A2C5E4D6C357353530300D0A000000005F
:10157000205735353030204950B5D8D6B7202020F7
:101580003A2025642E25642E25642E25640D0A003C
:1015900020573535303020D7D3CDF8D1DAC2EB2003
:1015A0003A2025642E25642E25642E25640D0A001C
:1015B00020573535303020CDF8B9D82020202020D4
:1015C0003A2025642E25642E25642E25640D0A00FC
:1015D00010B5074807490A68026089888180FFF7CB
:1015E00037FF054803490A6802608988818010BD79
:1015F0009E070020F8020020680300202DE9F0413A
:1016000005460E460027B846002433E0295D41F622
:10161000087202EB4410FEF751FE315D41F608629C
:1016200002EB4410FEF74AFE0020144921F8140092
:10163000134921F81400B7F5804F07DC285D4FF6F9
:10164000FF7101EA80200D4921F81400B8F5804FA0
:1016500007DC305D4FF6FF7101EA8020084921F870
:101660001400064830F814000744054830F8140008
:101670008044641C082CC9DBBDE8F0817E07002093
:101680008E070020016841F040010160704701466B
:10169000C86880B27047C1607047024690680840D1
:1016A00008B1012070470020FCE7024600201068C6
:1016B00000F441500B6818434B6818438B6818437B
:1016C000CB6818430B6918434B6918438B6918435F
:1016D0001060D36923F40063D361704700200021B8
:1016E000394A126842F00102374B1A6000BF401CB1
:1016F000354A126802F0020111B9B0F5A06FF6D1B7
:10170000314A126802F002020AB900BFFEE72E4A0F
:10171000D26942F080522C4BDA612C4A126842F4B2
:1017200040422A4B1A60284A5268274B5A601A4690
:1017300052685A601A46526842F480625A601A46E9
:101740005268234B1A40204B5A601A465268214B6C
:101750001A431D4B5A601A46126842F080721A6092
:1017600000BF194A126802F00072002AF9D0174A25
:10177000126842F48032154B1A6000BF134A526857
:1017800002F48032002AF9D0104A126842F4003282
:101790000E4B1A6000BF0D4A526802F40032002A54
:1017A000F9D0094A526822F00302074B5A601A46E0
:1017B000526842F002025A6000BF034A526802F0C7
:1017C0000802002AF9D07047001002400070004063
:1017D000FFFFC3B70000340810B5FFF77FFF10BD4F
:1017E00010B5114800681149B0FBF1F4601EB0F16A
:1017F000807F01D301200FE0601E4FF0E02148619F
:101800000F214FF0FF30FEF709FE00204FF0E021DE
:10181000886107200861002008B100BFFEE70021B1
:10182000481EFEF7FBFD10BD00000020C0D40100E3
:1018300038B504461348C470FFF740FBFFF7EAFDD4
:10184000FFF7C6FEFFF720FE0F491048FFF7D6FE50
:101850000FA0FEF7D3FD1B48C0780090194883788D
:101860004278017818A0FEF7C9FD1D4801881DA027
:10187000FEF7C4FD1FA0FEF7C1FD2DA0FEF7BEFDC3
:1018800038BD0000FE020020F0020020E802002027
:1018900020B5E7C4D4D7F7CEAA544350B7FECEF153
:1018A000B6CB2CC8C35735353030D7F7CEAABFCD0D
:1018B000BBA7B6CB20544350C8A5C1ACBDD3200DA7
:1018C0000A0000001003002020B7FECEF1C6F74941
:1018D000503A25642E25642E25642E25640D0A00B9
:1018E0001403002020BCE0CCFDB6CBBFDA3A25645F
:1018F000200D0A0020C1ACBDD3B3C9B9A6BAF3A369
:10190000ACB7FECEF1C6F7B7A2CBCDCAFDBEDDB8EF
:10191000F85735353030A3AC5735353030BDABB71F
:10192000B5BBD8B6D4D3A6CAFDBEDD200D0A0000D3
:1019300020D3A6D3C3B3CCD0F2D6B4D0D0D6D0A1C6
:10194000ADA1AD0D0A000000016841F08001016009
:1019500070471FB54FF4E060FFF72CFD684600F0BC
:10196000FEF84FF0804000F027F87720ADF8000037
:101970000020ADF80200ADF80400632002900020C2
:10198000ADF806008DF80C0069464FF0804000F07D
:1019900087F84FF08040FFF7D7FF0121880700F05C
:1019A000CBF8012200211C20FFF7ECFB4FF0804018
:1019B00000F070F81FBD000010B504463349601AEE
:1019C0008C4244D00CDCB4F1804F1CD03048204411
:1019D00010B3B0F5806F28D0B0F5006F52D12DE074
:1019E000B0F5806F3CD0B0F58E3F03D0B0F5923F9C
:1019F00048D13EE040F20B30FFF7FCFC40F20B30E8
:101A0000FFF7E8FC3FE04FF48060FFF7F3FC4FF492
:101A10008060FFF7DFFC36E040F20140FFF7EAFCB0
:101A200040F20140FFF7D6FC2DE040F20240FFF704
:101A3000E1FC40F20240FFF7CDFC24E040F203401D
:101A4000FFF7D8FC40F20340FFF7C4FC1BE040F274
:101A50000440FFF7CFFC40F20440FFF7BBFC12E06C
:101A600040F20540FFF7C6FC40F20540FFF7B2FC2C
:101A700009E040F20D30FFF7BDFC40F20D30FFF7FA
:101A8000A9FC00E000BF00BF10BD00000010004036
:101A900000FCFFBF016841F00101016070470000D8
:101AA0000A8882621D4A90420ED0B0F1804F0BD05E
:101AB0001B4A904208D01B4A904205D01A4A9042D5
:101AC00002D01A4A90420BD1026822F070020260E2
:101AD00002684B881A43026002688B881A430260CE
:101AE0008A68C262124A90420AD0124A904207D0D3
:101AF000026822F4407202600268CB881A430260D6
:101B0000064A904202D0094A904201D10A7B026300
:101B1000426942F00102426170470000002C01401E
:101B20000004004000080040000C00400034014068
:101B30000010004000140040C2680A43C2607047B1
:101B4000CA43026170470246D06800EA0103106987
:101B5000084010B10BB1012070470020FCE70021C4
:101B60000180418081804FF6FF7181600021C1803A
:101B7000017370472DE9F04704460D460027B8462B
:101B8000B94600261D49601A8C421CD006DC1C4850
:101B9000204470B1B0F5806F1FD10FE0B0F5806FB9
:101BA00016D0B0F56C4F18D10320FFF757FB07464E
:101BB00014E00220FFF752FB07460FE00220FFF778
:101BC0004DFB07460AE00220FFF748FB074605E009
:101BD0000220FFF743FB074600E000BF00BF07EB12
:101BE0005500B0FBF5F64FF6F07006EA000806F077
:101BF0000F0948EA0900A060BDE8F087004C0040EA
:101C000000BCFFBFC1F308024260704710B5044634
:101C10002049601A8C4228D006DC1F48204490B12D
:101C2000B0F5806F33D117E0B0F5806F26D0B0F5F6
:101C30006C4F2CD140F20E30FFF7DCFB40F20E303F
:101C4000FFF7C8FB24E040F21140FFF7D3FB40F25E
:101C50001140FFF7BFFB1BE040F21240FFF7CAFB49
:101C600040F21240FFF7B6FB12E040F21340FFF7DC
:101C7000C1FB40F21340FFF7ADFB09E040F2144016
:101C8000FFF7B8FB40F21440FFF7A4FB00E000BFF1
:101C900000BF10BD004C004000BCFFBFC16841F454
:101CA0000051C160704710B5024602EB9110006808
:101CB00001F01F040123A340184008B1012010BD0A
:101CC0000020FCE70A460021C16821F0040111430D
:101CD000C16070470A460021C16821F00801114324
:101CE000C160704710B5044624B940210548FFF78C
:101CF000E1F805E0012C03D140210248FFF7DCF8B0
:101D000010BD0000000C01402DE9F04104460F46D3
:101D10001546002615B910A0FEF770FBFFF7D6F99F
:101D2000C4F30740FEF7C4FAC4F30720FEF7C0FA75
:101D300004F0F800FEF7BCFA002605E00020FEF7EC
:101D4000B7FAB855701C86B2AE42F7DBFFF7C3F99D
:101D50002846BDE8F0810000556E657870656374B3
:101D6000656432206C656E67746820300D0A00006F
:101D70002DE9F04104460F461546002615B910A07E
:101D8000FEF73CFBFFF7A2F9C4F30740FEF790FA19
:101D9000C4F30720FEF78CFA04F0F801091DC8B25D
:101DA000FEF786FA002604E0B85DFEF781FA701CA3
:101DB00086B2AE42F8DBFFF78EF92846BDE8F08127
:101DC000556E657870656374656432206C656E6706
:101DD000746820300D0A0000F81D00080000002083
:101DE00028030000B8010008A01E000828030020F6
:101DF000A808000054040008100A000E270701007C
:101E00000000020412040412080412100412200438
:101E100012400412801452061C21242101120714BE
:101E2000120514120314520134120E04120C04127F
:101E30000A04120944120F14120D14220B3100046B
:101E40001B08014004120C04921004D1105240945B
:101E50005204705280A05208B8D20120D202200150
:101E6000260101BEE8051EC8258BA70E06ED00055C
:101E700020014002063809C200D20201100F0008FA
:101E8000DC111111C0A80158FFFFFF0008130172F7
:101E9000011388131208041066881335000000002F
:0400000508000131BD
:00000001FF
