:020000040800F2
:10000000906B002045010008EB0200087302000815
:10001000E702000817020008C503000800000000FE
:10002000000000000000000000000000290300089C
:100030007102000800000000ED0200085D010008E8
:100040005F0100085F0100085F0100085F01000810
:100050005F0100085F0100085F0100085F01000800
:100060005F0100085F0100085F0100081D02000831
:100070005F0100085F0100085F0100085F010008E0
:100080005F0100085F0100085F0100085F010008D0
:100090005F0100085F0100085F0100085F010008C0
:1000A0005F0100085F0100085F0100085F010008B0
:1000B0005F0100085F010008A90300085F01000854
:1000C0005F0100085F0100085F0100085F01000890
:1000D0005F0100085F0100085F0100085F01000880
:1000E0005F0100085F0100085F0100085F01000870
:1000F0005F0100085F0100085F0100085F01000860
:100100005F0100085F0100085F0100085F0100084F
:100110005F0100085F0100085F0100085F0100083F
:100120005F0100085F0100085F0100085F0100082F
:10013000DFF80CD000F02EF800480047DD1300086F
:10014000906B00200648804706480047FEE7FEE720
:10015000FEE7FEE7FEE7FEE7FEE7FEE7FEE7FEE777
:100160002D0300083101000830B50B460146002080
:100170002022012409E021FA02F59D4205D303FA69
:1001800002F5491B04FA02F52844151EA2F10102EA
:10019000F1DC30BD064C074D06E0E06840F001039D
:1001A00094E8070098471034AC42F6D3FFF7C4FF39
:1001B000182600083826000870B58D1810F8014B75
:1001C00014F0030201D110F8012B231106D110F80D
:1001D000013B03E010F8016B01F8016B521EF9D1ED
:1001E000ABB110F8012B04F00C048A1A0C2C03D0CC
:1001F000A2EB84129B1C08E010F8014BA2EB042236
:10020000F8E712F8014B01F8014B5B1EF9D5A94242
:10021000D4D3002070BD00BFFEE7000010B504225B
:100220000021114800F020FE58B1042200210E48A0
:1002300000F012FE0D480078A0B901200B490870AB
:1002400010E002220021084800F00EFE50B1022208
:100250000021054800F000FE0448007810B9022093
:100260000249087010BD000000000240E8020020B2
:10027000704700BFFEE770B50446002501F086F820
:10028000C4F3074000F010F8C4F3072000F00CF8A6
:1002900004F0F80000F008F8002000F005F805462A
:1002A00001F079F8284670BD10B50446204600F0EC
:1002B0001FF810BD70B504460D4601F067F8C4F391
:1002C0000740FFF7F1FFC4F30720FFF7EDFF04F04D
:1002D000F801091DC8B2FFF7E7FF2846FFF7E4FF62
:1002E00001F059F870BD00BFFEE77047704700008D
:1002F00010B5044600BF02210A4801F0E4FC0028C2
:10030000F9D02146074801F0DCFC00BF0121054877
:1003100001F0D9FC0028F9D0024801F0CEFCC0B2AF
:1003200010BD0000003001407047000008B51B48B8
:10033000006840F47000194908601948006840F0EE
:100340000100174908600846406840F08000486096
:100350000020009002E00098401C009044F62061CC
:1003600000988842F7D30E48406820F003000C49FB
:100370004860084600680B490840094908604FF486
:100380001F0088600846006820F480200860002074
:100390004860C86201F036FD08BD000088ED00E04D
:1003A00000100240FFFFF6FE6FF0010003490860F5
:1003B00003480088401C024908807047100800402C
:1003C0002403002000BFFEE70FB4054B10B503A9BE
:1003D000044A029800F018F810BC5DF814FB000005
:1003E000810F00082803002002E008C8121F08C17E
:1003F000002AFAD170477047002001E001C1121FA6
:10040000002AFBD1704700002DE9FF4F8BB09A46C0
:100410000F460546002606E025280BD052460D99CA
:1004200090476D1C761C28780028F5D10FB0304617
:10043000BDE8F08F0024A0460122604900E004439B
:1004400015F8013F203B02FA03F00842F7D1287863
:100450002E2817D115F8010F44F004042A280ED0D5
:100460006FF02F022878A0F1300109290AD808EB93
:10047000880102EB410100EB01086D1CF2E757F81F
:10048000048B6D1C287869283ED006DC0028CDD06E
:1004900063280BD0642804D136E0732810D0752867
:1004A0004BD052460D999047761C85E017F8040B07
:1004B0008DF8000000208DF80100E946012003E0DE
:1004C00057F8049B4FF0FF3061074FF0000401D450
:1004D0000AE0641C44450DDA8442FADB19F8041082
:1004E0000029F6D106E0641C8442FCDB19F80410F4
:1004F0000029F8D1264404E019F8010B52460D9961
:100500009047641EF8D257E001CF4FF00A0B002845
:1005100002DA40422D2102E0210504D52B218DF87D
:100520002410012103E0E10705D02021F7E70DF1B8
:10053000200908910CE00021F9E701CF4FF00A0BE8
:10054000F9E75946FFF710FE01F1300209F8012DD5
:100550000028F6D1ADEB090000F1200B600701D4B3
:100560004FF00108D84502DDA8EB0B0000E00020A9
:100570008046002406E009A85246005D0D99904788
:10058000641C761C08988442F5DB04E03020524657
:100590000D999047761CB8F10001A8F10108F5DC2F
:1005A00005E019F8010B52460D999047761CBBF1F6
:1005B0000001ABF1010BF4DC6D1C34E709280100EC
:1005C000816841F00801816000BF816801F0080185
:1005D0000029FAD1816841F00401816000BF81687F
:1005E00001F004010029FAD1704730B5012902D089
:1005F00002291AD10CE0C36A23F47003C362C36AF0
:10060000541E4FF4700505EA04542343C3620DE001
:10061000836B23F440138363836B541E4FF44015A4
:1006200005EA04542343836300E000BF00BF30BDEC
:1006300010B54FF4E02000F0E3F80021344800F05A
:100640006DF80021324800F069F8012211023048AB
:1006500000F059F9012211022E4800F054F900214E
:100660002B4800F046F900212A4800F042F91022F8
:1006700001212748FFF7B9FF102201212548FFF784
:10068000B4FF002409E0244810F824200323214665
:100690001F4800F0D8F8601CC4B2102CF3DB002413
:1006A00009E01D4810F8242003232146194800F0D2
:1006B000CAF8601CC4B2102CF3DB012211461448A6
:1006C00000F045F801221146124800F040F80022DF
:1006D00001210F4800F05AF84FF4602201210D4823
:1006E00000F054F80A4800F029F8012000F0F6F96B
:1006F0000748FFF765FF074800F020F8012000F0E9
:10070000EDF90448FFF75CFF014800F012F810BD56
:1007100000240140002801402802002021B1826805
:1007200042F40062826003E0826822F40062826028
:100730007047816841F4807181607047816801F081
:10074000010119B9816841F001018160704772B1FE
:1007500001F001031BB1836843F48013836001F04F
:10076000020393B1836843F4004383600DE001F01A
:1007700001031BB1836823F48013836001F002033B
:100780001BB1836823F4004383607047012902D0C2
:10079000022910D107E0836823F460238360836813
:1007A0001343836008E0836823F4E0438360836835
:1007B0001343836000E000BF00BF704710B5002402
:1007C0000BE0074951F82430064951F8240004226F
:1007D000002100F02DFD601CC4B2102CF1DB10BD17
:1007E000A80200206802002010B500F017F8FFF7FB
:1007F000E5FF01F041FD00F0FBF9FFF719FF10BD27
:100800000549096821F47021034A116011460968FD
:1008100001431160704700000424014010B540F20C
:10082000026000F0AFFF4FF4A06000F0ABFF40F2B9
:100830000B6000F0A7FF40F2096000F0A3FF00206A
:1008400000F0BEFE10BDF0B51D4606290CD2436B6C
:1008500001EB81071F26BE40B34301EB810602FA7C
:1008600006F63343436322E00C290ED2036B8E1F3E
:1008700006EB86071F26BE40B3438E1F06EB860697
:1008800002FA06F63343036311E010290FD2C36A5C
:10089000A1F10C0606EB86071F26BE40B343A1F16B
:1008A0000C0606EB860602FA06F63343C3620A2AF2
:1008B0000CD2046902EB42070726BE40B44302EBA8
:1008C000420605FA06F63443046111E0122A0FD2FB
:1008D000C468A2F10A0606EB46070726BE40B443E9
:1008E000A2F10A0606EB460605FA06F63443C46092
:1008F000F0BD50F8802F22F44052026002680A4393
:1009000040F880297047AAB101F480731BB1436895
:1009100043F48073436001F480631BB1436843F484
:100920008063436001F00203CBB1836843F00203AC
:10093000836014E001F480731BB1436823F4807377
:10094000436001F480631BB1436823F48063436018
:1009500001F002031BB1836823F002038360704738
:1009600010B54FF4C06000F00DFF40F2056000F0DC
:1009700009FF00200B4908700EE00B48094909786F
:1009800050F8213003224821084800F051FC054866
:100990000078401C03490870024800780828ECDB06
:1009A00010BD0000F0010020D00100200014014023
:1009B00010B504464FF4847101EB44101021FFF789
:1009C00079FC00BF4FF4847101EB4410FFF753FC36
:1009D0000028F7D14FF4027101EB4410FF21FFF71B
:1009E00069FC10BD2DE9F04105460C4616462078FD
:1009F000FF2808D16078FF2805D1A078FF2802D110
:100A0000E078FF2808D0207828B9607818B9A07855
:100A100008B9E07800B10EB900275CE00127217821
:100A200040F6084202EB4510FFF744FC617840F6BF
:100A3000085202EB4510FFF73DFCA17840F6086232
:100A400002EB4510FFF736FCE17840F6087202EB46
:100A50004510FFF72FFC310A41F2080202EB451066
:100A6000FFF728FCF1B241F2081202EB4510FFF744
:100A700021FC4FF4847101EB45100421FFF71AFCAF
:100A800000BF4FF4847101EB4510FFF7F4FB002821
:100A9000F7D117E04FF4427101EB4510FFF7EBFB84
:100AA000172800D116E0284600F0E6FA00F008000A
:100AB00040B14FF4027101EB45100821FFF7FAFB3A
:100AC000002707E04FF4427101EB4510FFF7D3FB1D
:100AD0001528DFD100BF3846BDE8F08100EE100ACE
:100AE000B8EE400A124AD2ED000A20EE200ABCEE0F
:100AF000C00A10EE102A4FF0E0235A6100229A61DA
:100B000001221A6100BF4FF0E022116901F00102D9
:100B10001AB101F48032002AF5D04FF0E0221269B8
:100B200022F001024FF0E0231A6100229A6170471F
:100B30000C01002000EE100AB8EE400A124AD2ED75
:100B4000000A20EE200ABCEEC00A10EE102A4FF078
:100B5000E0235A6100229A6101221A6100BF4FF01E
:100B6000E022116901F001021AB101F48032002A79
:100B7000F5D04FF0E022126922F001024FF0E0239D
:100B80001A6100229A6170470801002070B505467D
:100B90000C462146284600F0A9F908B900BFFEE737
:100BA00004EB8400810005F10800405840F0010189
:100BB00004EB8400820005F10800815070BD70B51F
:100BC00005460C462146284600F090F908B900BFBA
:100BD000FEE704EB8400810005F10800405840F076
:100BE000200104EB8400820005F10800815070BDF3
:100BF00000B587B00021214800F046F82048009059
:100C000000208DF818001F48029001208DF819006F
:100C1000400201908000039000208DF81A004FF4EC
:100C2000805004904FF4405005906A4600211348CC
:100C300000F062F800211148FFF7C1FF04220021F3
:100C40000E4800F009F9022200210C4800F004F9D6
:100C500002220021094800F0E6F80422002107489A
:100C600000F0E1F8002211460B2000F03DFC0021CD
:100C70000248FFF78BFF07B000BD000000000240F4
:100C80004C2401402C03002070B504460D46294633
:100C9000204600F02BF908B900BFFEE705EB850000
:100CA000810004F10800405820F0010105EB8500A7
:100CB000820004F108008150002105EB85008200CC
:100CC00004F10800815005EB8500820004F10C005E
:100CD000815005EB8500820004F11000815005EB86
:100CE0008500820004F1140081506068AA000F2181
:100CF00091400843606070BD2DE9F04104460D4607
:100D000016462946204600F0F1F808B900BFFEE774
:100D100005EB8500820004F110003168815005EB7D
:100D20008500820004F11400B1688150308A81B2DC
:100D300005EB8500820004F10C00815005EB850075
:100D4000810004F10800475827F47C57F168706867
:100D5000084371690843074305EB8500810004F1EE
:100D600008004750307E01280ED105EB8500810038
:100D700004F10800405840F0400105EB8500820076
:100D800004F1080081500DE005EB8500810004F1BD
:100D90000800405820F0400105EB8500820004F176
:100DA00008008150707E01280ED105EB850081007E
:100DB00004F10800405840F0800105EB85008200F6
:100DC00004F1080081500DE005EB8500810004F17D
:100DD0000800405820F0800105EB8500820004F1F6
:100DE00008008150B07E70B905EB8500810004F1E8
:100DF0000800405820F0100105EB8500820004F146
:100E0000080081500DE005EB8500810004F1080029
:100E1000405840F0100105EB8500820004F1080005
:100E20008150BDE8F08170B504460D46164629464E
:100E3000204600F05BF808B900BFFEE705EB85002F
:100E4000810004F108004058304305EB85018A0019
:100E500004F10801885070BD10B543688C0002FA97
:100E600004F42343436010BD70B5034600BF00BFC8
:100E7000022A04D0042A11D0082A2DD11DE01868B6
:100E80008E0002FA06F600EA060501EB81008600F4
:100E900003F10800805900F002041FE018688E007A
:100EA00002FA06F600EA060501EB8100860003F16E
:100EB0000800805900F0040410E018688E0002FA5F
:100EC00006F600EA060501EB8100860003F1080042
:100ED000805900F0080401E000BFFEE700BF15B133
:100EE0000CB1012070BD0020FCE70000024601208B
:100EF000034B9A4202D1042900DD00207047000014
:100F00000004024070B505460C46012000F0BDF813
:100F100030B113280CD0172811D01C2827D122E07B
:100F20002023144802880121084600F01BFE1EE021
:100F30001148028811490120FFF754FD17E00120F4
:100F400000F09AF800F0010018B10121084600F005
:100F500044FD002C06DD00202855A2B229460120C0
:100F600000F054FC03E00120FFF722FD00BF00BFAA
:100F700070BD00001203002018030020140300209D
:100F800070B504460D46E1B2054801F05BFA00BFBA
:100F90000721034801F0A7FA0028F9D0204670BDC8
:100FA0000038014070B5054600241C48854200D138
:100FB00001E000BFFEE71A4931F8140000F0E2FB3F
:100FC000184931F8140000F0DDFB174951F82430BE
:100FD000164951F824000322182100F029F9144978
:100FE00051F82430114951F824000322042100F063
:100FF0001FF9284601F02AFA4FF4E131284601F0A2
:10100000D9F90421284601F07DFA0821284601F08B
:1010100081FA284601F062FA70BD000000380140F4
:1010200004020020F4010020F8010020000200204A
:10103000FC01002010B5044604222146900101F075
:1010400083FA10BD0146024830F8110070470000D5
:101050004267002010B50446042221464FF4706018
:1010600001F072FA10BD10B50446042221464FF477
:10107000A06001F069FA10BD10B504464FF402718A
:1010800001EB4410FFF7F7F810BD10B504464FF41C
:10109000427101EB4410FFF7EEF810BD70B5044645
:1010A0000025002600BF42F2080101EB4410FFF7C3
:1010B000E2F8064642F2081101EB4410FFF7DBF8B4
:1010C00000EB062086B27EB142F2080101EB44102B
:1010D000FFF7D1F8054642F2081101EB4410FFF783
:1010E000CAF800EB052085B2B542DCD1284670BDB8
:1010F0001CB500201C49087010E01C481A4A1278E0
:1011000050F822101A4800F0F1F8174A12780DF83A
:10111000020015480078401C1349087012480078F6
:101120000828EADB9DF800009DF8011040EA410024
:101130009DF8021040EA81009DF8031040EAC100CA
:101140009DF8041040EA01109DF8051040EA411096
:101150009DF8061040EA81109DF8071040EAC11082
:10116000C4B220461CBD0000F0010020D0010020C8
:1011700000140140416170470161704700B587B0BC
:1011800040F2036000F0FEFA40F2036000F0FAFA69
:1011900040F2036000F0F6FA40F2036000F0F2FA69
:1011A00040F20C6000F0EEFA4FF4C06000F0EAFA92
:1011B00001211C4800F0A2F80121084600F09EF829
:1011C000382303221821184800F032F84023032264
:1011D0001021154800F02CF8002001904FF4827087
:1011E00000900020029005904FF4007003900020C2
:1011F0000690049069460D4800F06DFD0B4800F024
:1012000057FD4FF4807303221021074800F010F8B7
:101210004FF4807303224821034800F009F807B017
:1012200000BD000000023000000C01400030014011
:10123000F0B5044616460025002201F00F0501F026
:10124000100747B1042E05D145F00305E76B1F4396
:10125000E76300E0354300201EE0012787401F4080
:10126000C7B122684FEA800C0F2707FA0CF7BA4380
:10127000870005FA07F73A43282904D10127874058
:101280001F40676105E0482903D1012787401F40BF
:1012900027612260471CB8B20828DED3082022E06C
:1012A000012787401F40E7B16268A0F108074FEAB5
:1012B000870C0F2707FA0CF7BA43A0F10807BF0005
:1012C00005FA07F73A43282904D1012787401F4030
:1012D000676105E0482903D1012787401F40276146
:1012E0006260471CB8B21028DAD3F0BD024690689D
:1012F000084008B1012070470020FCE7F0B50A461D
:10130000002300240021002500F00046B6F1004F24
:1013100002D11D4EF16901E01B4E7168C0F3034517
:1013200083B200F44016B6F5401F08D121F0E06109
:10133000154E766826F0E066134F7E6012E000F4EA
:101340008016B6F5801F06D1032606FA05F4A143E0
:1013500041F0E06106E0460D360103FA06F6B143BE
:1013600041F0E06122B1460D360103FA06F6314341
:1013700000F00046B6F1004F02D1034EF16101E0EA
:10138000014E7160F0BD00000000014010B500206A
:1013900001F0C8F810BD10B5012001F0C3F810BD70
:1013A00010B540F2046000F0EDF94FF4C06000F0B9
:1013B000E9F94FF40053032210210248FFF738FFE8
:1013C00010BD00000010014010B54FF4005102485C
:1013D000FFF7D0FE10BD000000100140FEF7A6FF91
:1013E0004FF4407000F0E2F800F024FDFFF7D8FF62
:1013F000FFF7B6FAFFF7F8F93148FFF7D3FDFFF72B
:10140000E3FFFFF775FE2F490880084601882EA0EC
:10141000FEF7DAFF2B49087800F030FD4FE02F4847
:101420000078012822D1002414E02D4800EB840527
:101430002978A000C01C2B4A11546978A000801C98
:101440001154A978A000401C1154E97802F8241026
:10145000601C84B2B4F5006FE7DB4FF40051214803
:10146000FFF750FD00201D49087028E01B48007858
:10147000022824D1002416E0194904F5006001EB8C
:1014800080052978A000C01C164A11546978A00074
:10149000801C1154A978A000401C1154E97802F86E
:1014A0002410601C84B2B4F5006FE5DB4FF40051EA
:1014B0000C48FFF727FD00200849087000BFAEE781
:1014C00000380140E40000204164647265737320B9
:1014D00069733A2564200A0D00000000E80200202C
:1014E0002C0300202C4300202DE9F04103460D463B
:1014F000164600240027A0462A48006800F4E06051
:10150000B0F5E06F03D100BF4FF0040830E025488C
:10151000006800F4E060B0F5C06F03D101274FF020
:10152000030825E01F48006800F4E060B0F5A06FF4
:1015300002D10227B8461BE01A48006800F4E060B8
:10154000B0F5806F03D103274FF0010810E0154874
:10155000006800F4E060B0F5407F03D104274FF04D
:10156000000805E04FF4A06000F020F80227B8461C
:10157000C7F1040005FA00F4C8F104010F20C840C7
:101580003040044324010848C45403F01F010120E3
:1015900088405911890001F1E021C1F80001BDE83E
:1015A000F08100000CED00E000E400E0024901439E
:1015B000024A1160704700000000FA050CED00E0DF
:1015C000184B5968184B1940164BDA6A22F0005232
:1015D0000C2820D2DFE800F0060708091F0C1F0DB9
:1015E0001516171800BF00BF00BF41EA803113E095
:1015F00000BF20F004004FF0805343EA80331943CA
:101600000AE000BF00BF00BF20F00C0041EA8031BB
:1016100042F0005200E000BF00BF024B5960DA62A6
:101620007047000000100240FF3FFFEF2DE9F04F30
:101630008CB0074600200A904AA090E8004CC06891
:10164000CDE905BECDF810A007900FF21C1ADAE91B
:10165000000ACDE9020A0FF2101ADAE9000ACDE910
:10166000000A44484068C0F381000B900B9820B1F9
:10167000012804D002283FD103E03F4A3EE03E4A21
:101680003CE03C48406800F4803CBCF5803F12D10F
:101690003848C06A00F08048B8F1000F01D1364BDD
:1016A00000E0364B3348406800F40039B9F5003F9C
:1016B00002D15B0800E0324B2E484068C0F3834102
:1016C0002C48406800F0006008B141F01001294842
:1016D000406800F0804008B141F020010F2901D29C
:1016E000891C06E00F2903D33E2901D8491C00E0DC
:1016F0003F2103FB01F201E01F4A00BF00BF1D486C
:101700004068C0F3031504A8465D22FA06F41948A0
:101710004068C0F3022502A8465D24FA06F009904D
:1017200014484068C0F3C2251DF8056024FA06F08D
:10173000089037B1012F06D0022F06D0032F0AD10F
:1017400006E00A9208E00A9406E009980A9003E08D
:1017500008980A9000E000BF00BF0A980CB0BDE8EE
:10176000F08F0000000000000000000001020304F0
:10177000060708090010024000127A00006CDC0223
:1017800000093D00064A02EB9011096800F01F03B2
:1017900001229A401143024B03EB901211607047F3
:1017A00000100240064A02EB9011096800F01F0386
:1017B00001229A409143024B03EB90121160704753
:1017C00000100240064A02EB9011096800F01F0366
:1017D00001229A401143024B03EB901211607047B3
:1017E0000010024010B54FF480710748FFF7C2FCAB
:1017F0006420FFF79FF94FF480710348FFF7BCFCAA
:101800000120FFF76BF910BD000C01402DE9F047F6
:1018100004468846164600250027A9462046FFF7BD
:1018200011FC82462046FFF70DFCB04204DA204648
:10183000FFF708FC074600E0374600BF2046FFF7E9
:101840002DFC81464FF4427101EB4410FEF713FD6D
:101850000546172D03D01C2D01D0002701E0B94506
:10186000ECDB00BF3A464146204600F049F84FF411
:10187000847101EB44102021FEF71CFD00BF4FF4E2
:10188000847101EB4410FEF7F6FC0028F7D113E059
:101890004FF4427101EB4410FEF7EDFC0546172DA5
:1018A0000AD01C2D08D011A0FEF78EFD2046FFF7B0
:1018B0007FF80020BDE8F0874FF4027101EB44107F
:1018C000FEF7D9FC00F010001028E1D14FF40271AE
:1018D00001EB44101021FEF7EDFC4FF4027101EB17
:1018E00044101021FEF7E6FC3846E3E753454E442A
:1018F0005F4F4B2050726F626C656D21210D0A00A5
:101900002DE9F04104460F4616460025A8462EB99B
:10191000214618A0FEF758FDBDE8F08142F20841CB
:1019200001EB4410FEF7A7FC054642F2085101EB1B
:101930004410FEF7A0FC00EB052085B2280200EB66
:10194000441000F1100832463946404600F030FE9F
:10195000A81985B2290A42F2084202EB4410FEF7A8
:10196000A9FCE9B242F2085202EB4410FEF7A2FCD5
:1019700000BFD1E743483A20256420556E65787052
:10198000656374656431206C656E67746820300D22
:101990000A00000010B5044604222146900100F020
:1019A00007FE10BD10B50446062221464FF4106014
:1019B00000F0FEFD10BD10B50446042221464FF490
:1019C000706000F0F5FD10BD10B5044604222146FC
:1019D0004FF4A06000F0ECFD10BD70B504460D465C
:1019E0004FF4027101EB44102946FEF763FC70BD11
:1019F00008B52A482A490A680260898881802949ED
:101A00000968C0F8061028490968C0F80A10274973
:101A10000968C0F80E1026490968C0F81210254858
:101A2000007810B924A0FEF7CFFC01201B4988766E
:101A300000211A48C1760A30FFF7C6FF17480E305A
:101A4000FFF7A8FF1548801DFFF7B5FF1548FFF702
:101A500001FB1448C07800901248837842780178DE
:101A60001DA0FEF7B1FC1048FFF7FDFA0E48C07844
:101A700000900D488378427801781FA0FEF7A4FCFF
:101A80000A48FFF7D7FA0948C078009007488378DA
:101A90004278017820A0FEF797FC08BD626700201D
:101AA000FC02002002030020060300200A0300209D
:101AB0000E0300201A03002020CAB9D3C3B6A8D24F
:101AC000E5B5C44950D0C5CFA2C5E4D6C357353516
:101AD00030300D0A000000002057353530302049E5
:101AE00050B5D8D6B72020203A2025642E25642E64
:101AF00025642E25640D0A0020573535303020D757
:101B0000D3CDF8D1DAC2EB203A2025642E25642EFD
:101B100025642E25640D0A0020573535303020CD40
:101B2000F8B9D820202020203A2025642E25642EC4
:101B300025642E25640D0A0010B5074807490A6878
:101B4000026089888180FFF72DFF054803490A68F4
:101B500002608988818010BD62670020FC0200203D
:101B60002C6300202DE9F04104460D4616469846A8
:101B700005F00F0001280FD005F00F0002280BD050
:101B800005F00F00032807D005F00F00042803D04C
:101B900005F00F00052841D12046FEF709FF45EA70
:101BA0000801082202EB4410FEF784FB76B1310AEB
:101BB0004FF4816202EB4410FEF77CFBF1B24FF46C
:101BC000A16202EB4410FEF775FB15E01548008892
:101BD000401C144908800A461288110A4FF4816299
:101BE00002EB4410FEF766FB0E4A11784FF4A16237
:101BF00002EB4410FEF75EFB4FF4847101EB4410DE
:101C00000121FEF757FB00BF4FF4847101EB441034
:101C1000FEF731FB0028F7D1012700E00027384606
:101C2000BDE8F081120300202DE9F04105460E4683
:101C30000027B846002433E0295D41F6087202EB24
:101C40004410FEF737FB315D41F6086202EB4410A9
:101C5000FEF730FB0020144921F81400134921F845
:101C60001400B7F5804F07DC285D4FF6FF7101EADD
:101C700080200D4921F81400B8F5804F07DC305D55
:101C80004FF6FF7101EA8020084921F81400064848
:101C900030F814000744054830F814008044641CF0
:101CA000082CC9DBBDE8F0814267002052670020A4
:101CB000016841F04001016070470146C86880B288
:101CC0007047C160704702469068084008B1012023
:101CD00070470020FCE702460020106800F44150E5
:101CE0000B6818434B6818438B681843CB6818433C
:101CF0000B6918434B6918438B6918431060D3690B
:101D000023F40063D361704700200021394A126830
:101D100042F00102374B1A6000BF401C354A12687E
:101D200002F0020111B9B0F5A06FF6D1314A126884
:101D300002F002020AB900BFFEE72E4AD26942F061
:101D400080522C4BDA612C4A126842F440422A4BF2
:101D50001A60284A5268274B5A601A4652685A60DD
:101D60001A46526842F480625A601A465268234BFF
:101D70001A40204B5A601A465268214B1A431D4B99
:101D80005A601A46126842F080721A6000BF194AFF
:101D9000126802F00072002AF9D0174A126842F461
:101DA0008032154B1A6000BF134A526802F4803229
:101DB000002AF9D0104A126842F400320E4B1A6021
:101DC00000BF0D4A526802F40032002AF9D0094AD5
:101DD000526822F00302074B5A601A46526842F0DA
:101DE00002025A6000BF034A526802F00802002A49
:101DF000F9D070470010024000700040FFFFC3B7E9
:101E00000000340810B5FFF77FFF10BD042808D18B
:101E10004FF0E021096941F004014FF0E022116127
:101E200007E04FF0E021096921F004014FF0E022C2
:101E30001161704710B50420FFF7E8FF0A4890EDE4
:101E4000000AB8EE400ADFED090A80EE201A0848C1
:101E500080ED001A90ED000ADFED060A20EE200A60
:101E6000054880ED000A10BD00000020C0E1E44CF0
:101E70000801002000007A440C01002038B5044617
:101E80001348C470FFF77AF9FFF7ACFCFFF754FE74
:101E9000FFF7AEFD0F491048FFF7C6FE0FA0FEF793
:101EA00093FA1B48C07800901948837842780178EB
:101EB00018A0FEF789FA1D4801881DA0FEF784FAD4
:101EC0001FA0FEF781FA2DA0FEF77EFA38BD0000B4
:101ED00002030020F1020020E902002020B5E7C43F
:101EE000D4D7F7CEAA544350B7FECEF1B6CB2CC808
:101EF000C35735353030D7F7CEAABFCDBBA7B6CB49
:101F000020544350C8A5C1ACBDD3200D0A00000029
:101F10001403002020B7FECEF1C6F749503A2564DD
:101F20002E25642E25642E25640D0A00180300203A
:101F300020BCE0CCFDB6CBBFDA3A2564200D0A0008
:101F400020C1ACBDD3B3C9B9A6BAF3A3ACB7FECE1A
:101F5000F1C6F7B7A2CBCDCAFDBEDDB8F85735350F
:101F60003030A3AC5735353030BDABB7B5BBD8B684
:101F7000D4D3A6CAFDBEDD200D0A000020D3A6D30F
:101F8000C3B3CCD0F2D6B4D0D0D6D0A1ADA1AD0DD4
:101F90000A000000016841F0800101607047000004
:101FA00010B531B101293FD002297DD003297CD160
:101FB000BFE0036A23F001030362836923F0030394
:101FC0008361036A148823430362036A23F00203D4
:101FD0000362036A9488234303626A4B984202D0E7
:101FE000694B98421FD1036A23F004030362036A1A
:101FF000548823430362036A23F008030362036ADD
:10200000D48823430362436823F4807343604368A6
:10201000148923434360436823F400734360436897
:10202000548923434360ABE0036A23F01003036247
:10203000836923F440738361036A148843EA0413B9
:102040000362036A23F020030362036A948843EA6D
:10205000041303624B4B984202D04B4B984226D15B
:10206000036A23F040030362036A548843EA0413BB
:102070000362036A23F080030362036AD48843EA9D
:1020800004130362436823F4806343604368148944
:1020900043EA84034360436823F400634360436876
:1020A000548943EA840301E002E068E0436067E0AA
:1020B000036A23F480730362C36923F00303C361DB
:1020C000036A148843EA04230362036A23F4007357
:1020D0000362036A948843EA04230362294B98420B
:1020E00002D0294B984223D1036A23F48063036210
:1020F000036A548843EA04230362036A23F40063F7
:102100000362036AD48843EA04230362436823F426
:10211000805343604368148943EA0413436043686F
:1021200023F4005343604368548943EA0413436033
:1021300026E0036A23F480530362C36923F44073E7
:10214000C361036A148843EA04330362036A23F415
:1021500000530362036A948843EA04330362094B21
:10216000984202D0084B984208D1436823F4804338
:1021700043604368148943EA8413436000E000BF6E
:1021800000BF10BD002C01400034014031B10129D5
:102190000CD0022913D0032922D118E0836923F03F
:1021A000700383618369134383611AE0836923F4B5
:1021B000E0438361836943EA0223836111E0C369D9
:1021C00023F07003C361C3691343C36109E0C369AA
:1021D00023F4E043C361C36943EA0223C36100E01F
:1021E00000BF00BF704731B1012906D0022906D0D7
:1021F000032908D105E0426306E0826304E0C2637C
:1022000002E0026400E000BF00BF704731B1012965
:102210000CD0022913D0032922D118E0836923F0BE
:10222000080383618369134383611AE0836923F49C
:1022300000638361836943EA0223836111E0C36918
:1022400023F00803C361C3691343C36109E0C36991
:1022500023F40063C361C36943EA0223C36100E05E
:1022600000BF00BF70470021018041808180C18094
:10227000018141817047000000B587B07720ADF83B
:1022800000000020ADF80200ADF8040064200290C8
:102290000020ADF806008DF80C006946154800F0E6
:1022A00031F804A8FFF7DFFF0020ADF8140001208B
:1022B000ADF8100004AA00210E48FFF771FE1E229F
:1022C00000210C48FFF78FFF602200210948FFF72B
:1022D0005DFF002211460748FFF798FF01210548DE
:1022E00000F05CF80348FFF755FE024800F004F8E0
:1022F00007B000BD002C0140016841F00101016000
:10230000704700000A8882621D4A90420ED0B0F1E8
:10231000804F0BD01B4A904208D01B4A904205D0F8
:102320001A4A904202D01A4A90420BD1026822F017
:102330007002026002684B881A43026002688B8850
:102340001A4302608A68C262124A90420AD0124A54
:10235000904207D0026822F4407202600268CB8883
:102360001A430260064A904202D0094A904201D1C3
:102370000A7B0263426942F0010242617047000039
:10238000002C01400004004000080040000C004008
:10239000003401400010004000140040012904D125
:1023A000426C42F40042426403E0426C22F4004278
:1023B000426470472DE9F04704460D460027B846B1
:1023C000B94600261D49601A8C421CD006DC1C4808
:1023D000204470B1B0F5806F1FD10FE0B0F5806F71
:1023E00016D0B0F56C4F18D10320FFF71FF9074640
:1023F00014E00220FFF71AF907460FE00220FFF76A
:1024000015F907460AE00220FFF710F9074605E034
:102410000220FFF70BF9074600E000BF00BF07EB03
:102420005500B0FBF5F64FF6F07006EA000806F02E
:102430000F0948EA0900A060BDE8F087004C0040A1
:1024400000BCFFBFC1F308024260704710B50446EC
:102450002049601A8C4228D006DC1F48204490B1E5
:10246000B0F5806F33D117E0B0F5806F26D0B0F5AE
:102470006C4F2CD140F20E30FFF7A4F940F20E3031
:10248000FFF790F924E040F21140FFF79BF940F28A
:102490001140FFF787F91BE040F21240FFF792F975
:1024A00040F21240FFF77EF912E040F21340FFF7CE
:1024B00089F940F21340FFF775F909E040F2144042
:1024C000FFF780F940F21440FFF76CF900E000BF1D
:1024D00000BF10BD004C004000BCFFBFC16841F40C
:1024E0000051C160704710B5024602EB91100068C0
:1024F00001F01F040123A340184008B1012010BDC2
:102500000020FCE70A460021C16821F004011143C4
:10251000C16070470A460021C16821F008011143DB
:10252000C160704710B5044624B940210548FEF744
:1025300021FE05E0012C03D140210248FEF71CFEDC
:1025400010BD0000000C01402DE9F04104460F468B
:102550001546002615B910A0FDF736FFFEF716FF49
:10256000C4F30740FDF7A0FEC4F30720FDF79CFE6F
:1025700004F0F800FDF798FE002605E00020FDF7C6
:1025800093FEB855701C86B2AE42F7DBFEF703FF30
:102590002846BDE8F0810000556E6578706563746B
:1025A000656432206C656E67746820300D0A000027
:1025B0002DE9F04104460F461546002615B910A036
:1025C000FDF702FFFEF7E2FEC4F30740FDF76CFEE5
:1025D000C4F30720FDF768FE04F0F801091DC8B236
:1025E000FDF762FE002604E0B85DFDF75DFE701C9D
:1025F00086B2AE42F8DBFEF7CEFE2846BDE8F0819B
:10260000556E657870656374656432206C656E67BD
:10261000746820300D0A00003826000800000020F1
:102620002C030000B8010008E02600082C0300205D
:1026300064680000F8030008100A000E2707010074
:1026400000000204120404120804121004122004F0
:1026500012400412801452061C2124210112071476
:10266000120514120314520134120E04120C041237
:102670000A04120944120F14120D14220B31000423
:102680001B08014004120C04921004D11052409413
:102690005204705280A05208B8D20120D202200108
:1026A0002A0101BEEC051ECC258FA70E06F1000500
:1026B00020014002063809C0045210FE8610ED10B9
:1026C0000E08DC111111C0A80158FFFFFF0008130C
:1026D0000172011388131208041066881339000070
:0400000508000131BD
:00000001FF
