:020000040800F2
:10000000883D00204501000859030008E10200086E
:1000100055030008170200085D04000800000000F6
:100020000000000000000000000000009503000830
:1000300071020008000000005B030008970300083D
:100040005F0100085F0100085F0100085F01000810
:100050005F0100085F0100085F0100085F01000800
:100060005F0100085F0100085F0100081D02000831
:100070005F0100085F0100085F0100085F010008E0
:100080005F0100085F0100085F0100085F010008D0
:100090005F0100085F0100085F0100085F010008C0
:1000A0005F0100085F0100085F0100085F010008B0
:1000B0001D0400085F010008410400085F010008FA
:1000C0005F0100085F0100085F0100085F01000890
:1000D0005F0100085F0100085F0100085F01000880
:1000E0005F0100085F0100085F0100085F01000870
:1000F0005F0100085F0100085F0100085F01000860
:100100005F0100085F0100085F0100085F0100084F
:100110005F0100085F0100085F0100085F0100083F
:100120005F0100085F0100085F0100085F0100082F
:10013000DFF80CD000F02EF8004800473914000812
:10014000883D00200648804706480047FEE7FEE756
:10015000FEE7FEE7FEE7FEE7FEE7FEE7FEE7FEE777
:10016000A10300083101000830B50B46014600200C
:100170002022012409E021FA02F59D4205D303FA69
:1001800002F5491B04FA02F52844151EA2F10102EA
:10019000F1DC30BD064C074D06E0E06840F001039D
:1001A00094E8070098471034AC42F6D3FFF7C4FF39
:1001B000C8230008E823000870B58D1810F8014B1B
:1001C00014F0030201D110F8012B231106D110F80D
:1001D000013B03E010F8016B01F8016B521EF9D1ED
:1001E000ABB110F8012B04F00C048A1A0C2C03D0CC
:1001F000A2EB84129B1C08E010F8014BA2EB042236
:10020000F8E712F8014B01F8014B5B1EF9D5A94242
:10021000D4D3002070BD00BFFEE7000010B504225B
:100220000021114800F036FE58B1042200210E488A
:1002300000F028FE0D480078A0B901200B49087095
:1002400010E002220021084800F024FE50B10222F2
:100250000021054800F016FE0448007810B902207D
:100260000249087010BD000000000240E0020020BA
:10027000704700001FB540F2027001F07DFA164889
:1002800001F09CFE0020ADF80000ADF80200ADF8D2
:100290000400124800684FF47A71B0FBF1F0B0FB33
:1002A000F1F0401E02900020ADF806008DF80C0021
:1002B0006946094801F0F6FE0121074801F03EFFBA
:1002C000002211461E2001F03FF90348006820F08B
:1002D0000100014908601FBD000800400000002027
:1002E00000BFFEE770B50446002501F07DF8C4F3B9
:1002F000074000F010F8C4F3072000F00CF804F0F9
:10030000F80000F008F8002000F005F8054601F0BC
:1003100070F8284670BD10B50446204600F01EF85F
:1003200010BD70B504460D4601F05EF8C4F30740F9
:10033000FFF7F1FFC4F30720FFF7EDFF04F0F8012A
:10034000091DC8B2FFF7E7FF2846FFF7E4FF01F0F9
:1003500050F870BD00BFFEE77047704710B5044607
:1003600000BF02210A4801F0A8FC0028F9D021466C
:10037000074801F0A0FC00BF0121054801F09DFCE9
:100380000028F9D0024801F092FCC0B210BD000074
:1003900000300140704710B500F0DAFB10BD0000DE
:1003A00008B51B48006840F47000194908601948F6
:1003B000006840F00100174908600846406840F0B6
:1003C000800048600020009002E00098401C0090EF
:1003D00044F6206100988842F7D30E48406820F028
:1003E00003000C494860084600680B490840094969
:1003F00008604FF41F0088600846006820F48020E1
:10040000086000204860C86201F0F6FC08BD0000EA
:1004100088ED00E000100240FFFFF6FE10B501215C
:10042000880701F092FE012807D10121800701F021
:1004300089FE0121014800F087FA10BD0024014027
:100440006FF001000349086003480088401C02491E
:1004500008807047100800401C03002000BFFEE722
:100460000FB4054B10B503A9044A029800F02CF80C
:1004700010BC5DF814FB0000DD0F00082003002015
:1004800010B5002804DB0A07130E054A135406E0D2
:100490000A07140E034A00F00F031B1FD45410BDAB
:1004A00000E400E018ED00E002E008C8121F08C1F7
:1004B000002AFAD170477047002001E001C1121FE5
:1004C000002AFBD1704700002DE9FF4F8BB09A4600
:1004D0000F460546002606E025280BD052460D990A
:1004E00090476D1C761C28780028F5D10FB0304657
:1004F000BDE8F08F0024A0460122604900E00443DB
:1005000015F8013F203B02FA03F00842F7D12878A2
:100510002E2817D115F8010F44F004042A280ED014
:100520006FF02F022878A0F1300109290AD808EBD2
:10053000880102EB410100EB01086D1CF2E757F85E
:10054000048B6D1C287869283ED006DC0028CDD0AD
:1005500063280BD0642804D136E0732810D07528A6
:100560004BD052460D999047761C85E017F8040B46
:100570008DF8000000208DF80100E946012003E01D
:1005800057F8049B4FF0FF3061074FF0000401D48F
:100590000AE0641C44450DDA8442FADB19F80410C1
:1005A0000029F6D106E0641C8442FCDB19F8041033
:1005B0000029F8D1264404E019F8010B52460D99A0
:1005C0009047641EF8D257E001CF4FF00A0B002885
:1005D00002DA40422D2102E0210504D52B218DF8BD
:1005E0002410012103E0E10705D02021F7E70DF1F8
:1005F000200908910CE00021F9E701CF4FF00A0B28
:10060000F9E75946FFF7B0FD01F1300209F8012D75
:100610000028F6D1ADEB090000F1200B600701D4F2
:100620004FF00108D84502DDA8EB0B0000E00020E8
:100630008046002406E009A85246005D0D999047C7
:10064000641C761C08988442F5DB04E03020524696
:100650000D999047761CB8F10001A8F10108F5DC6E
:1006600005E019F8010B52460D999047761CBBF135
:100670000001ABF1010BF4DC6D1C34E7092801002B
:10068000816841F00801816000BF816801F00801C4
:100690000029FAD1816841F00401816000BF8168BE
:1006A00001F004010029FAD1704730B5012902D0C8
:1006B00002291AD10CE0C36A23F47003C362C36A2F
:1006C000541E4FF4700505EA04542343C3620DE041
:1006D000836B23F440138363836B541E4FF44015E4
:1006E00005EA04542343836300E000BF00BF30BD2C
:1006F00010B54FF4C02000F0B1F800211C4800F004
:100700003BF8012211021A4800F02DF910220121B4
:100710001748FFF7CAFF002409E0164810F8242004
:1007200003232146124800F0B9F8601CC4B2102C13
:10073000F3DB4FF4602201210D4800F055F801224F
:1007400011460B4800F031F8094800F020F801206C
:1007500000F0F4F9064800F01FF8012000F0EEF96F
:100760000348FFF78DFF0121014800F0EDF810BDAF
:10077000002401402002002021B1826842F400627E
:10078000826003E0826822F40062826070478168C0
:1007900041F4807181607047816801F0010119B9ED
:1007A000816841F001018160704772B101F001037D
:1007B0001BB1836843F48013836001F0020393B19B
:1007C000836843F4004383600DE001F001031BB133
:1007D000836823F48013836001F002031BB18368F4
:1007E00023F4004383607047012902D0022910D10D
:1007F00007E0836823F46023836083681343836086
:1008000008E0836823F4E0438360836813438360D4
:1008100000E000BF00BF704710B500240BE007499F
:1008200051F82430064951F824000422002100F038
:100830002DFD601CC4B2102CF1DB10BDA002002005
:100840006002002010B500F017F8FFF7E5FF01F097
:100850008BFB00F0E9F9FFF74BFF10BD0549096874
:1008600021F47021034A11601146096801431160A7
:10087000704700000424014010B540F2026000F00F
:100880007BFF4FF4A06000F077FF40F20B6000F0B8
:1008900073FF40F2096000F06FFF10BDF0B51D4618
:1008A00006290CD2436B01EB81071F26BE40B343E0
:1008B00001EB810602FA06F63343436322E00C297A
:1008C0000ED2036B8E1F06EB86071F26BE40B34376
:1008D0008E1F06EB860602FA06F63343036311E029
:1008E00010290FD2C36AA1F10C0606EB86071F265A
:1008F000BE40B343A1F10C0606EB860602FA06F6EB
:100900003343C3620A2A0CD2046902EB420707266A
:10091000BE40B44302EB420605FA06F634430461D6
:1009200011E0122A0FD2C468A2F10A0606EB4607AC
:100930000726BE40B443A2F10A0606EB460605FAB6
:1009400006F63443C460F0BD01F001021AB18268BA
:1009500042F48002826001F002021AB1826842F41D
:10096000001282607047AAB101F480731BB1436822
:1009700043F48073436001F480631BB1436843F424
:100980008063436001F00203CBB1836843F002034C
:10099000836014E001F480731BB1436823F4807317
:1009A000436001F480631BB1436823F480634360B8
:1009B00001F002031BB1836823F0020383607047D8
:1009C00010B54FF4C06000F0D7FE40F2056000F0B3
:1009D000D3FE00200B4908700EE00B480949097846
:1009E00050F8213003224821084800F04FFC054808
:1009F0000078401C03490870024800780828ECDBA6
:100A000010BD0000E8010020C801002000140140D2
:100A100010B504464FF4847101EB44101021FFF728
:100A200080FC00BF4FF4847101EB4410FFF75AFCC7
:100A30000028F7D14FF4027101EB4410FF21FFF7BA
:100A400070FC10BD2DE9F04105460C461646207895
:100A5000FF2808D16078FF2805D1A078FF2802D1AF
:100A6000E078FF2808D0207828B9607818B9A078F5
:100A700008B9E07800B10EB900275CE001272178C1
:100A800040F6084202EB4510FFF74BFC617840F658
:100A9000085202EB4510FFF744FCA17840F60862CB
:100AA00002EB4510FFF73DFCE17840F6087202EBDF
:100AB0004510FFF736FC310A41F2080202EB4510FF
:100AC000FFF72FFCF1B241F2081202EB4510FFF7DD
:100AD00028FC4FF4847101EB45100421FFF721FC41
:100AE00000BF4FF4847101EB4510FFF7FBFB0028BA
:100AF000F7D117E04FF4427101EB4510FFF7F2FB1D
:100B0000172800D116E0284600F0E4FA00F00800AB
:100B100040B14FF4027101EB45100821FFF701FCD1
:100B2000002707E04FF4427101EB4510FFF7DAFBB5
:100B30001528DFD100BF3846BDE8F08103490860C1
:100B400000BF024909680029FBD170470401002059
:100B50000448006820B103480068401E014908604D
:100B6000704700000401002000B5034603E04FF485
:100B70007A7000F007F8181EA3F101018BB2F6D1CC
:100B800000BD000000210D4A11600C49243909689C
:100B900041F00101094A243A11600021084A1180FC
:100BA00000BF074909888142FBDB044924390968F1
:100BB00021F00101014A243A1160704724080040E5
:100BC0001C03002070B505460C462146284600F05F
:100BD000BBF908B900BFFEE704EB8400810005F112
:100BE0000800405840F0010104EB8400820005F148
:100BF0000800815070BD70B505460C462146284658
:100C000000F0A2F908B900BFFEE704EB8400810000
:100C100005F10800405840F0200104EB84008200F8
:100C200005F10800815070BD00B587B000211E4855
:100C300000F040F81D48009000208DF818001C4876
:100C4000029001208DF8190040020190800003906D
:100C500000208DF81A004FF4006004904FF44050CB
:100C600005906A460021104800F05CF800210E480B
:100C7000FFF7C1FF00210C4800F04DF902220021CE
:100C8000094800F0E6F804220021074800F0E1F8E6
:100C900000210548FFF796FF002202210B2000F0FB
:100CA00053FC07B000BD0000000002404C2401408E
:100CB0002403002070B504460D462946204600F066
:100CC00043F908B900BFFEE705EB8500810004F198
:100CD0000800405820F0010105EB8500820004F176
:100CE00008008150002105EB8500820004F1080016
:100CF000815005EB8500820004F10C00815005EB6A
:100D00008500820004F11000815005EB850082000F
:100D100004F1140081506068AA000F21914008433B
:100D2000606070BD2DE9F04104460D461646294627
:100D3000204600F009F908B900BFFEE705EB850081
:100D4000820004F110003168815005EB85008200BB
:100D500004F11400B1688150308A81B205EB85003E
:100D6000820004F10C00815005EB8500810004F144
:100D70000800475827F47C57F16870680843716988
:100D80000843074305EB8500810004F10800475044
:100D9000307E01280ED105EB8500810004F10800AA
:100DA000405840F0400105EB8500820004F1080046
:100DB00081500DE005EB8500810004F108004058EA
:100DC00020F0400105EB8500820004F1080081500D
:100DD000707E01280ED105EB8500810004F108002A
:100DE000405840F0800105EB8500820004F10800C6
:100DF00081500DE005EB8500810004F108004058AA
:100E000020F0800105EB8500820004F1080081508C
:100E1000B07E70B905EB8500810004F108004058F0
:100E200020F0100105EB8500820004F108008150DC
:100E30000DE005EB8500810004F10800405840F00A
:100E4000100105EB8500820004F108008150BDE827
:100E5000F08170B504460D4616462946204600F03E
:100E600073F808B900BFFEE705EB8500810004F1C7
:100E700008004058304305EB85018A0004F1080161
:100E8000885070BD10B543688C0002FA04F4234307
:100E9000436010BD70B5034600BF00BF022A04D0F6
:100EA000042A11D0082A2DD11DE018688E0002FAFC
:100EB00006F600EA060501EB8100860003F1080052
:100EC000805900F002041FE018688E0002FA06F64E
:100ED00000EA060501EB8100860003F10800805955
:100EE00000F0040410E018688E0002FA06F600EA2A
:100EF000060501EB8100860003F10800805900F02F
:100F0000080401E000BFFEE700BF15B10CB10120ED
:100F100070BD0020FCE770B505460C46214628460A
:100F200000F012F808B900BFFEE704EB840081006E
:100F300005F10800405820F4804104EB8400820051
:100F400005F10800815070BD02460120034B9A4212
:100F500002D1042900DD0020704700000004024097
:100F600070B505460C46012000F0BDF830B11328DD
:100F70000CD0172811D01C2827D122E02023144898
:100F800002880121084600F0E7FD1EE011480288B2
:100F900011490120FFF756FD17E0012000F09AF8F3
:100FA00000F0010018B10121084600F010FD002CEE
:100FB00006DD00202855A2B22946012000F020FCC1
:100FC00003E00120FFF724FD00BF00BF70BD00005B
:100FD0000A030020100300200C03002070B5044613
:100FE0000D46E1B2054801F005F900BF07210348AD
:100FF00001F051F90028F9D0204670BD00380140B9
:1010000070B5054600241C48854200D101E000BFB0
:10101000FEE71A4931F8140000F0AEFB184931F828
:10102000140000F0A9FB174951F82430164951F873
:1010300024000322182100F029F9144951F8243022
:10104000114951F824000322042100F01FF9284619
:1010500001F0D4F84FF4E131284601F083F804217F
:10106000284601F027F90821284601F02BF92846E7
:1010700001F00CF970BD000000380140FC010020B7
:10108000EC010020F0010020F8010020F401002014
:1010900010B5044604222146900101F02DF910BD3F
:1010A0000146024830F81100704700003A3900202C
:1010B00010B50446042221464FF4706001F01CF97B
:1010C00010BD10B50446042221464FF4A06001F083
:1010D00013F910BD10B504464FF4027101EB441032
:1010E000FFF700F910BD10B504464FF4427101EB53
:1010F0004410FFF7F7F810BD70B504460025002630
:1011000000BF42F2080101EB4410FFF7EBF806467E
:1011100042F2081101EB4410FFF7E4F800EB06205F
:1011200086B27EB142F2080101EB4410FFF7DAF813
:10113000054642F2081101EB4410FFF7D3F800EB2B
:10114000052085B2B542DCD1284670BD1CB5002013
:101150001C49087010E01C481A4A127850F82210F6
:101160001A4800F0F1F8174A12780DF802001548F5
:101170000078401C13490870124800780828EADB00
:101180009DF800009DF8011040EA41009DF8021012
:1011900040EA81009DF8031040EAC1009DF8041068
:1011A00040EA01109DF8051040EA41109DF8061034
:1011B00040EA81109DF8071040EAC110C4B22046F1
:1011C0001CBD0000E8010020C801002000140140FF
:1011D000416170470161704700B587B040F203601C
:1011E00000F0CAFA40F2036000F0C6FA40F2036071
:1011F00000F0C2FA40F2036000F0BEFA40F20C6068
:1012000000F0BAFA4FF4C06000F0B6FA01211C48B1
:1012100000F0A2F80121084600F09EF838230322CE
:101220001821184800F032F84023032210211548F5
:1012300000F02CF8002001904FF482700090002004
:10124000029005904FF4007003901020069000204B
:10125000049069460C4800F038FD0B4800F022FD70
:101260004FF4807303221021064800F00FF84FF46A
:10127000807303224821034800F008F807B000BD3E
:1012800000023000000C014000300140F0B504467F
:1012900016460025002201F00F0501F0100747B1A6
:1012A000042E05D145F00305E76B1F43E76300E01B
:1012B000354300201EE0012787401F40C7B1226848
:1012C0004FEA800C0F2707FA0CF7BA43870005FA9C
:1012D00007F73A43282904D1012787401F40676157
:1012E00005E0482903D1012787401F40276122607C
:1012F000471CB8B20828DED3082022E00127874027
:101300001F40E7B16268A0F108074FEA870C0F277A
:1013100007FA0CF7BA43A0F10807BF0005FA07F770
:101320003A43282904D1012787401F40676105E01F
:10133000482903D1012787401F4027616260471C6D
:10134000B8B21028DAD3F0BD02469068084008B160
:10135000012070470020FCE7F0B50A460023002476
:101360000021002500F00046B6F1004F02D11D4ECD
:10137000F16901E01B4E7168C0F3034583B200F4CC
:101380004016B6F5401F08D121F0E061154E766891
:1013900026F0E066134F7E6012E000F48016B6F58A
:1013A000801F06D1032606FA05F4A14341F0E0614F
:1013B00006E0460D360103FA06F6B14341F0E0615E
:1013C00022B1460D360103FA06F6314300F000461D
:1013D000B6F1004F02D1034EF16101E0014E7160A0
:1013E000F0BD00000000014010B5002000F072FFC9
:1013F00010BD10B5012000F06DFF10BD10B540F21A
:10140000046000F0B9F94FF4C06000F0B5F94FF492
:101410000053032210210248FFF738FF10BD0000DF
:101420000010014010B54FF400510248FFF7D0FE04
:1014300010BD000000100140FEF7B2FF4FF44070F5
:1014400000F0E4F800F0DCFCFEF714FFFFF7D6FF35
:10145000FFF7B6FAFFF7F6F93148FFF7D1FDFFF7CE
:10146000E1FFFFF773FE2F490880084601882EA090
:10147000FEF7F6FF2B49087800F0EAFC4FE02F4812
:101480000078012822D1002414E02D4800EB8405C7
:101490002978A000C01C2B4A11546978A000801C38
:1014A0001154A978A000401C1154E97802F82410C6
:1014B000601C84B2B4F5806FE7DB4FF480512148A3
:1014C000FFF74EFD00201D49087028E01B480078FA
:1014D000022824D1002416E0194904F5806001EBAC
:1014E00080052978A000C01C164A11546978A00014
:1014F000801C1154A978A000401C1154E97802F80E
:101500002410601C84B2B4F5806FE5DB4FF4805189
:101510000C48FFF725FD00200849087000BFAEE722
:1015200000380140E4000020416464726573732058
:1015300069733A2564200A0D00000000E0020020D3
:1015400024030020242300202DE9F04103460D460A
:10155000164600240027A0462A48006800F4E060F0
:10156000B0F5E06F03D100BF4FF0040830E025482C
:10157000006800F4E060B0F5C06F03D101274FF0C0
:10158000030825E01F48006800F4E060B0F5A06F94
:1015900002D10227B8461BE01A48006800F4E06058
:1015A000B0F5806F03D103274FF0010810E0154814
:1015B000006800F4E060B0F5407F03D104274FF0ED
:1015C000000805E04FF4A06000F020F80227B846BC
:1015D000C7F1040005FA00F4C8F104010F20C84067
:1015E0003040044324010848C45403F01F01012083
:1015F00088405911890001F1E021C1F80001BDE8DE
:10160000F08100000CED00E000E400E0024901433D
:10161000024A1160704700000000FA050CED00E07E
:101620002DE9F04F8CB0074600200A904AA090E8C0
:10163000004CC068CDE905BECDF810A007900FF2B0
:101640001C1ADAE9000ACDE9020A0FF2101ADAE9E7
:10165000000ACDE9000A44484068C0F381000B90BD
:101660000B9820B1012804D002283FD103E03F4A63
:101670003EE03E4A3CE03C48406800F4803CBCF51B
:10168000803F12D13848C06A00F08048B8F1000F9E
:1016900001D1364B00E0364B3348406800F4003946
:1016A000B9F5003F02D15B0800E0324B2E4840689C
:1016B000C0F383412C48406800F0006008B141F05D
:1016C00010012948406800F0804008B141F0200135
:1016D0000F2901D2891C06E00F2903D33E2901D826
:1016E000491C00E03F2103FB01F201E01F4A00BF5B
:1016F00000BF1D484068C0F3031504A8465D22FAE8
:1017000006F419484068C0F3022502A8465D24FA91
:1017100006F0099014484068C0F3C2251DF8056022
:1017200024FA06F0089037B1012F06D0022F06D018
:10173000032F0AD106E00A9208E00A9406E009980D
:101740000A9003E008980A9000E000BF00BF0A98E2
:101750000CB0BDE8F08F00000000000000000000A9
:1017600001020304060708090010024000127A0073
:10177000006CDC0200093D00064A02EB901109688A
:1017800000F01F0301229A401143024B03EB901219
:101790001160704700100240064A02EB9011096880
:1017A00000F01F0301229A409143024B03EB901279
:1017B0001160704700100240064A02EB9011096860
:1017C00000F01F0301229A401143024B03EB9012D9
:1017D000116070470010024010B54FF48071074847
:1017E000FFF7F6FC6420FFF7CDF94FF48071034852
:1017F000FFF7F0FC0120FFF7B7F910BD000C014026
:101800002DE9F04704468846164600250027A946DC
:101810002046FFF745FC82462046FFF741FCB042D8
:1018200004DA2046FFF73CFC074600E0374600BFDD
:101830002046FFF761FC81464FF4427101EB4410F2
:10184000FEF750FD0546172D03D01C2D01D00027B3
:1018500001E0B945ECDB00BF3A464146204600F0C6
:1018600049F84FF4847101EB44102021FEF759FD33
:1018700000BF4FF4847101EB4410FEF733FD0028E4
:10188000F7D113E04FF4427101EB4410FEF72AFD4B
:101890000546172D0AD01C2D08D011A0FEF7E0FD3B
:1018A0002046FFF7B5F80020BDE8F0874FF402713D
:1018B00001EB4410FEF716FD00F010001028E1D1F6
:1018C0004FF4027101EB44101021FEF72AFD4FF492
:1018D000027101EB44101021FEF723FD3846E3E7C7
:1018E00053454E445F4F4B2050726F626C656D21C3
:1018F000210D0A002DE9F04104460F461646002549
:10190000A8462EB9214618A0FEF7AAFDBDE8F08131
:1019100042F2084101EB4410FEF7E4FC054642F2B6
:10192000085101EB4410FEF7DDFC00EB052085B209
:10193000280200EB441000F11008324639464046B8
:1019400000F00EFDA81985B2290A42F2084202EB06
:101950004410FEF7E6FCE9B242F2085202EB4410F2
:10196000FEF7DFFC00BFD1E743483A20256420554D
:101970006E657870656374656431206C656E67743C
:101980006820300D0A00000010B5044604222146EC
:10199000900100F0E5FC10BD10B50446062221467A
:1019A0004FF4106000F0DCFC10BD10B504460422BA
:1019B00021464FF4706000F0D3FC10BD10B5044612
:1019C000042221464FF4A06000F0CAFC10BD70B59F
:1019D00004460D464FF4027101EB44102946FEF710
:1019E000A0FC70BD08B52A482A490A6802608988A7
:1019F000818029490968C0F8061028490968C0F89B
:101A00000A1027490968C0F80E1026490968C0F86D
:101A100012102548007810B924A0FEF721FD0120FE
:101A20001B49887600211A48C1760A30FFF7C6FFA5
:101A300017480E30FFF7A8FF1548801DFFF7B5FFC8
:101A40001548FFF735FB1448C0780090124883789A
:101A5000427801781DA0FEF703FD1048FFF731FB27
:101A60000E48C07800900D488378427801781FA016
:101A7000FEF7F6FC0A48FFF70BFB0948C078009018
:101A8000074883784278017820A0FEF7E9FC08BD7A
:101A90005A390020F4020020FA020020FE02002041
:101AA00002030020060300201203002020CAB9D33D
:101AB000C3B6A8D2E5B5C44950D0C5CFA2C5E4D6B7
:101AC000C357353530300D0A00000000205735353A
:101AD0003030204950B5D8D6B72020203A20256490
:101AE0002E25642E25642E25640D0A0020573535D9
:101AF000303020D7D3CDF8D1DAC2EB203A2025649C
:101B00002E25642E25642E25640D0A0020573535B8
:101B1000303020CDF8B9D820202020203A2025646C
:101B20002E25642E25642E25640D0A0010B5074865
:101B300007490A68026089888180FFF72DFF054800
:101B400003490A6802608988818010BD5A390020E3
:101B5000F4020020243500202DE9F04104460D4612
:101B60001646984605F00F0001280FD005F00F002B
:101B700002280BD005F00F00032807D005F00F0056
:101B8000042803D005F00F00052841D12046FEF7B8
:101B90003FFF45EA0801082202EB4410FEF7C1FBB3
:101BA00076B1310A4FF4816202EB4410FEF7B9FBC3
:101BB000F1B24FF4A16202EB4410FEF7B2FB15E064
:101BC00015480088401C144908800A461288110AEA
:101BD0004FF4816202EB4410FEF7A3FB0E4A11782A
:101BE0004FF4A16202EB4410FEF79BFB4FF48471AB
:101BF00001EB44100121FEF794FB00BF4FF4847108
:101C000001EB4410FEF76EFB0028F7D1012700E03E
:101C100000273846BDE8F0810A0300202DE9F04195
:101C200005460E460027B846002433E0295D41F6FC
:101C3000087202EB4410FEF774FB315D41F6086256
:101C400002EB4410FEF76DFB0020144921F814004C
:101C5000134921F81400B7F5804F07DC285D4FF6D3
:101C6000FF7101EA80200D4921F81400B8F5804F7A
:101C700007DC305D4FF6FF7101EA8020084921F84A
:101C80001400064830F814000744054830F81400E2
:101C90008044641C082CC9DBBDE8F0813A3900207F
:101CA0004A390020016841F0400101607047014657
:101CB000C86880B27047C1607047024690680840AB
:101CC00008B1012070470020FCE7024600201068A0
:101CD00000F441500B6818434B6818438B68184355
:101CE000CB6818430B6918434B6918438B69184339
:101CF0001060D36923F40063D36170470020002192
:101D0000394A126842F00102374B1A6000BF401C8A
:101D1000354A126802F0020111B9B0F5A06FF6D190
:101D2000314A126802F002020AB900BFFEE72E4AE9
:101D3000D26942F080522C4BDA612C4A126842F48C
:101D400040422A4B1A60284A5268274B5A601A466A
:101D500052685A601A46526842F480625A601A46C3
:101D60005268234B1A40204B5A601A465268214B46
:101D70001A431D4B5A601A46126842F080721A606C
:101D800000BF194A126802F00072002AF9D0174AFF
:101D9000126842F48032154B1A6000BF134A526831
:101DA00002F48032002AF9D0104A126842F400325C
:101DB0000E4B1A6000BF0D4A526802F40032002A2E
:101DC000F9D0094A526822F00302074B5A601A46BA
:101DD000526842F002025A6000BF034A526802F0A1
:101DE0000802002AF9D0704700100240007000403D
:101DF000FFFFC3B70000340810B5FFF77FFF10BD29
:101E000010B5114800681149B0FBF1F4601EB0F143
:101E1000807F01D301200FE0601E4FF0E021486178
:101E20000F214FF0FF30FEF72BFB00204FF0E02199
:101E3000886107200861002008B100BFFEE700218B
:101E4000481EFEF71DFB10BD00000020C0D401009D
:101E500038B504461348C470FFF7BEF9FFF7BCFC61
:101E6000FFF764FEFFF7BEFD0F491048FFF7D6FEEF
:101E70000FA0FEF7F5FA1B48C07800901948837848
:101E80004278017818A0FEF7EBFA1D4801881DA0E2
:101E9000FEF7E6FA1FA0FEF7E3FA2DA0FEF7E0FA40
:101EA00038BD0000FA020020E9020020E102002013
:101EB00020B5E7C4D4D7F7CEAA544350B7FECEF12D
:101EC000B6CB2CC8C35735353030D7F7CEAABFCDE7
:101ED000BBA7B6CB20544350C8A5C1ACBDD3200D81
:101EE0000A0000000C03002020B7FECEF1C6F7491F
:101EF000503A25642E25642E25642E25640D0A0093
:101F00001003002020BCE0CCFDB6CBBFDA3A25643C
:101F1000200D0A0020C1ACBDD3B3C9B9A6BAF3A342
:101F2000ACB7FECEF1C6F7B7A2CBCDCAFDBEDDB8C9
:101F3000F85735353030A3AC5735353030BDABB7F9
:101F4000B5BBD8B6D4D3A6CAFDBEDD200D0A0000AD
:101F500020D3A6D3C3B3CCD0F2D6B4D0D0D6D0A1A0
:101F6000ADA1AD0D0A0000001FB54FF4E060FFF712
:101F700003FC4FF0804000F021F87720ADF800001E
:101F80000020ADF80200ADF80400632002900020AC
:101F9000ADF8060069464FF0804000F083F801215B
:101FA000880700F0CBF8002201211C20FFF7CCFAB3
:101FB0004FF0804000F070F81FBD000010B50446DF
:101FC0003349601A8C4244D00CDCB4F1804F1CD0F1
:101FD0003048204410B3B0F5806F28D0B0F5006FC2
:101FE00052D12DE0B0F5806F3CD0B0F58E3F03D0DC
:101FF000B0F5923F48D13EE040F20B30FFF7DCFBFA
:1020000040F20B30FFF7C8FB3FE04FF48060FFF772
:10201000D3FB4FF48060FFF7BFFB36E040F2014096
:10202000FFF7CAFB40F20140FFF7B6FB2DE040F29C
:102030000240FFF7C1FB40F20240FFF7ADFB24E096
:1020400040F20340FFF7B8FB40F20340FFF7A4FB68
:102050001BE040F20440FFF7AFFB40F20440FFF703
:102060009BFB12E040F20540FFF7A6FB40F2054063
:10207000FFF792FB09E040F20D30FFF79DFB40F2C5
:102080000D30FFF789FB00E000BF00BF10BD00006E
:102090000010004000FCFFBF016841F00101016039
:1020A000704700000A8882621D4A90420ED0B0F14B
:1020B000804F0BD01B4A904208D01B4A904205D05B
:1020C0001A4A904202D01A4A90420BD1026822F07A
:1020D0007002026002684B881A43026002688B88B3
:1020E0001A4302608A68C262124A90420AD0124AB7
:1020F000904207D0026822F4407202600268CB88E6
:102100001A430260064A904202D0094A904201D125
:102110000A7B0263426942F001024261704700009B
:10212000002C01400004004000080040000C00406A
:10213000003401400010004000140040C2680A430F
:10214000C2607047CA43026170470246D06800EA25
:1021500001031069084010B10BB101207047002045
:10216000FCE700002DE9F04704460D460027B8467D
:10217000B94600261D49601A8C421CD006DC1C485A
:10218000204470B1B0F5806F1FD10FE0B0F5806FC3
:1021900016D0B0F56C4F18D10320FFF741FA07466F
:1021A00014E00220FFF73CFA07460FE00220FFF799
:1021B00037FA07460AE00220FFF732FA074605E041
:1021C0000220FFF72DFA074600E000BF00BF07EB33
:1021D0005500B0FBF5F64FF6F07006EA000806F081
:1021E0000F0948EA0900A060BDE8F087004C0040F4
:1021F00000BCFFBFC1F308024260704710B504463F
:102200002049601A8C4228D006DC1F48204490B137
:10221000B0F5806F33D117E0B0F5806F26D0B0F500
:102220006C4F2CD140F20E30FFF7C6FA40F20E3060
:10223000FFF7B2FA24E040F21140FFF7BDFA40F296
:102240001140FFF7A9FA1BE040F21240FFF7B4FA81
:1022500040F21240FFF7A0FA12E040F21340FFF7FD
:10226000ABFA40F21340FFF797FA09E040F214404E
:10227000FFF7A2FA40F21440FFF78EFA00E000BF29
:1022800000BF10BD004C004000BCFFBFC16841F45E
:102290000051C160704710B5024602EB9110006812
:1022A00001F01F040123A340184008B1012010BD14
:1022B0000020FCE70A460021C16821F00401114317
:1022C000C16070470A460021C16821F0080111432E
:1022D000C160704710B5044624B940210548FEF797
:1022E00077FF05E0012C03D140210248FEF772FF81
:1022F00010BD0000000C01402DE9F04104460F46DE
:102300001546002615B910A0FEF7AAF8FFF76CF8DD
:10231000C4F30740FDF7FFFFC4F30720FDF7FBFF01
:1023200004F0F800FDF7F7FF002605E00020FDF7B8
:10233000F2FFB855701C86B2AE42F7DBFFF759F8D2
:102340002846BDE8F0810000556E657870656374BD
:10235000656432206C656E67746820300D0A000079
:102360002DE9F04104460F461546002615B910A088
:10237000FEF776F8FFF738F8C4F30740FDF7CBFF18
:10238000C4F30720FDF7C7FF04F0F801091DC8B228
:10239000FDF7C1FF002604E0B85DFDF7BCFF701C2F
:1023A00086B2AE42F8DBFFF724F82846BDE8F0819C
:1023B000556E657870656374656432206C656E6710
:1023C000746820300D0A0000E82300080000002097
:1023D00024030000B8010008902400082403002012
:1023E000643A0000B8040008100A000E2707010034
:1023F0000000020412040412080412100412200443
:1024000012400412801452061C21242101120714C8
:10241000120514120314520134120E04120C041289
:102420000A04120944120F14120D14220B31000475
:102430001B08014004120C04921004D11052409465
:102440005204705280A05208B8D20120D20220015A
:10245000220101BEE4051EC42587A70E06E900057A
:1024600020014002063805C0FC5210FE8610ED1017
:102470000E08DC111111C0A80158FFFFFF0008135E
:1024800001720113881312080410668813310000CA
:0400000508000131BD
:00000001FF
