:020000040800F2
:1000000090AB00204501000833030008BB02000844
:100010002F0300085F0200080D0400080000000024
:100020000000000000000000000000007103000854
:10003000B902000800000000350300085D01000857
:100040005F0100085F0100085F0100085F01000810
:100050005F0100085F0100085F0100085F01000800
:100060005F0100085F0100085F01000865020008E9
:100070005F0100085F0100085F0100085F010008E0
:100080005F0100085F0100085F0100085F010008D0
:100090005F0100085F0100085F0100085F010008C0
:1000A0005F0100085F0100085F0100085F010008B0
:1000B0005F0100085F010008F10300085F0100080C
:1000C0005F0100085F0100085F0100085F01000890
:1000D0005F0100085F0100085F0100085F01000880
:1000E0005F0100085F0100085F0100085F01000870
:1000F0005F0100085F0100085F0100085F01000860
:100100005F0100085F0100085F0100085F0100084F
:100110005F0100085F0100085F0100085F0100083F
:100120005F0100085F0100085F0100085F0100082F
:10013000DFF80CD000F052F8004800479512000894
:1001400090AB00200648804706480047FEE7FEE7E0
:10015000FEE7FEE7FEE7FEE7FEE7FEE7FEE7FEE777
:10016000750300083101000840EA01039B0703D032
:1001700009E008C9121F08C0042AFAD203E011F8E6
:10018000013B00F8013B521EF9D27047D2B201E0A8
:1001900000F8012B491EFBD270470022F6E710B58C
:1001A00013460A4604461946FFF7F0FF204610BDE5
:1001B00030B50B46014600202022012409E021FA37
:1001C00002F59D4205D303FA02F5491B04FA02F534
:1001D0002844151EA2F10102F1DC30BD064C074D8A
:1001E00006E0E06840F0010394E807009847103407
:1001F000AC42F6D3FFF7A0FFC8240008E8240008AB
:1002000070B58D1810F8014B14F0030201D110F8ED
:10021000012B231106D110F8013B03E010F8016B0C
:1002200001F8016B521EF9D1ABB110F8012B04F0AB
:100230000C048A1A0C2C03D0A2EB84129B1C08E03D
:1002400010F8014BA2EB0422F8E712F8014B01F879
:10025000014B5B1EF9D5A942D4D3002070BD00BF6D
:10026000FEE7000010B504220021114800F0A4FDB3
:1002700058B1042200210E4800F096FD0D48007888
:10028000A0B901200B49087010E0022200210848A3
:1002900000F092FD50B102220021054800F084FDDB
:1002A0000448007810B902200249087010BD00000F
:1002B00000000240E4020020704700BFFEE770B576
:1002C0000446002500F0BEFFC4F3074000F010F81C
:1002D000C4F3072000F00CF804F0F80000F008F870
:1002E000002000F005F8054600F0B1FF284670BD7B
:1002F00010B50446204600F01FF810BD70B5044646
:100300000D4600F09FFFC4F30740FFF7F1FFC4F371
:100310000720FFF7EDFF04F0F801091DC8B2FFF751
:10032000E7FF2846FFF7E4FF00F091FF70BD00BF34
:10033000FEE770477047000010B5044600BF022179
:100340000A4801F036FC0028F9D02146074801F0A0
:100350002EFC00BF0121054801F02BFC0028F9D03C
:10036000024801F020FCC0B210BD00000030014086
:100370007047000008B51B48006840F47000194938
:1003800008601948006840F00100174908600846F5
:10039000406840F0800048600020009002E0009833
:1003A000401C009044F6206100988842F7D30E4824
:1003B000406820F003000C494860084600680B497B
:1003C0000840094908604FF41F008860084600682B
:1003D00020F48020086000204860C86201F088FC9A
:1003E00008BD000088ED00E000100240FFFFF6FEAF
:1003F0006FF001000349086003480088401C02496F
:1004000008807047100800402003002000BFFEE76E
:100410000FB4054B10B503A9044A029800F018F870
:1004200010BC5DF814FB00009D0E000824030020A2
:1004300002E008C8121F08C1002AFAD170477047AD
:10044000002001E001C1121F002AFBD1704700000B
:100450002DE9FF4F8BB09A460F460546002606E071
:1004600025280BD052460D9990476D1C761C287894
:100470000028F5D10FB03046BDE8F08F0024A0462B
:100480000122604900E0044315F8013F203B02FAD5
:1004900003F00842F7D128782E2817D115F8010F5C
:1004A00044F004042A280ED06FF02F022878A0F11F
:1004B000300109290AD808EB880102EB410100EB61
:1004C00001086D1CF2E757F8048B6D1C2878692829
:1004D0003ED006DC0028CDD063280BD0642804D1A0
:1004E00036E0732810D075284BD052460D999047AE
:1004F000761C85E017F8040B8DF8000000208DF8BD
:100500000100E946012003E057F8049B4FF0FF305B
:1005100061074FF0000401D40AE0641C44450DDA81
:100520008442FADB19F804100029F6D106E0641CB5
:100530008442FCDB19F804100029F8D1264404E0B9
:1005400019F8010B52460D999047641EF8D257E0F6
:1005500001CF4FF00A0B002802DA40422D2102E0C1
:10056000210504D52B218DF82410012103E0E1079A
:1005700005D02021F7E70DF1200908910CE00021BA
:10058000F9E701CF4FF00A0BF9E75946FFF710FEE4
:1005900001F1300209F8012D0028F6D1ADEB090078
:1005A00000F1200B600701D44FF00108D84502DDAF
:1005B000A8EB0B0000E000208046002406E009A81C
:1005C0005246005D0D999047641C761C0898844241
:1005D000F5DB04E0302052460D999047761CB8F1C7
:1005E0000001A8F10108F5DC05E019F8010B5246FD
:1005F0000D999047761CBBF10001ABF1010BF4DCC7
:100600006D1C34E709280100816841F00801816010
:1006100000BF816801F008010029FAD1816841F02A
:100620000401816000BF816801F004010029FAD152
:10063000704730B5012902D002291AD10CE0C36AF3
:1006400023F47003C362C36A541E4FF4700505EAB5
:1006500004542343C3620DE0836B23F4401383638C
:10066000836B541E4FF4401505EA045423438363FF
:1006700000E000BF00BF30BD10B54FF4E02000F037
:10068000E3F80021344800F06DF80021324800F012
:1006900069F801221102304800F059F901221102D3
:1006A0002E4800F054F900212B4800F046F90021B3
:1006B0002A4800F042F9102201212748FFF7B9FF2C
:1006C000102201212548FFF7B4FF002409E0244847
:1006D00010F82420002321461F4800F0D8F8601CA1
:1006E000C4B2102CF3DB002409E01D4810F82420CC
:1006F00000232146194800F0CAF8601CC4B2102C2F
:10070000F3DB01221146144800F045F8012211469E
:10071000124800F040F8002201210F4800F05AF87A
:100720004FF4602201210D4800F054F80A4800F00F
:1007300029F8012000F07AF90748FFF765FF07481C
:1007400000F020F8012000F071F90448FFF75CFF89
:10075000014800F012F810BD0024014000280140BB
:100760002402002021B1826842F40062826003E02A
:10077000826822F4006282607047816841F480716F
:1007800081607047816801F0010119B9816841F009
:1007900001018160704772B101F001031BB18368F0
:1007A00043F48013836001F0020393B1836843F440
:1007B000004383600DE001F001031BB1836823F463
:1007C0008013836001F002031BB1836823F40043AC
:1007D00083607047012902D0022910D107E08368A5
:1007E00023F46023836083681343836008E0836895
:1007F00023F4E043836083681343836000E000BF19
:1008000000BF704710B500240BE0074951F82430B1
:10081000064951F824000422002100F065FC601C08
:10082000C4B2102CF1DB10BDA40200206402002031
:1008300010B500F017F8FFF7E5FF01F007FC00F036
:100840007FF9FFF719FF10BD0549096821F47021F0
:10085000034A1160114609680143116070470000A6
:100860000424014010B540F2026000F0FFFE4FF496
:10087000A06000F0FBFE40F20B6000F0F7FE40F2DB
:10088000096000F0F3FE002000F00EFE10BDF0B590
:100890001D4606290CD2436B01EB81071F26BE4083
:1008A000B34301EB810602FA06F63343436322E0C9
:1008B0000C290ED2036B8E1F06EB86071F26BE4047
:1008C000B3438E1F06EB860602FA06F63343036334
:1008D00011E010290FD2C36AA1F10C0606EB8607BE
:1008E0001F26BE40B343A1F10C0606EB860602FAB2
:1008F00006F63343C3620A2A0CD2046902EB4207AC
:100900000726BE40B44302EB420605FA06F634431E
:10091000046111E0122A0FD2C468A2F10A0606EBA4
:1009200046070726BE40B443A2F10A0606EB460678
:1009300005FA06F63443C460F0BD50F8802F22F467
:100940004052026002680A4340F880297047AAB109
:1009500001F480731BB1436843F48073436001F476
:1009600080631BB1436843F48063436001F002037A
:10097000CBB1836843F00203836014E001F4807319
:100980001BB1436823F48073436001F480631BB19F
:10099000436823F48063436001F002031BB1836862
:1009A00023F002038360704710B54FF4C06000F07D
:1009B0005DFE40F2056000F059FE00200B49087012
:1009C0000EE00B480949097850F8213003224821EC
:1009D000084800F089FB05480078401C034908706E
:1009E000024800780828ECDB10BD0000EC01002074
:1009F000CC0100200014014010B504464FF484716E
:100A000001EB44101021FFF779FC00BF4FF4847113
:100A100001EB4410FFF753FC0028F7D14FF40271AB
:100A200001EB4410FF21FFF769FC10BD00EE100A36
:100A3000B8EE400A124AD2ED000A20EE200ABCEEBF
:100A4000C00A10EE102A4FF0E0235A6100229A618A
:100A500001221A6100BF4FF0E022116901F001028A
:100A60001AB101F48032002AF5D04FF0E022126969
:100A700022F001024FF0E0231A6100229A617047D0
:100A80000801002000EE100AB8EE400A124AD2ED2A
:100A9000000A20EE200ABCEEC00A10EE102A4FF029
:100AA000E0235A6100229A6101221A6100BF4FF0CF
:100AB000E022116901F001021AB101F48032002A2A
:100AC000F5D04FF0E022126922F001024FF0E0234E
:100AD0001A6100229A6170470401002070B5054632
:100AE0000C462146284600F0A9F908B900BFFEE7E8
:100AF00004EB8400810005F10800405840F001013A
:100B000004EB8400820005F10800815070BD70B5CF
:100B100005460C462146284600F090F908B900BF6A
:100B2000FEE704EB8400810005F10800405840F026
:100B3000200104EB8400820005F10800815070BDA3
:100B400000B587B00021214800F046F82048009009
:100B500000208DF818001F48029001208DF8190020
:100B6000400201908000039000208DF81A004FF49D
:100B7000807004904FF4405005906A46002113485D
:100B800000F062F800211148FFF7C1FF04220021A4
:100B90000E4800F009F9022200210C4800F004F987
:100BA00002220021094800F0E6F80422002107484B
:100BB00000F0E1F8002211460B2000F009FC0021B2
:100BC0000248FFF78BFF07B000BD000000000240A5
:100BD0004C2401402885002070B504460D46294666
:100BE000204600F02BF908B900BFFEE705EB8500B1
:100BF000810004F10800405820F0010105EB850058
:100C0000820004F108008150002105EB850082007C
:100C100004F10800815005EB8500820004F10C000E
:100C2000815005EB8500820004F11000815005EB36
:100C30008500820004F1140081506068AA000F2131
:100C400091400843606070BD2DE9F04104460D46B7
:100C500016462946204600F0F1F808B900BFFEE725
:100C600005EB8500820004F110003168815005EB2E
:100C70008500820004F11400B1688150308A81B28D
:100C800005EB8500820004F10C00815005EB850026
:100C9000810004F10800475827F47C57F168706818
:100CA000084371690843074305EB8500810004F19F
:100CB00008004750307E01280ED105EB85008100E9
:100CC00004F10800405840F0400105EB8500820027
:100CD00004F1080081500DE005EB8500810004F16E
:100CE0000800405820F0400105EB8500820004F127
:100CF00008008150707E01280ED105EB850081002F
:100D000004F10800405840F0800105EB85008200A6
:100D100004F1080081500DE005EB8500810004F12D
:100D20000800405820F0800105EB8500820004F1A6
:100D300008008150B07E70B905EB8500810004F198
:100D40000800405820F0100105EB8500820004F1F6
:100D5000080081500DE005EB8500810004F10800DA
:100D6000405840F0100105EB8500820004F10800B6
:100D70008150BDE8F08170B504460D4616462946FF
:100D8000204600F05BF808B900BFFEE705EB8500E0
:100D9000810004F108004058304305EB85018A00CA
:100DA00004F10801885070BD10B543688C0002FA48
:100DB00004F42343436010BD70B5034600BF00BF79
:100DC000022A04D0042A11D0082A2DD11DE0186867
:100DD0008E0002FA06F600EA060501EB81008600A5
:100DE00003F10800805900F002041FE018688E002B
:100DF00002FA06F600EA060501EB8100860003F11F
:100E00000800805900F0040410E018688E0002FA0F
:100E100006F600EA060501EB8100860003F10800F2
:100E2000805900F0080401E000BFFEE700BF15B1E3
:100E30000CB1012070BD0020FCE70000024601203B
:100E4000034B9A4202D1042900DD002070470000C4
:100E50000004024038B504460D46022000F09AF81E
:100E600010B1222812D107E000230948028802218C
:100E7000084600F0EDFD09E006480088AAB2064BDE
:100E800021460090022000F07FFC00BF00BF38BD6B
:100E90000E030020140300201003002070B5044648
:100EA0000D46E1B2054801F025FA00BF07210348CD
:100EB00001F071FA0028F9D0204670BD00380140D9
:100EC00070B5054600241C48854200D101E000BFF2
:100ED000FEE71A4931F8140000F0C8FB184931F850
:100EE000140000F0C3FB174951F82430164951F89B
:100EF00024000322182100F0F7F8144951F8243097
:100F0000114951F824000322042100F0EDF828468D
:100F100001F0F4F94FF4E131284601F0A3F904217E
:100F2000284601F047FA0821284601F04BFA2846E6
:100F300001F02CFA70BD00000038014000020020D2
:100F4000F0010020F4010020FC010020F801002045
:100F500010B5044604222146900101F04DFA10BD5F
:100F60000146024830F81100704700003EA70020FB
:100F700010B50446042221464FF4706001F03CFA9B
:100F800010BD10B50446042221464FF4A06001F0C4
:100F900033FA10BD10B504464FF4427101EB441012
:100FA000FFF78DF910BD00001CB500201C4908702A
:100FB00010E01C481A4A127850F822101A4800F023
:100FC000F1F8174A12780DF8020015480078401C15
:100FD00013490870124800780828EADB9DF80000E1
:100FE0009DF8011040EA41009DF8021040EA81009E
:100FF0009DF8031040EAC1009DF8041040EA01107A
:101000009DF8051040EA41109DF8061040EA811055
:101010009DF8071040EAC110C4B220461CBD000074
:10102000EC010020CC010020001401404161704718
:101030000161704700B587B040F2036000F016FB15
:1010400040F2036000F012FB40F2036000F00EFB80
:1010500040F2036000F00AFB40F20C6000F006FB77
:101060004FF4C06000F002FB01211C4800F0A2F820
:101070000121084600F09EF8382303221821184861
:1010800000F032F8402303221021154800F02CF81C
:10109000002001904FF48270009000200290059093
:1010A0004FF40070039000200690049069460D48AC
:1010B00000F087FD0B4800F071FD4FF480730322B0
:1010C0001021074800F010F84FF4807303224821E4
:1010D000034800F009F807B000BD0000000230002E
:1010E000000C014000300140F0B5044616460025D2
:1010F000002201F00F0501F0100747B1042E05D1C1
:1011000045F00305E76B1F43E76300E0354300202C
:101110001EE0012787401F40C7B122684FEA800CBC
:101120000F2707FA0CF7BA43870005FA07F73A4387
:10113000282904D1012787401F40676105E048291D
:1011400003D1012787401F4027612260471CB8B2A6
:101150000828DED3082022E0012787401F40E7B19E
:101160006268A0F108074FEA870C0F2707FA0CF70F
:10117000BA43A0F10807BF0005FA07F73A43282948
:1011800004D1012787401F40676105E0482903D14A
:10119000012787401F4027616260471CB8B21028B2
:1011A000DAD3F0BD02469068084008B101207047CC
:1011B0000020FCE7F0B50A460023002400210025AA
:1011C00000F00046B6F1004F02D11D4EF16901E07A
:1011D0001B4E7168C0F3034583B200F44016B6F5A8
:1011E000401F08D121F0E061154E766826F0E066D8
:1011F000134F7E6012E000F48016B6F5801F06D112
:10120000032606FA05F4A14341F0E06106E0460D2D
:10121000360103FA06F6B14341F0E06122B1460D12
:10122000360103FA06F6314300F00046B6F1004FEE
:1012300002D1034EF16101E0014E7160F0BD00008A
:101240000000014010B5002001F0C4F810BD10B539
:10125000012001F0BFF810BD10B540F2046000F0AD
:1012600005FA4FF4C06000F001FA4FF40053032276
:1012700010210248FFF738FF10BD000000100140A8
:1012800010B54FF400510248FFF7D0FE10BD00002A
:1012900000100140FFF76EF84FF4407000F0FAF8CC
:1012A00000F03EFDFFF7D8FFFFF77EFBFFF7C0FA27
:1012B0003A48FFF705FEFFF7E3FFFFF775FE3849F1
:1012C00008800846018837A0FFF7A2F800F05CFF0D
:1012D00062E03948007801280DD138490978384A48
:1012E00002EB81204FF400723649FEF73DFF0020EB
:1012F0003149087017E030480078022813D12F498F
:1013000009784900491C2E4A02EB41204FF4007233
:101310002D49FEF729FF002027490870274800784B
:10132000401C2649087025480078042834D100263E
:101330002AE04FF400712548FEF72FFF00241AE041
:101340007002C11700EB917104EBA1011C4A02EB82
:1013500081052978A000C01C1C4A11546978A0009E
:10136000801C1154A978A000401C1154E97802F89F
:101370002410601C84B2802CE2DB4FF4007113480F
:10138000FFF768FD701C86B20C4800788642D0DBFF
:1013900000200A49087000BF9BE7000000380140A8
:1013A000E4000020416464726573732069733A2518
:1013B00064200A0D00000000E4020020010100206A
:1013C000280300202885002028870020288300206B
:1013D0002DE9F04103460D46164600240027A0469D
:1013E0002A48006800F4E060B0F5E06F03D100BF68
:1013F0004FF0040830E02548006800F4E060B0F5E4
:10140000C06F03D101274FF0030825E01F48006893
:1014100000F4E060B0F5A06F02D10227B8461BE0EF
:101420001A48006800F4E060B0F5806F03D103272C
:101430004FF0010810E01548006800F4E060B0F5D6
:10144000407F03D104274FF0000805E04FF4A0606F
:1014500000F020F80227B846C7F1040005FA00F4AE
:10146000C8F104010F20C84030400443240108485B
:10147000C45403F01F01012088405911890001F173
:10148000E021C1F80001BDE8F08100000CED00E0B2
:1014900000E400E002490143024A11607047000085
:1014A0000000FA050CED00E0184B5968184B194084
:1014B000164BDA6A22F000520C2820D2DFE800F046
:1014C000060708091F0C1F0D1516171800BF00BFCF
:1014D00000BF41EA803113E000BF20F004004FF06C
:1014E000805343EA803319430AE000BF00BF00BFC6
:1014F00020F00C0041EA803142F0005200E000BFD1
:1015000000BF024B5960DA627047000000100240D1
:10151000FF3FFFEF2DE9F04F8CB0074600200A9007
:101520004AA090E8004CC068CDE905BECDF810A0F7
:1015300007900FF21C1ADAE9000ACDE9020A0FF24D
:10154000101ADAE9000ACDE9000A44484068C0F3FD
:1015500081000B900B9820B1012804D002283FD1C4
:1015600003E03F4A3EE03E4A3CE03C48406800F42D
:10157000803CBCF5803F12D13848C06A00F08048FA
:10158000B8F1000F01D1364B00E0364B33484068CC
:1015900000F40039B9F5003F02D15B0800E0324B9E
:1015A0002E484068C0F383412C48406800F000603A
:1015B00008B141F010012948406800F0804008B1AE
:1015C00041F020010F2901D2891C06E00F2903D325
:1015D0003E2901D8491C00E03F2103FB01F201E054
:1015E0001F4A00BF00BF1D484068C0F3031504A890
:1015F000465D22FA06F419484068C0F3022502A8A5
:10160000465D24FA06F0099014484068C0F3C225EC
:101610001DF8056024FA06F0089037B1012F06D0B6
:10162000022F06D0032F0AD106E00A9208E00A949E
:1016300006E009980A9003E008980A9000E000BFCD
:1016400000BF0A980CB0BDE8F08F00000000000059
:101650000000000001020304060708090010024010
:1016600000127A00006CDC0200093D00064A02EB21
:101670009011096800F01F0301229A401143024BA8
:1016800003EB90121160704700100240064A02EB13
:101690009011096800F01F0301229A409143024B08
:1016A00003EB90121160704700100240064A02EBF3
:1016B0009011096800F01F0301229A401143024B68
:1016C00003EB9012116070470010024010B54FF408
:1016D00080710748FFF7AAFC6420FFF7D3F94FF4A5
:1016E00080710348FFF7A4FC0120FFF79FF910BDAC
:1016F000000C01402DE9F04104460F461646002536
:10170000A8462EB9214618A0FEF782FEBDE8F0815A
:1017100042F2084101EB4410FEF7D1FD054642F2CA
:10172000085101EB4410FEF7CAFD00EB052085B21D
:10173000280200EB441000F11008324639464046BA
:1017400000F08EFEA81985B2290A42F2084202EB87
:101750004410FEF7D3FDE9B242F2085202EB441006
:10176000FEF7CCFD00BFD1E743483A202564205561
:101770006E657870656374656431206C656E67743E
:101780006820300D0A0000002DE9F0470446894624
:1017900016461D46089F4FF000082046FFF7E0FB65
:1017A000B04204DA2046FFF7DBFB804600E0B0469B
:1017B000287828B9687818B9A87808B9E87800B105
:1017C00017B94FF0000863E0297840F6084202EBB1
:1017D0004410FEF793FD697840F6085202EB44107E
:1017E000FEF78CFDA97840F6086202EB4410FEF784
:1017F00085FDE97840F6087202EB4410FEF77EFDA5
:10180000390A41F2080202EB4410FEF777FDF9B203
:1018100041F2081202EB4410FEF770FD42464946C1
:101820002046FFF767FF4FF4847101EB441020213D
:10183000FEF764FD00BF4FF4847101EB4410FEF726
:101840003EFD0028F7D112E04FF4027101EB441085
:10185000FEF735FD00F0080048B14FF4027101EBCE
:1018600044101821FEF74AFD0020BDE8F0874FF430
:10187000027101EB4410FEF722FD00F01000102869
:10188000E2D14FF4027101EB44101021FEF736FD56
:101890004046EAE710B5044604222146900100F0D4
:1018A000DFFD10BD10B50446062221464FF410603E
:1018B00000F0D6FD10BD10B50446042221464FF4B9
:1018C000706000F0CDFD10BD10B504460422214625
:1018D0004FF4A06000F0C4FD10BD000008B52A4818
:1018E0002A490A6802608988818029490968C0F804
:1018F000061028490968C0F80A1027490968C0F885
:101900000E1026490968C0F812102548007810B951
:1019100024A0FEF77DFD01201B49887600211A488E
:10192000C1760A30FFF7D0FF17480E30FFF7B2FF3D
:101930001548801DFFF7BFFF1548FFF719FB144836
:10194000C078009012488378427801781DA0FEF795
:101950005FFD1048FFF715FB0E48C07800900D485A
:101960008378427801781FA0FEF752FD0A48FFF7FE
:10197000EFFA0948C07800900748837842780178E8
:1019800020A0FEF745FD08BD5EA70020F80200205C
:10199000FE02002002030020060300200A030020AC
:1019A0001603002020CAB9D3C3B6A8D2E5B5C449EE
:1019B00050D0C5CFA2C5E4D6C357353530300D0A57
:1019C00000000000205735353030204950B5D8D6BA
:1019D000B72020203A2025642E25642E25642E254C
:1019E000640D0A0020573535303020D7D3CDF8D1DB
:1019F000DAC2EB203A2025642E25642E25642E259C
:101A0000640D0A0020573535303020CDF8B9D82084
:101A1000202020203A2025642E25642E25642E25A2
:101A2000640D0A0010B5074807490A6802608988F2
:101A30008180FFF737FF054803490A6802608988FB
:101A4000818010BD5EA70020F802002028A300209E
:101A50002DE9F04104460D461646984605F00F0064
:101A600001280FD005F00F0002280BD005F00F0061
:101A7000032807D005F00F00042803D005F00F005D
:101A8000052841D12046FEF7B7FF45EA08010822A4
:101A900002EB4410FEF732FC76B1310A4FF481625A
:101AA00002EB4410FEF72AFCF1B24FF4A16202EB04
:101AB0004410FEF723FC15E015480088401C14492B
:101AC00008800A461288110A4FF4816202EB441022
:101AD000FEF714FC0E4A11784FF4A16202EB441099
:101AE000FEF70CFC4FF4847101EB44100121FEF76A
:101AF00005FC00BF4FF4847101EB4410FEF7DFFBDF
:101B00000028F7D1012700E000273846BDE8F08122
:101B10000E0300202DE9F04105460E460027B84689
:101B2000002433E0295D41F6087202EB4410FEF711
:101B3000E5FB315D41F6086202EB4410FEF7DEFB87
:101B40000020144921F81400134921F81400B7F5B6
:101B5000804F07DC285D4FF6FF7101EA80200D49B8
:101B600021F81400B8F5804F07DC305D4FF6FF71A7
:101B700001EA8020084921F81400064830F81400D2
:101B80000744054830F814008044641C082CC9DB65
:101B9000BDE8F0813EA700204EA70020016841F07B
:101BA0004001016070470146C86880B27047C1605B
:101BB000704702469068084008B101207047002035
:101BC000FCE702460020106800F441500B681843FF
:101BD0004B6818438B681843CB6818430B6918434C
:101BE0004B6918438B6918431060D36923F4006371
:101BF000D361704700200021394A126842F0010287
:101C0000374B1A6000BF401C354A126802F00201CF
:101C100011B9B0F5A06FF6D1314A126802F0020294
:101C20000AB900BFFEE72E4AD26942F080522C4B1F
:101C3000DA612C4A126842F440422A4B1A60284A60
:101C40005268274B5A601A4652685A601A465268C0
:101C500042F480625A601A465268234B1A40204B65
:101C60005A601A465268214B1A431D4B5A601A4655
:101C7000126842F080721A6000BF194A126802F0BE
:101C80000072002AF9D0174A126842F48032154BCC
:101C90001A6000BF134A526802F48032002AF9D059
:101CA000104A126842F400320E4B1A6000BF0D4A0F
:101CB000526802F40032002AF9D0094A526822F030
:101CC0000302074B5A601A46526842F002025A60F9
:101CD00000BF034A526802F00802002AF9D0704798
:101CE0000010024000700040FFFFC3B7000034083E
:101CF00010B5FFF77FFF10BD042808D14FF0E02199
:101D0000096941F004014FF0E022116107E04FF052
:101D1000E021096921F004014FF0E02211617047D0
:101D200010B50420FFF7E8FF0A4890ED000AB8EE6E
:101D3000400ADFED090A80EE201A084880ED001AFB
:101D400090ED000ADFED060A20EE200A054880ED3E
:101D5000000A10BD00000020C0E1E44C0401002096
:101D600000007A4408010020016841F08001016010
:101D70007047000010B531B101293FD002297DD054
:101D800003297CD1BFE0036A23F001030362836966
:101D900023F003038361036A148823430362036A05
:101DA00023F002030362036A9488234303626A4BAD
:101DB000984202D0694B98421FD1036A23F0040372
:101DC0000362036A548823430362036A23F008030F
:101DD0000362036AD48823430362436823F4807355
:101DE00043604368148923434360436823F40073CA
:101DF00043604368548923434360ABE0036A23F0A4
:101E000010030362836923F440738361036A1488B7
:101E100043EA04130362036A23F020030362036AA4
:101E2000948843EA041303624B4B984202D04B4B15
:101E3000984226D1036A23F040030362036A548860
:101E400043EA04130362036A23F080030362036A14
:101E5000D48843EA04130362436823F48063436035
:101E60004368148943EA84034360436823F40063AE
:101E700043604368548943EA840301E002E068E078
:101E8000436067E0036A23F480730362C36923F04D
:101E90000303C361036A148843EA04230362036AE9
:101EA00023F400730362036A948843EA0423036201
:101EB000294B984202D0294B984223D1036A23F43C
:101EC00080630362036A548843EA04230362036A5B
:101ED00023F400630362036AD48843EA04230362A1
:101EE000436823F4805343604368148943EA04132E
:101EF0004360436823F4005343604368548943EAD2
:101F00000413436026E0036A23F480530362C36929
:101F100023F44073C361036A148843EA0433036201
:101F2000036A23F400530362036A948843EA043388
:101F30000362094B984202D0084B984208D143688B
:101F400023F4804343604368148943EA8413436065
:101F500000E000BF00BF10BD002C01400034014074
:101F600031B101290CD0022913D0032922D118E064
:101F7000836923F0700383618369134383611AE0EB
:101F8000836923F4E0438361836943EA0223836125
:101F900011E0C36923F07003C361C3691343C361D4
:101FA00009E0C36923F4E043C361C36943EA022340
:101FB000C36100E000BF00BF704731B1012906D006
:101FC000022906D0032908D105E0426306E08263B6
:101FD00004E0C26302E0026400E000BF00BF70479B
:101FE00031B101290CD0022913D0032922D118E0E4
:101FF000836923F0080383618369134383611AE0D3
:10200000836923F400638361836943EA0223836164
:1020100011E0C36923F00803C361C3691343C361BB
:1020200009E0C36923F40063C361C36943EA02237F
:10203000C36100E000BF00BF704700210180418004
:102040008180C180018141817047000000B587B067
:102050007720ADF800000020ADF80200ADF80400D4
:10206000642002900020ADF806008DF80C0069464F
:10207000154800F031F804A8FFF7DFFF0020ADF8A5
:1020800014000120ADF8100004AA00210E48FFF74B
:1020900071FE142200210C48FFF78FFF60220021FF
:1020A0000948FFF75DFF002211460748FFF798FF38
:1020B0000121054800F05CF80348FFF755FE02488F
:1020C00000F004F807B000BD002C0140016841F0A9
:1020D00001010160704700000A8882621D4A904237
:1020E0000ED0B0F1804F0BD01B4A904208D01B4A53
:1020F000904205D01A4A904202D01A4A90420BD11F
:10210000026822F07002026002684B881A43026083
:1021100002688B881A4302608A68C262124A90423F
:102120000AD0124A904207D0026822F4407202603C
:102130000268CB881A430260064A904202D0094ADC
:10214000904201D10A7B0263426942F0010242617E
:1021500070470000002C01400004004000080040CF
:10216000000C00400034014000100040001400400A
:10217000012904D1426C42F40042426403E0426C03
:1021800022F400424264704710B5FEF753FFFFF798
:102190009DFAFFF747FCFFF7A1FB0A490A48FFF742
:1021A000B9FC0AA0FEF734F91148018811A0FEF726
:1021B0002FF91748018817A0FEF72AF91AA0FEF791
:1021C00027F910BDEE020020E60200202057353529
:1021D0003030BFC9D2D4BACDB5E7C4D4B5C45544A4
:1021E00050B6CBBFDACDA8D1B6200D0A0000000052
:1021F0000E030020205735353030B5C4B1BEB5D8F8
:10220000B6CBBFDACEAA3A2564200D0A0000000042
:102210001403002020D4B6B6CBB6CBBFDACEAA3A90
:102220002564200D0A00000020C1ACBDD3B3C9B99C
:10223000A6BAF3A3AC5043BBFAB7A2CBCDCAFDBE3E
:10224000DDB8F85735353030A3AC5735353030BDB3
:10225000ABB7B5BBD8B6D4D3A6CAFDBEDD200D0A38
:10226000000000002DE9F04704460D460027B8465F
:10227000B94600261D49601A8C421CD006DC1C4859
:10228000204470B1B0F5806F1FD10FE0B0F5806FC2
:1022900016D0B0F56C4F18D10320FFF73BF9074675
:1022A00014E00220FFF736F907460FE00220FFF79F
:1022B00031F907460AE00220FFF72CF9074605E04E
:1022C0000220FFF727F9074600E000BF00BF07EB39
:1022D0005500B0FBF5F64FF6F07006EA000806F080
:1022E0000F0948EA0900A060BDE8F087004C0040F3
:1022F00000BCFFBFC1F308024260704710B504463E
:102300002049601A8C4228D006DC1F48204490B136
:10231000B0F5806F33D117E0B0F5806F26D0B0F5FF
:102320006C4F2CD140F20E30FFF7C0F940F20E3066
:10233000FFF7ACF924E040F21140FFF7B7F940F2A3
:102340001140FFF7A3F91BE040F21240FFF7AEF98E
:1023500040F21240FFF79AF912E040F21340FFF703
:10236000A5F940F21340FFF791F909E040F214405B
:10237000FFF79CF940F21440FFF788F900E000BF36
:1023800000BF10BD004C004000BCFFBFC16841F45D
:102390000051C160704710B5024602EB9110006811
:1023A00001F01F040123A340184008B1012010BD13
:1023B0000020FCE70A460021C16821F00401114316
:1023C000C16070470A460021C16821F0080111432D
:1023D000C160704710B5044624B940210548FEF796
:1023E00025FE05E0012C03D140210248FEF720FE26
:1023F00010BD0000000C01402DE9F04104460F46DD
:102400001546002615B910A0FEF702F8FEF71AFFD0
:10241000C4F30740FDF76CFFC4F30720FDF768FF26
:1024200004F0F800FDF764FF002605E00020FDF74A
:102430005FFFB855701C86B2AE42F7DBFEF707FFB0
:102440002846BDE8F0810000556E657870656374BC
:10245000656432206C656E67746820300D0A000078
:102460002DE9F04104460F461546002615B910A087
:10247000FDF7CEFFFEF7E6FEC4F30740FDF738FF99
:10248000C4F30720FDF734FF04F0F801091DC8B2BA
:10249000FDF72EFF002604E0B85DFDF729FF701C54
:1024A00086B2AE42F8DBFEF7D2FE2846BDE8F081E8
:1024B000556E657870656374656432206C656E670F
:1024C000746820300D0A0000E82400080000002095
:1024D00028030000000200089025000828030020BF
:1024E00068A8000040040008100A000E2707010039
:1024F0000000020412040412080412100412200442
:1025000012400412801452061C21242101120714C7
:10251000120514120314520134120E04120C041288
:102520000A04120944120F14120D14220B31000474
:102530001B08014004120C04921004D11052409464
:102540005204705280A05208B8D20120D202200159
:10255000260101BEE8051EC8258BA70E06ED000565
:1025600020014002063809C100C3080808111210F2
:102570000DDC111111C0A80158FFFFFF0008130165
:10258000720113401F1208041066401F350000003E
:0400000508000131BD
:00000001FF
